{
  "abi": [
    {
      "anonymous": false,
      "inputs": [
        {
          "indexed": false,
          "internalType": "address",
          "name": "addr",
          "type": "address"
        }
      ],
      "name": "Deploy",
      "type": "event"
    },
    {
      "inputs": [
        {
          "internalType": "uint256",
          "name": "_salt",
          "type": "uint256"
        }
      ],
      "name": "deploy",
      "outputs": [],
      "stateMutability": "nonpayable",
      "type": "function"
    },
    {
      "inputs": [
        {
          "internalType": "bytes",
          "name": "bytecode",
          "type": "bytes"
        },
        {
          "internalType": "uint256",
          "name": "_salt",
          "type": "uint256"
        }
      ],
      "name": "getAddress",
      "outputs": [
        {
          "internalType": "address",
          "name": "",
          "type": "address"
        }
      ],
      "stateMutability": "view",
      "type": "function"
    },
    {
      "inputs": [
        {
          "internalType": "address",
          "name": "_owner",
          "type": "address"
        },
        {
          "internalType": "uint256",
          "name": "_foo",
          "type": "uint256"
        }
      ],
      "name": "getBytecode",
      "outputs": [
        {
          "internalType": "bytes",
          "name": "",
          "type": "bytes"
        }
      ],
      "stateMutability": "pure",
      "type": "function"
    }
  ],
  "address": "0x3B3D35eEB25C2E813fE2fF292cd4E65b0BD1A919",
  "args": [],
  "bytecode": "0x608060405234801561001057600080fd5b5061099f806100206000396000f3fe608060405234801561001057600080fd5b50600436106100415760003560e01c806381871cbc1461004657806394ca2cb514610076578063a5e38751146100a6575b600080fd5b610060600480360381019061005b91906102b2565b6100c2565b60405161006d919061038b565b60405180910390f35b610090600480360381019061008b91906104e2565b610138565b60405161009d919061054d565b60405180910390f35b6100c060048036038101906100bb9190610568565b610182565b005b60606000604051806020016100d6906101fd565b6020820181038252601f19601f8201166040525090508084846040516020016101009291906105a4565b604051602081830303815290604052604051602001610120929190610609565b60405160208183030381529060405291505092915050565b60008060ff60f81b3084868051906020012060405160200161015d949392919061070e565b6040516020818303038152906040528051906020012090508060001c91505092915050565b60008160001b33604051610195906101fd565b61019f919061054d565b8190604051809103906000f59050801580156101bf573d6000803e3d6000fd5b5090507f55ea6c6b31543d8e2ec6a72f71a79c0f4b72ed0d4757172b043d8f4f4cd84848816040516101f1919061054d565b60405180910390a15050565b61020d8061075d83390190565b6000604051905090565b600080fd5b600080fd5b600073ffffffffffffffffffffffffffffffffffffffff82169050919050565b60006102498261021e565b9050919050565b6102598161023e565b811461026457600080fd5b50565b60008135905061027681610250565b92915050565b6000819050919050565b61028f8161027c565b811461029a57600080fd5b50565b6000813590506102ac81610286565b92915050565b600080604083850312156102c9576102c8610214565b5b60006102d785828601610267565b92505060206102e88582860161029d565b9150509250929050565b600081519050919050565b600082825260208201905092915050565b60005b8381101561032c578082015181840152602081019050610311565b8381111561033b576000848401525b50505050565b6000601f19601f8301169050919050565b600061035d826102f2565b61036781856102fd565b935061037781856020860161030e565b61038081610341565b840191505092915050565b600060208201905081810360008301526103a58184610352565b905092915050565b600080fd5b600080fd5b7f4e487b7100000000000000000000000000000000000000000000000000000000600052604160045260246000fd5b6103ef82610341565b810181811067ffffffffffffffff8211171561040e5761040d6103b7565b5b80604052505050565b600061042161020a565b905061042d82826103e6565b919050565b600067ffffffffffffffff82111561044d5761044c6103b7565b5b61045682610341565b9050602081019050919050565b82818337600083830152505050565b600061048561048084610432565b610417565b9050828152602081018484840111156104a1576104a06103b2565b5b6104ac848285610463565b509392505050565b600082601f8301126104c9576104c86103ad565b5b81356104d9848260208601610472565b91505092915050565b600080604083850312156104f9576104f8610214565b5b600083013567ffffffffffffffff81111561051757610516610219565b5b610523858286016104b4565b92505060206105348582860161029d565b9150509250929050565b6105478161023e565b82525050565b6000602082019050610562600083018461053e565b92915050565b60006020828403121561057e5761057d610214565b5b600061058c8482850161029d565b91505092915050565b61059e8161027c565b82525050565b60006040820190506105b9600083018561053e565b6105c66020830184610595565b9392505050565b600081905092915050565b60006105e3826102f2565b6105ed81856105cd565b93506105fd81856020860161030e565b80840191505092915050565b600061061582856105d8565b915061062182846105d8565b91508190509392505050565b60007fff0000000000000000000000000000000000000000000000000000000000000082169050919050565b6000819050919050565b61067461066f8261062d565b610659565b82525050565b60008160601b9050919050565b60006106928261067a565b9050919050565b60006106a482610687565b9050919050565b6106bc6106b78261023e565b610699565b82525050565b6000819050919050565b6106dd6106d88261027c565b6106c2565b82525050565b6000819050919050565b6000819050919050565b610708610703826106e3565b6106ed565b82525050565b600061071a8287610663565b60018201915061072a82866106ab565b60148201915061073a82856106cc565b60208201915061074a82846106f7565b6020820191508190509594505050505056fe608060405234801561001057600080fd5b5060405161020d38038061020d833981810160405281019061003291906100db565b806000806101000a81548173ffffffffffffffffffffffffffffffffffffffff021916908373ffffffffffffffffffffffffffffffffffffffff16021790555050610108565b600080fd5b600073ffffffffffffffffffffffffffffffffffffffff82169050919050565b60006100a88261007d565b9050919050565b6100b88161009d565b81146100c357600080fd5b50565b6000815190506100d5816100af565b92915050565b6000602082840312156100f1576100f0610078565b5b60006100ff848285016100c6565b91505092915050565b60f7806101166000396000f3fe6080604052348015600f57600080fd5b506004361060285760003560e01c80638da5cb5b14602d575b600080fd5b60336047565b604051603e919060a8565b60405180910390f35b60008054906101000a900473ffffffffffffffffffffffffffffffffffffffff1681565b600073ffffffffffffffffffffffffffffffffffffffff82169050919050565b6000609482606b565b9050919050565b60a281608b565b82525050565b600060208201905060bb6000830184609b565b9291505056fea2646970667358221220b1a57e03234a8e9a682f52822ca8a6fce3508fda0ad1adb484ca5139ccc0382464736f6c634300080d0033a2646970667358221220be00a443e03e250e302916c71a516f2231f21caace0ee0a1af036e2b1c9bb8f064736f6c634300080d0033",
  "devdoc": {
    "kind": "dev",
    "methods": {},
    "version": 1
  },
  "numDeployments": 1,
  "solcInputHash": "9c85962739ebb5387fe6257aa0cb25c2",
  "storageLayout": {
    "storage": [],
    "types": null
  },
  "transactionHash": "0xaa984dfafa931286a575838181364eb97f249487c6da11461c314b646fc6e7c2",
  "userdoc": {
    "kind": "user",
    "methods": {},
    "version": 1
  }
}