{
  "abi": [
    {
      "inputs": [],
      "stateMutability": "nonpayable",
      "type": "constructor"
    },
    {
      "anonymous": false,
      "inputs": [
        {
          "indexed": true,
          "internalType": "address",
          "name": "owner",
          "type": "address"
        },
        {
          "indexed": true,
          "internalType": "address",
          "name": "approved",
          "type": "address"
        },
        {
          "indexed": true,
          "internalType": "uint256",
          "name": "tokenId",
          "type": "uint256"
        }
      ],
      "name": "Approval",
      "type": "event"
    },
    {
      "anonymous": false,
      "inputs": [
        {
          "indexed": true,
          "internalType": "address",
          "name": "owner",
          "type": "address"
        },
        {
          "indexed": true,
          "internalType": "address",
          "name": "operator",
          "type": "address"
        },
        {
          "indexed": false,
          "internalType": "bool",
          "name": "approved",
          "type": "bool"
        }
      ],
      "name": "ApprovalForAll",
      "type": "event"
    },
    {
      "anonymous": false,
      "inputs": [
        {
          "indexed": true,
          "internalType": "address",
          "name": "previousOwner",
          "type": "address"
        },
        {
          "indexed": true,
          "internalType": "address",
          "name": "newOwner",
          "type": "address"
        }
      ],
      "name": "OwnershipTransferred",
      "type": "event"
    },
    {
      "anonymous": false,
      "inputs": [
        {
          "indexed": true,
          "internalType": "address",
          "name": "from",
          "type": "address"
        },
        {
          "indexed": true,
          "internalType": "address",
          "name": "to",
          "type": "address"
        },
        {
          "indexed": true,
          "internalType": "uint256",
          "name": "tokenId",
          "type": "uint256"
        }
      ],
      "name": "Transfer",
      "type": "event"
    },
    {
      "inputs": [
        {
          "internalType": "address[]",
          "name": "to",
          "type": "address[]"
        }
      ],
      "name": "airdrop",
      "outputs": [],
      "stateMutability": "nonpayable",
      "type": "function"
    },
    {
      "inputs": [
        {
          "internalType": "address",
          "name": "to",
          "type": "address"
        },
        {
          "internalType": "uint256",
          "name": "tokenId",
          "type": "uint256"
        }
      ],
      "name": "approve",
      "outputs": [],
      "stateMutability": "nonpayable",
      "type": "function"
    },
    {
      "inputs": [
        {
          "internalType": "address",
          "name": "owner",
          "type": "address"
        }
      ],
      "name": "balanceOf",
      "outputs": [
        {
          "internalType": "uint256",
          "name": "",
          "type": "uint256"
        }
      ],
      "stateMutability": "view",
      "type": "function"
    },
    {
      "inputs": [
        {
          "internalType": "bytes",
          "name": "unencoded",
          "type": "bytes"
        }
      ],
      "name": "base64Encode",
      "outputs": [
        {
          "internalType": "string",
          "name": "",
          "type": "string"
        }
      ],
      "stateMutability": "pure",
      "type": "function"
    },
    {
      "inputs": [
        {
          "internalType": "bytes",
          "name": "json",
          "type": "bytes"
        }
      ],
      "name": "encodeMetadataJSON",
      "outputs": [
        {
          "internalType": "string",
          "name": "",
          "type": "string"
        }
      ],
      "stateMutability": "pure",
      "type": "function"
    },
    {
      "inputs": [
        {
          "internalType": "uint256",
          "name": "tokenId",
          "type": "uint256"
        }
      ],
      "name": "getApproved",
      "outputs": [
        {
          "internalType": "address",
          "name": "",
          "type": "address"
        }
      ],
      "stateMutability": "view",
      "type": "function"
    },
    {
      "inputs": [
        {
          "internalType": "address",
          "name": "owner",
          "type": "address"
        },
        {
          "internalType": "address",
          "name": "operator",
          "type": "address"
        }
      ],
      "name": "isApprovedForAll",
      "outputs": [
        {
          "internalType": "bool",
          "name": "",
          "type": "bool"
        }
      ],
      "stateMutability": "view",
      "type": "function"
    },
    {
      "inputs": [],
      "name": "mintIsOpen",
      "outputs": [
        {
          "internalType": "bool",
          "name": "",
          "type": "bool"
        }
      ],
      "stateMutability": "view",
      "type": "function"
    },
    {
      "inputs": [],
      "name": "name",
      "outputs": [
        {
          "internalType": "string",
          "name": "",
          "type": "string"
        }
      ],
      "stateMutability": "view",
      "type": "function"
    },
    {
      "inputs": [],
      "name": "owner",
      "outputs": [
        {
          "internalType": "address",
          "name": "",
          "type": "address"
        }
      ],
      "stateMutability": "view",
      "type": "function"
    },
    {
      "inputs": [
        {
          "internalType": "uint256",
          "name": "tokenId",
          "type": "uint256"
        }
      ],
      "name": "ownerOf",
      "outputs": [
        {
          "internalType": "address",
          "name": "",
          "type": "address"
        }
      ],
      "stateMutability": "view",
      "type": "function"
    },
    {
      "inputs": [],
      "name": "renderer",
      "outputs": [
        {
          "internalType": "contract Renderer",
          "name": "",
          "type": "address"
        }
      ],
      "stateMutability": "view",
      "type": "function"
    },
    {
      "inputs": [],
      "name": "renounceOwnership",
      "outputs": [],
      "stateMutability": "nonpayable",
      "type": "function"
    },
    {
      "inputs": [
        {
          "internalType": "address",
          "name": "to",
          "type": "address"
        }
      ],
      "name": "safeMint",
      "outputs": [],
      "stateMutability": "nonpayable",
      "type": "function"
    },
    {
      "inputs": [
        {
          "internalType": "address",
          "name": "from",
          "type": "address"
        },
        {
          "internalType": "address",
          "name": "to",
          "type": "address"
        },
        {
          "internalType": "uint256",
          "name": "tokenId",
          "type": "uint256"
        }
      ],
      "name": "safeTransferFrom",
      "outputs": [],
      "stateMutability": "nonpayable",
      "type": "function"
    },
    {
      "inputs": [
        {
          "internalType": "address",
          "name": "from",
          "type": "address"
        },
        {
          "internalType": "address",
          "name": "to",
          "type": "address"
        },
        {
          "internalType": "uint256",
          "name": "tokenId",
          "type": "uint256"
        },
        {
          "internalType": "bytes",
          "name": "_data",
          "type": "bytes"
        }
      ],
      "name": "safeTransferFrom",
      "outputs": [],
      "stateMutability": "nonpayable",
      "type": "function"
    },
    {
      "inputs": [
        {
          "internalType": "address",
          "name": "operator",
          "type": "address"
        },
        {
          "internalType": "bool",
          "name": "approved",
          "type": "bool"
        }
      ],
      "name": "setApprovalForAll",
      "outputs": [],
      "stateMutability": "nonpayable",
      "type": "function"
    },
    {
      "inputs": [
        {
          "internalType": "bool",
          "name": "_saleIsActive_",
          "type": "bool"
        }
      ],
      "name": "setMintIsOpen",
      "outputs": [],
      "stateMutability": "nonpayable",
      "type": "function"
    },
    {
      "inputs": [
        {
          "internalType": "bytes4",
          "name": "interfaceId",
          "type": "bytes4"
        }
      ],
      "name": "supportsInterface",
      "outputs": [
        {
          "internalType": "bool",
          "name": "",
          "type": "bool"
        }
      ],
      "stateMutability": "view",
      "type": "function"
    },
    {
      "inputs": [],
      "name": "symbol",
      "outputs": [
        {
          "internalType": "string",
          "name": "",
          "type": "string"
        }
      ],
      "stateMutability": "view",
      "type": "function"
    },
    {
      "inputs": [
        {
          "internalType": "uint256",
          "name": "tokenId",
          "type": "uint256"
        }
      ],
      "name": "tokenURI",
      "outputs": [
        {
          "internalType": "string",
          "name": "",
          "type": "string"
        }
      ],
      "stateMutability": "view",
      "type": "function"
    },
    {
      "inputs": [],
      "name": "totalSupply",
      "outputs": [
        {
          "internalType": "uint256",
          "name": "",
          "type": "uint256"
        }
      ],
      "stateMutability": "view",
      "type": "function"
    },
    {
      "inputs": [
        {
          "internalType": "address",
          "name": "from",
          "type": "address"
        },
        {
          "internalType": "address",
          "name": "to",
          "type": "address"
        },
        {
          "internalType": "uint256",
          "name": "tokenId",
          "type": "uint256"
        }
      ],
      "name": "transferFrom",
      "outputs": [],
      "stateMutability": "nonpayable",
      "type": "function"
    },
    {
      "inputs": [
        {
          "internalType": "address",
          "name": "newOwner",
          "type": "address"
        }
      ],
      "name": "transferOwnership",
      "outputs": [],
      "stateMutability": "nonpayable",
      "type": "function"
    }
  ],
  "address": "0x647151Fa4f547CB5CEe6188bB13fc1C32F639fBe",
  "args": [],
  "bytecode": "0x60806040526000600960146101000a81548160ff0219169083151502179055503480156200002c57600080fd5b506040518060400160405280600a81526020017f4c69676874204f726273000000000000000000000000000000000000000000008152506040518060400160405280600481526020017f4c4f5242000000000000000000000000000000000000000000000000000000008152508160009080519060200190620000b1929190620001c9565b508060019080519060200190620000ca929190620001c9565b5050506001600681905550620000f5620000e9620000fb60201b60201c565b6200010360201b60201c565b620002dd565b600033905090565b6000600760009054906101000a900473ffffffffffffffffffffffffffffffffffffffff16905081600760006101000a81548173ffffffffffffffffffffffffffffffffffffffff021916908373ffffffffffffffffffffffffffffffffffffffff1602179055508173ffffffffffffffffffffffffffffffffffffffff168173ffffffffffffffffffffffffffffffffffffffff167f8be0079c531659141344cd1fd0a4f28419497f9722a3daafe3b4186f6b6457e060405160405180910390a35050565b828054620001d790620002a8565b90600052602060002090601f016020900481019282620001fb576000855562000247565b82601f106200021657805160ff191683800117855562000247565b8280016001018555821562000247579182015b828111156200024657825182559160200191906001019062000229565b5b5090506200025691906200025a565b5090565b5b80821115620002755760008160009055506001016200025b565b5090565b7f4e487b7100000000000000000000000000000000000000000000000000000000600052602260045260246000fd5b60006002820490506001821680620002c157607f821691505b602082108103620002d757620002d662000279565b5b50919050565b61359380620002ed6000396000f3fe608060405234801561001057600080fd5b50600436106101585760003560e01c8063729ad39e116100c3578063b88d4fde1161007c578063b88d4fde1461039f578063c87b56dd146103bb578063d01fde8c146103eb578063d5fb1b191461041b578063e985e9c51461044b578063f2fde38b1461047b57610158565b8063729ad39e146102ef5780638ada6b0f1461030b5780638da5cb5b1461032957806395d89b4114610347578063a22cb46514610365578063aa1152ab1461038157610158565b8063297e1a1111610115578063297e1a111461023157806340d097c31461024d57806342842e0e146102695780636352211e1461028557806370a08231146102b5578063715018a6146102e557610158565b806301ffc9a71461015d57806306fdde031461018d578063081812fc146101ab578063095ea7b3146101db57806318160ddd146101f757806323b872dd14610215575b600080fd5b61017760048036038101906101729190611f23565b610497565b6040516101849190611f6b565b60405180910390f35b610195610579565b6040516101a2919061201f565b60405180910390f35b6101c560048036038101906101c09190612077565b61060b565b6040516101d291906120e5565b60405180910390f35b6101f560048036038101906101f0919061212c565b610690565b005b6101ff6107a7565b60405161020c919061217b565b60405180910390f35b61022f600480360381019061022a9190612196565b6107b8565b005b61024b60048036038101906102469190612215565b610818565b005b61026760048036038101906102629190612242565b6108b1565b005b610283600480360381019061027e9190612196565b6109a2565b005b61029f600480360381019061029a9190612077565b6109c2565b6040516102ac91906120e5565b60405180910390f35b6102cf60048036038101906102ca9190612242565b610a73565b6040516102dc919061217b565b60405180910390f35b6102ed610b2a565b005b610309600480360381019061030491906123b7565b610bb2565b005b610313610c88565b604051610320919061245f565b60405180910390f35b610331610cae565b60405161033e91906120e5565b60405180910390f35b61034f610cd8565b60405161035c919061201f565b60405180910390f35b61037f600480360381019061037a919061247a565b610d6a565b005b610389610d80565b6040516103969190611f6b565b60405180910390f35b6103b960048036038101906103b4919061256f565b610d93565b005b6103d560048036038101906103d09190612077565b610df5565b6040516103e2919061201f565b60405180910390f35b610405600480360381019061040091906125f2565b610e7e565b604051610412919061201f565b60405180910390f35b610435600480360381019061043091906125f2565b610eaf565b604051610442919061201f565b60405180910390f35b6104656004803603810190610460919061263b565b610ec1565b6040516104729190611f6b565b60405180910390f35b61049560048036038101906104909190612242565b610f55565b005b60007f80ac58cd000000000000000000000000000000000000000000000000000000007bffffffffffffffffffffffffffffffffffffffffffffffffffffffff1916827bffffffffffffffffffffffffffffffffffffffffffffffffffffffff1916148061056257507f5b5e139f000000000000000000000000000000000000000000000000000000007bffffffffffffffffffffffffffffffffffffffffffffffffffffffff1916827bffffffffffffffffffffffffffffffffffffffffffffffffffffffff1916145b8061057257506105718261104c565b5b9050919050565b606060008054610588906126aa565b80601f01602080910402602001604051908101604052809291908181526020018280546105b4906126aa565b80156106015780601f106105d657610100808354040283529160200191610601565b820191906000526020600020905b8154815290600101906020018083116105e457829003601f168201915b5050505050905090565b6000610616826110b6565b610655576040517f08c379a000000000000000000000000000000000000000000000000000000000815260040161064c9061274d565b60405180910390fd5b6004600083815260200190815260200160002060009054906101000a900473ffffffffffffffffffffffffffffffffffffffff169050919050565b600061069b826109c2565b90508073ffffffffffffffffffffffffffffffffffffffff168373ffffffffffffffffffffffffffffffffffffffff160361070b576040517f08c379a0000000000000000000000000000000000000000000000000000000008152600401610702906127df565b60405180910390fd5b8073ffffffffffffffffffffffffffffffffffffffff1661072a611122565b73ffffffffffffffffffffffffffffffffffffffff161480610759575061075881610753611122565b610ec1565b5b610798576040517f08c379a000000000000000000000000000000000000000000000000000000000815260040161078f90612871565b60405180910390fd5b6107a2838361112a565b505050565b60006107b360086111e3565b905090565b6107c96107c3611122565b826111f1565b610808576040517f08c379a00000000000000000000000000000000000000000000000000000000081526004016107ff90612903565b60405180910390fd5b6108138383836112cf565b505050565b610820611122565b73ffffffffffffffffffffffffffffffffffffffff1661083e610cae565b73ffffffffffffffffffffffffffffffffffffffff1614610894576040517f08c379a000000000000000000000000000000000000000000000000000000000815260040161088b9061296f565b60405180910390fd5b80600960146101000a81548160ff02191690831515021790555050565b6108b9611122565b73ffffffffffffffffffffffffffffffffffffffff166108d7610cae565b73ffffffffffffffffffffffffffffffffffffffff161461092d576040517f08c379a00000000000000000000000000000000000000000000000000000000081526004016109249061296f565b60405180910390fd5b600960149054906101000a900460ff1661097c576040517f08c379a0000000000000000000000000000000000000000000000000000000008152600401610973906129db565b60405180910390fd5b600061098860086111e3565b90506109946008611535565b61099e828261154b565b5050565b6109bd83838360405180602001604052806000815250610d93565b505050565b6000806002600084815260200190815260200160002060009054906101000a900473ffffffffffffffffffffffffffffffffffffffff169050600073ffffffffffffffffffffffffffffffffffffffff168173ffffffffffffffffffffffffffffffffffffffff1603610a6a576040517f08c379a0000000000000000000000000000000000000000000000000000000008152600401610a6190612a6d565b60405180910390fd5b80915050919050565b60008073ffffffffffffffffffffffffffffffffffffffff168273ffffffffffffffffffffffffffffffffffffffff1603610ae3576040517f08c379a0000000000000000000000000000000000000000000000000000000008152600401610ada90612aff565b60405180910390fd5b600360008373ffffffffffffffffffffffffffffffffffffffff1673ffffffffffffffffffffffffffffffffffffffff168152602001908152602001600020549050919050565b610b32611122565b73ffffffffffffffffffffffffffffffffffffffff16610b50610cae565b73ffffffffffffffffffffffffffffffffffffffff1614610ba6576040517f08c379a0000000000000000000000000000000000000000000000000000000008152600401610b9d9061296f565b60405180910390fd5b610bb06000611569565b565b610bba611122565b73ffffffffffffffffffffffffffffffffffffffff16610bd8610cae565b73ffffffffffffffffffffffffffffffffffffffff1614610c2e576040517f08c379a0000000000000000000000000000000000000000000000000000000008152600401610c259061296f565b60405180910390fd5b60005b8151811015610c8457610c67828281518110610c5057610c4f612b1f565b5b6020026020010151610c6260086111e3565b61162f565b610c716008611535565b8080610c7c90612b7d565b915050610c31565b5050565b600960009054906101000a900473ffffffffffffffffffffffffffffffffffffffff1681565b6000600760009054906101000a900473ffffffffffffffffffffffffffffffffffffffff16905090565b606060018054610ce7906126aa565b80601f0160208091040260200160405190810160405280929190818152602001828054610d13906126aa565b8015610d605780601f10610d3557610100808354040283529160200191610d60565b820191906000526020600020905b815481529060010190602001808311610d4357829003601f168201915b5050505050905090565b610d7c610d75611122565b8383611808565b5050565b600960149054906101000a900460ff1681565b610da4610d9e611122565b836111f1565b610de3576040517f08c379a0000000000000000000000000000000000000000000000000000000008152600401610dda90612903565b60405180910390fd5b610def84848484611974565b50505050565b6060610e00826110b6565b610e3f576040517f08c379a0000000000000000000000000000000000000000000000000000000008152600401610e3690612c11565b60405180910390fd5b6000610e4a836119d0565b9050610e768182604051602001610e62929190612de9565b604051602081830303815290604052610e7e565b915050919050565b6060610e8982610eaf565b604051602001610e999190612e85565b6040516020818303038152906040529050919050565b6060610eba82611b30565b9050919050565b6000600560008473ffffffffffffffffffffffffffffffffffffffff1673ffffffffffffffffffffffffffffffffffffffff16815260200190815260200160002060008373ffffffffffffffffffffffffffffffffffffffff1673ffffffffffffffffffffffffffffffffffffffff16815260200190815260200160002060009054906101000a900460ff16905092915050565b610f5d611122565b73ffffffffffffffffffffffffffffffffffffffff16610f7b610cae565b73ffffffffffffffffffffffffffffffffffffffff1614610fd1576040517f08c379a0000000000000000000000000000000000000000000000000000000008152600401610fc89061296f565b60405180910390fd5b600073ffffffffffffffffffffffffffffffffffffffff168173ffffffffffffffffffffffffffffffffffffffff1603611040576040517f08c379a000000000000000000000000000000000000000000000000000000000815260040161103790612f19565b60405180910390fd5b61104981611569565b50565b60007f01ffc9a7000000000000000000000000000000000000000000000000000000007bffffffffffffffffffffffffffffffffffffffffffffffffffffffff1916827bffffffffffffffffffffffffffffffffffffffffffffffffffffffff1916149050919050565b60008073ffffffffffffffffffffffffffffffffffffffff166002600084815260200190815260200160002060009054906101000a900473ffffffffffffffffffffffffffffffffffffffff1673ffffffffffffffffffffffffffffffffffffffff1614159050919050565b600033905090565b816004600083815260200190815260200160002060006101000a81548173ffffffffffffffffffffffffffffffffffffffff021916908373ffffffffffffffffffffffffffffffffffffffff160217905550808273ffffffffffffffffffffffffffffffffffffffff1661119d836109c2565b73ffffffffffffffffffffffffffffffffffffffff167f8c5be1e5ebec7d5bd14f71427d1e84f3dd0314c0f7b2291e5b200ac8c7c3b92560405160405180910390a45050565b600081600001549050919050565b60006111fc826110b6565b61123b576040517f08c379a000000000000000000000000000000000000000000000000000000000815260040161123290612fab565b60405180910390fd5b6000611246836109c2565b90508073ffffffffffffffffffffffffffffffffffffffff168473ffffffffffffffffffffffffffffffffffffffff16148061128857506112878185610ec1565b5b806112c657508373ffffffffffffffffffffffffffffffffffffffff166112ae8461060b565b73ffffffffffffffffffffffffffffffffffffffff16145b91505092915050565b8273ffffffffffffffffffffffffffffffffffffffff166112ef826109c2565b73ffffffffffffffffffffffffffffffffffffffff1614611345576040517f08c379a000000000000000000000000000000000000000000000000000000000815260040161133c9061303d565b60405180910390fd5b600073ffffffffffffffffffffffffffffffffffffffff168273ffffffffffffffffffffffffffffffffffffffff16036113b4576040517f08c379a00000000000000000000000000000000000000000000000000000000081526004016113ab906130cf565b60405180910390fd5b6113bf838383611ca8565b6113ca60008261112a565b6001600360008573ffffffffffffffffffffffffffffffffffffffff1673ffffffffffffffffffffffffffffffffffffffff168152602001908152602001600020600082825461141a91906130ef565b925050819055506001600360008473ffffffffffffffffffffffffffffffffffffffff1673ffffffffffffffffffffffffffffffffffffffff16815260200190815260200160002060008282546114719190613123565b92505081905550816002600083815260200190815260200160002060006101000a81548173ffffffffffffffffffffffffffffffffffffffff021916908373ffffffffffffffffffffffffffffffffffffffff160217905550808273ffffffffffffffffffffffffffffffffffffffff168473ffffffffffffffffffffffffffffffffffffffff167fddf252ad1be2c89b69c2b068fc378daa952ba7f163c4a11628f55a4df523b3ef60405160405180910390a4611530838383611cad565b505050565b6001816000016000828254019250508190555050565b611565828260405180602001604052806000815250611cb2565b5050565b6000600760009054906101000a900473ffffffffffffffffffffffffffffffffffffffff16905081600760006101000a81548173ffffffffffffffffffffffffffffffffffffffff021916908373ffffffffffffffffffffffffffffffffffffffff1602179055508173ffffffffffffffffffffffffffffffffffffffff168173ffffffffffffffffffffffffffffffffffffffff167f8be0079c531659141344cd1fd0a4f28419497f9722a3daafe3b4186f6b6457e060405160405180910390a35050565b600073ffffffffffffffffffffffffffffffffffffffff168273ffffffffffffffffffffffffffffffffffffffff160361169e576040517f08c379a0000000000000000000000000000000000000000000000000000000008152600401611695906131c5565b60405180910390fd5b6116a7816110b6565b156116e7576040517f08c379a00000000000000000000000000000000000000000000000000000000081526004016116de90613231565b60405180910390fd5b6116f360008383611ca8565b6001600360008473ffffffffffffffffffffffffffffffffffffffff1673ffffffffffffffffffffffffffffffffffffffff16815260200190815260200160002060008282546117439190613123565b92505081905550816002600083815260200190815260200160002060006101000a81548173ffffffffffffffffffffffffffffffffffffffff021916908373ffffffffffffffffffffffffffffffffffffffff160217905550808273ffffffffffffffffffffffffffffffffffffffff16600073ffffffffffffffffffffffffffffffffffffffff167fddf252ad1be2c89b69c2b068fc378daa952ba7f163c4a11628f55a4df523b3ef60405160405180910390a461180460008383611cad565b5050565b8173ffffffffffffffffffffffffffffffffffffffff168373ffffffffffffffffffffffffffffffffffffffff1603611876576040517f08c379a000000000000000000000000000000000000000000000000000000000815260040161186d9061329d565b60405180910390fd5b80600560008573ffffffffffffffffffffffffffffffffffffffff1673ffffffffffffffffffffffffffffffffffffffff16815260200190815260200160002060008473ffffffffffffffffffffffffffffffffffffffff1673ffffffffffffffffffffffffffffffffffffffff16815260200190815260200160002060006101000a81548160ff0219169083151502179055508173ffffffffffffffffffffffffffffffffffffffff168373ffffffffffffffffffffffffffffffffffffffff167f17307eab39ab6107e8899845ad3d59bd9653f200f220920489ca2b5937696c31836040516119679190611f6b565b60405180910390a3505050565b61197f8484846112cf565b61198b84848484611d0d565b6119ca576040517f08c379a00000000000000000000000000000000000000000000000000000000081526004016119c19061332f565b60405180910390fd5b50505050565b606060008203611a17576040518060400160405280600181526020017f30000000000000000000000000000000000000000000000000000000000000008152509050611b2b565b600082905060005b60008214611a49578080611a3290612b7d565b915050600a82611a42919061337e565b9150611a1f565b60008167ffffffffffffffff811115611a6557611a64612274565b5b6040519080825280601f01601f191660200182016040528015611a975781602001600182028036833780820191505090505b5090505b60008514611b2457600182611ab091906130ef565b9150600a85611abf91906133af565b6030611acb9190613123565b60f81b818381518110611ae157611ae0612b1f565b5b60200101907effffffffffffffffffffffffffffffffffffffffffffffffffffffffffffff1916908160001a905350600a85611b1d919061337e565b9450611a9b565b8093505050505b919050565b60606000825103611b5257604051806020016040528060008152509050611ca3565b600060405180606001604052806040815260200161351e6040913990506000600360028551611b819190613123565b611b8b919061337e565b6004611b9791906133e0565b90506000602082611ba89190613123565b67ffffffffffffffff811115611bc157611bc0612274565b5b6040519080825280601f01601f191660200182016040528015611bf35781602001600182028036833780820191505090505b509050818152600183018586518101602084015b81831015611c62576003830192508251603f8160121c168501518253600182019150603f81600c1c168501518253600182019150603f8160061c168501518253600182019150603f8116850151825360018201915050611c07565b600389510660018114611c7c5760028114611c8c57611c97565b613d3d60f01b6002830352611c97565b603d60f81b60018303525b50505050508093505050505b919050565b505050565b505050565b611cbc838361162f565b611cc96000848484611d0d565b611d08576040517f08c379a0000000000000000000000000000000000000000000000000000000008152600401611cff9061332f565b60405180910390fd5b505050565b6000611d2e8473ffffffffffffffffffffffffffffffffffffffff16611e94565b15611e87578373ffffffffffffffffffffffffffffffffffffffff1663150b7a02611d57611122565b8786866040518563ffffffff1660e01b8152600401611d79949392919061348f565b6020604051808303816000875af1925050508015611db557506040513d601f19601f82011682018060405250810190611db291906134f0565b60015b611e37573d8060008114611de5576040519150601f19603f3d011682016040523d82523d6000602084013e611dea565b606091505b506000815103611e2f576040517f08c379a0000000000000000000000000000000000000000000000000000000008152600401611e269061332f565b60405180910390fd5b805181602001fd5b63150b7a0260e01b7bffffffffffffffffffffffffffffffffffffffffffffffffffffffff1916817bffffffffffffffffffffffffffffffffffffffffffffffffffffffff191614915050611e8c565b600190505b949350505050565b6000808273ffffffffffffffffffffffffffffffffffffffff163b119050919050565b6000604051905090565b600080fd5b600080fd5b60007fffffffff0000000000000000000000000000000000000000000000000000000082169050919050565b611f0081611ecb565b8114611f0b57600080fd5b50565b600081359050611f1d81611ef7565b92915050565b600060208284031215611f3957611f38611ec1565b5b6000611f4784828501611f0e565b91505092915050565b60008115159050919050565b611f6581611f50565b82525050565b6000602082019050611f806000830184611f5c565b92915050565b600081519050919050565b600082825260208201905092915050565b60005b83811015611fc0578082015181840152602081019050611fa5565b83811115611fcf576000848401525b50505050565b6000601f19601f8301169050919050565b6000611ff182611f86565b611ffb8185611f91565b935061200b818560208601611fa2565b61201481611fd5565b840191505092915050565b600060208201905081810360008301526120398184611fe6565b905092915050565b6000819050919050565b61205481612041565b811461205f57600080fd5b50565b6000813590506120718161204b565b92915050565b60006020828403121561208d5761208c611ec1565b5b600061209b84828501612062565b91505092915050565b600073ffffffffffffffffffffffffffffffffffffffff82169050919050565b60006120cf826120a4565b9050919050565b6120df816120c4565b82525050565b60006020820190506120fa60008301846120d6565b92915050565b612109816120c4565b811461211457600080fd5b50565b60008135905061212681612100565b92915050565b6000806040838503121561214357612142611ec1565b5b600061215185828601612117565b925050602061216285828601612062565b9150509250929050565b61217581612041565b82525050565b6000602082019050612190600083018461216c565b92915050565b6000806000606084860312156121af576121ae611ec1565b5b60006121bd86828701612117565b93505060206121ce86828701612117565b92505060406121df86828701612062565b9150509250925092565b6121f281611f50565b81146121fd57600080fd5b50565b60008135905061220f816121e9565b92915050565b60006020828403121561222b5761222a611ec1565b5b600061223984828501612200565b91505092915050565b60006020828403121561225857612257611ec1565b5b600061226684828501612117565b91505092915050565b600080fd5b7f4e487b7100000000000000000000000000000000000000000000000000000000600052604160045260246000fd5b6122ac82611fd5565b810181811067ffffffffffffffff821117156122cb576122ca612274565b5b80604052505050565b60006122de611eb7565b90506122ea82826122a3565b919050565b600067ffffffffffffffff82111561230a57612309612274565b5b602082029050602081019050919050565b600080fd5b600061233361232e846122ef565b6122d4565b905080838252602082019050602084028301858111156123565761235561231b565b5b835b8181101561237f578061236b8882612117565b845260208401935050602081019050612358565b5050509392505050565b600082601f83011261239e5761239d61226f565b5b81356123ae848260208601612320565b91505092915050565b6000602082840312156123cd576123cc611ec1565b5b600082013567ffffffffffffffff8111156123eb576123ea611ec6565b5b6123f784828501612389565b91505092915050565b6000819050919050565b600061242561242061241b846120a4565b612400565b6120a4565b9050919050565b60006124378261240a565b9050919050565b60006124498261242c565b9050919050565b6124598161243e565b82525050565b60006020820190506124746000830184612450565b92915050565b6000806040838503121561249157612490611ec1565b5b600061249f85828601612117565b92505060206124b085828601612200565b9150509250929050565b600080fd5b600067ffffffffffffffff8211156124da576124d9612274565b5b6124e382611fd5565b9050602081019050919050565b82818337600083830152505050565b600061251261250d846124bf565b6122d4565b90508281526020810184848401111561252e5761252d6124ba565b5b6125398482856124f0565b509392505050565b600082601f8301126125565761255561226f565b5b81356125668482602086016124ff565b91505092915050565b6000806000806080858703121561258957612588611ec1565b5b600061259787828801612117565b94505060206125a887828801612117565b93505060406125b987828801612062565b925050606085013567ffffffffffffffff8111156125da576125d9611ec6565b5b6125e687828801612541565b91505092959194509250565b60006020828403121561260857612607611ec1565b5b600082013567ffffffffffffffff81111561262657612625611ec6565b5b61263284828501612541565b91505092915050565b6000806040838503121561265257612651611ec1565b5b600061266085828601612117565b925050602061267185828601612117565b9150509250929050565b7f4e487b7100000000000000000000000000000000000000000000000000000000600052602260045260246000fd5b600060028204905060018216806126c257607f821691505b6020821081036126d5576126d461267b565b5b50919050565b7f4552433732313a20617070726f76656420717565727920666f72206e6f6e657860008201527f697374656e7420746f6b656e0000000000000000000000000000000000000000602082015250565b6000612737602c83611f91565b9150612742826126db565b604082019050919050565b600060208201905081810360008301526127668161272a565b9050919050565b7f4552433732313a20617070726f76616c20746f2063757272656e74206f776e6560008201527f7200000000000000000000000000000000000000000000000000000000000000602082015250565b60006127c9602183611f91565b91506127d48261276d565b604082019050919050565b600060208201905081810360008301526127f8816127bc565b9050919050565b7f4552433732313a20617070726f76652063616c6c6572206973206e6f74206f7760008201527f6e6572206e6f7220617070726f76656420666f7220616c6c0000000000000000602082015250565b600061285b603883611f91565b9150612866826127ff565b604082019050919050565b6000602082019050818103600083015261288a8161284e565b9050919050565b7f4552433732313a207472616e736665722063616c6c6572206973206e6f74206f60008201527f776e6572206e6f7220617070726f766564000000000000000000000000000000602082015250565b60006128ed603183611f91565b91506128f882612891565b604082019050919050565b6000602082019050818103600083015261291c816128e0565b9050919050565b7f4f776e61626c653a2063616c6c6572206973206e6f7420746865206f776e6572600082015250565b6000612959602083611f91565b915061296482612923565b602082019050919050565b600060208201905081810360008301526129888161294c565b9050919050565b7f4d696e74206e6f74206f70656e00000000000000000000000000000000000000600082015250565b60006129c5600d83611f91565b91506129d08261298f565b602082019050919050565b600060208201905081810360008301526129f4816129b8565b9050919050565b7f4552433732313a206f776e657220717565727920666f72206e6f6e657869737460008201527f656e7420746f6b656e0000000000000000000000000000000000000000000000602082015250565b6000612a57602983611f91565b9150612a62826129fb565b604082019050919050565b60006020820190508181036000830152612a8681612a4a565b9050919050565b7f4552433732313a2062616c616e636520717565727920666f7220746865207a6560008201527f726f206164647265737300000000000000000000000000000000000000000000602082015250565b6000612ae9602a83611f91565b9150612af482612a8d565b604082019050919050565b60006020820190508181036000830152612b1881612adc565b9050919050565b7f4e487b7100000000000000000000000000000000000000000000000000000000600052603260045260246000fd5b7f4e487b7100000000000000000000000000000000000000000000000000000000600052601160045260246000fd5b6000612b8882612041565b91507fffffffffffffffffffffffffffffffffffffffffffffffffffffffffffffffff8203612bba57612bb9612b4e565b5b600182019050919050565b7f4e6f20746f6b656e206578697374730000000000000000000000000000000000600082015250565b6000612bfb600f83611f91565b9150612c0682612bc5565b602082019050919050565b60006020820190508181036000830152612c2a81612bee565b9050919050565b600081905092915050565b7f7b226e616d65223a20224c69676874204f726220230000000000000000000000600082015250565b6000612c72601583612c31565b9150612c7d82612c3c565b601582019050919050565b6000612c9382611f86565b612c9d8185612c31565b9350612cad818560208601611fa2565b80840191505092915050565b7f222c20226465736372697074696f6e223a20224c69676874204f72622044657360008201527f6372697074696f6e202300000000000000000000000000000000000000000000602082015250565b6000612d15602a83612c31565b9150612d2082612cb9565b602a82019050919050565b7f222c2022696d616765223a2022646174613a696d6167652f7376672b786d6c3b60008201527f6261736536342c00000000000000000000000000000000000000000000000000602082015250565b6000612d87602783612c31565b9150612d9282612d2b565b602782019050919050565b7f227d000000000000000000000000000000000000000000000000000000000000600082015250565b6000612dd3600283612c31565b9150612dde82612d9d565b600282019050919050565b6000612df482612c65565b9150612e008285612c88565b9150612e0b82612d08565b9150612e178284612c88565b9150612e2282612d7a565b9150612e2d82612dc6565b91508190509392505050565b7f646174613a6170706c69636174696f6e2f6a736f6e3b6261736536342c000000600082015250565b6000612e6f601d83612c31565b9150612e7a82612e39565b601d82019050919050565b6000612e9082612e62565b9150612e9c8284612c88565b915081905092915050565b7f4f776e61626c653a206e6577206f776e657220697320746865207a65726f206160008201527f6464726573730000000000000000000000000000000000000000000000000000602082015250565b6000612f03602683611f91565b9150612f0e82612ea7565b604082019050919050565b60006020820190508181036000830152612f3281612ef6565b9050919050565b7f4552433732313a206f70657261746f7220717565727920666f72206e6f6e657860008201527f697374656e7420746f6b656e0000000000000000000000000000000000000000602082015250565b6000612f95602c83611f91565b9150612fa082612f39565b604082019050919050565b60006020820190508181036000830152612fc481612f88565b9050919050565b7f4552433732313a207472616e736665722066726f6d20696e636f72726563742060008201527f6f776e6572000000000000000000000000000000000000000000000000000000602082015250565b6000613027602583611f91565b915061303282612fcb565b604082019050919050565b600060208201905081810360008301526130568161301a565b9050919050565b7f4552433732313a207472616e7366657220746f20746865207a65726f2061646460008201527f7265737300000000000000000000000000000000000000000000000000000000602082015250565b60006130b9602483611f91565b91506130c48261305d565b604082019050919050565b600060208201905081810360008301526130e8816130ac565b9050919050565b60006130fa82612041565b915061310583612041565b92508282101561311857613117612b4e565b5b828203905092915050565b600061312e82612041565b915061313983612041565b9250827fffffffffffffffffffffffffffffffffffffffffffffffffffffffffffffffff0382111561316e5761316d612b4e565b5b828201905092915050565b7f4552433732313a206d696e7420746f20746865207a65726f2061646472657373600082015250565b60006131af602083611f91565b91506131ba82613179565b602082019050919050565b600060208201905081810360008301526131de816131a2565b9050919050565b7f4552433732313a20746f6b656e20616c7265616479206d696e74656400000000600082015250565b600061321b601c83611f91565b9150613226826131e5565b602082019050919050565b6000602082019050818103600083015261324a8161320e565b9050919050565b7f4552433732313a20617070726f766520746f2063616c6c657200000000000000600082015250565b6000613287601983611f91565b915061329282613251565b602082019050919050565b600060208201905081810360008301526132b68161327a565b9050919050565b7f4552433732313a207472616e7366657220746f206e6f6e20455243373231526560008201527f63656976657220696d706c656d656e7465720000000000000000000000000000602082015250565b6000613319603283611f91565b9150613324826132bd565b604082019050919050565b600060208201905081810360008301526133488161330c565b9050919050565b7f4e487b7100000000000000000000000000000000000000000000000000000000600052601260045260246000fd5b600061338982612041565b915061339483612041565b9250826133a4576133a361334f565b5b828204905092915050565b60006133ba82612041565b91506133c583612041565b9250826133d5576133d461334f565b5b828206905092915050565b60006133eb82612041565b91506133f683612041565b9250817fffffffffffffffffffffffffffffffffffffffffffffffffffffffffffffffff048311821515161561342f5761342e612b4e565b5b828202905092915050565b600081519050919050565b600082825260208201905092915050565b60006134618261343a565b61346b8185613445565b935061347b818560208601611fa2565b61348481611fd5565b840191505092915050565b60006080820190506134a460008301876120d6565b6134b160208301866120d6565b6134be604083018561216c565b81810360608301526134d08184613456565b905095945050505050565b6000815190506134ea81611ef7565b92915050565b60006020828403121561350657613505611ec1565b5b6000613514848285016134db565b9150509291505056fe4142434445464748494a4b4c4d4e4f505152535455565758595a6162636465666768696a6b6c6d6e6f707172737475767778797a303132333435363738392b2fa2646970667358221220d18b76967510cb45bae67609ca0f85eb6192a4c1949c9463d3ee1af32593fb6864736f6c634300080d0033",
  "devdoc": {
    "kind": "dev",
    "methods": {
      "approve(address,uint256)": {
        "details": "See {IERC721-approve}."
      },
      "balanceOf(address)": {
        "details": "See {IERC721-balanceOf}."
      },
      "getApproved(uint256)": {
        "details": "See {IERC721-getApproved}."
      },
      "isApprovedForAll(address,address)": {
        "details": "See {IERC721-isApprovedForAll}."
      },
      "name()": {
        "details": "See {IERC721Metadata-name}."
      },
      "owner()": {
        "details": "Returns the address of the current owner."
      },
      "ownerOf(uint256)": {
        "details": "See {IERC721-ownerOf}."
      },
      "renounceOwnership()": {
        "details": "Leaves the contract without owner. It will not be possible to call `onlyOwner` functions anymore. Can only be called by the current owner. NOTE: Renouncing ownership will leave the contract without an owner, thereby removing any functionality that is only available to the owner."
      },
      "safeTransferFrom(address,address,uint256)": {
        "details": "See {IERC721-safeTransferFrom}."
      },
      "safeTransferFrom(address,address,uint256,bytes)": {
        "details": "See {IERC721-safeTransferFrom}."
      },
      "setApprovalForAll(address,bool)": {
        "details": "See {IERC721-setApprovalForAll}."
      },
      "supportsInterface(bytes4)": {
        "details": "See {IERC165-supportsInterface}."
      },
      "symbol()": {
        "details": "See {IERC721Metadata-symbol}."
      },
      "tokenURI(uint256)": {
        "details": "See {IERC721Metadata-tokenURI}."
      },
      "transferFrom(address,address,uint256)": {
        "details": "See {IERC721-transferFrom}."
      },
      "transferOwnership(address)": {
        "details": "Transfers ownership of the contract to a new account (`newOwner`). Can only be called by the current owner."
      }
    },
    "version": 1
  },
  "numDeployments": 9,
  "solcInputHash": "ab2c537963230b7d922ec8679a6c4023",
  "storageLayout": {
    "storage": [
      {
        "astId": 170,
        "contract": "contracts/LightOrb/src/LightOrb.sol:LightOrb",
        "label": "_name",
        "offset": 0,
        "slot": "0",
        "type": "t_string_storage"
      },
      {
        "astId": 172,
        "contract": "contracts/LightOrb/src/LightOrb.sol:LightOrb",
        "label": "_symbol",
        "offset": 0,
        "slot": "1",
        "type": "t_string_storage"
      },
      {
        "astId": 176,
        "contract": "contracts/LightOrb/src/LightOrb.sol:LightOrb",
        "label": "_owners",
        "offset": 0,
        "slot": "2",
        "type": "t_mapping(t_uint256,t_address)"
      },
      {
        "astId": 180,
        "contract": "contracts/LightOrb/src/LightOrb.sol:LightOrb",
        "label": "_balances",
        "offset": 0,
        "slot": "3",
        "type": "t_mapping(t_address,t_uint256)"
      },
      {
        "astId": 184,
        "contract": "contracts/LightOrb/src/LightOrb.sol:LightOrb",
        "label": "_tokenApprovals",
        "offset": 0,
        "slot": "4",
        "type": "t_mapping(t_uint256,t_address)"
      },
      {
        "astId": 190,
        "contract": "contracts/LightOrb/src/LightOrb.sol:LightOrb",
        "label": "_operatorApprovals",
        "offset": 0,
        "slot": "5",
        "type": "t_mapping(t_address,t_mapping(t_address,t_bool))"
      },
      {
        "astId": 115,
        "contract": "contracts/LightOrb/src/LightOrb.sol:LightOrb",
        "label": "_status",
        "offset": 0,
        "slot": "6",
        "type": "t_uint256"
      },
      {
        "astId": 7,
        "contract": "contracts/LightOrb/src/LightOrb.sol:LightOrb",
        "label": "_owner",
        "offset": 0,
        "slot": "7",
        "type": "t_address"
      },
      {
        "astId": 1943,
        "contract": "contracts/LightOrb/src/LightOrb.sol:LightOrb",
        "label": "supplyCounter",
        "offset": 0,
        "slot": "8",
        "type": "t_struct(Counter)1494_storage"
      },
      {
        "astId": 1946,
        "contract": "contracts/LightOrb/src/LightOrb.sol:LightOrb",
        "label": "renderer",
        "offset": 0,
        "slot": "9",
        "type": "t_contract(Renderer)2306"
      },
      {
        "astId": 1949,
        "contract": "contracts/LightOrb/src/LightOrb.sol:LightOrb",
        "label": "mintIsOpen",
        "offset": 20,
        "slot": "9",
        "type": "t_bool"
      }
    ],
    "types": {
      "t_address": {
        "encoding": "inplace",
        "label": "address",
        "numberOfBytes": "20"
      },
      "t_bool": {
        "encoding": "inplace",
        "label": "bool",
        "numberOfBytes": "1"
      },
      "t_contract(Renderer)2306": {
        "encoding": "inplace",
        "label": "contract Renderer",
        "numberOfBytes": "20"
      },
      "t_mapping(t_address,t_bool)": {
        "encoding": "mapping",
        "key": "t_address",
        "label": "mapping(address => bool)",
        "numberOfBytes": "32",
        "value": "t_bool"
      },
      "t_mapping(t_address,t_mapping(t_address,t_bool))": {
        "encoding": "mapping",
        "key": "t_address",
        "label": "mapping(address => mapping(address => bool))",
        "numberOfBytes": "32",
        "value": "t_mapping(t_address,t_bool)"
      },
      "t_mapping(t_address,t_uint256)": {
        "encoding": "mapping",
        "key": "t_address",
        "label": "mapping(address => uint256)",
        "numberOfBytes": "32",
        "value": "t_uint256"
      },
      "t_mapping(t_uint256,t_address)": {
        "encoding": "mapping",
        "key": "t_uint256",
        "label": "mapping(uint256 => address)",
        "numberOfBytes": "32",
        "value": "t_address"
      },
      "t_string_storage": {
        "encoding": "bytes",
        "label": "string",
        "numberOfBytes": "32"
      },
      "t_struct(Counter)1494_storage": {
        "encoding": "inplace",
        "label": "struct Counters.Counter",
        "members": [
          {
            "astId": 1493,
            "contract": "contracts/LightOrb/src/LightOrb.sol:LightOrb",
            "label": "_value",
            "offset": 0,
            "slot": "0",
            "type": "t_uint256"
          }
        ],
        "numberOfBytes": "32"
      },
      "t_uint256": {
        "encoding": "inplace",
        "label": "uint256",
        "numberOfBytes": "32"
      }
    }
  },
  "transactionHash": "0x50c25a083fdc5541f156deee345fc488eaa2bed9b22a4f4e37304031b6e8a7ed",
  "userdoc": {
    "kind": "user",
    "methods": {},
    "version": 1
  }
}