{
  "abi": [
    {
      "inputs": [],
      "stateMutability": "nonpayable",
      "type": "constructor"
    },
    {
      "anonymous": false,
      "inputs": [
        {
          "indexed": true,
          "internalType": "address",
          "name": "owner",
          "type": "address"
        },
        {
          "indexed": true,
          "internalType": "address",
          "name": "approved",
          "type": "address"
        },
        {
          "indexed": true,
          "internalType": "uint256",
          "name": "tokenId",
          "type": "uint256"
        }
      ],
      "name": "Approval",
      "type": "event"
    },
    {
      "anonymous": false,
      "inputs": [
        {
          "indexed": true,
          "internalType": "address",
          "name": "owner",
          "type": "address"
        },
        {
          "indexed": true,
          "internalType": "address",
          "name": "operator",
          "type": "address"
        },
        {
          "indexed": false,
          "internalType": "bool",
          "name": "approved",
          "type": "bool"
        }
      ],
      "name": "ApprovalForAll",
      "type": "event"
    },
    {
      "anonymous": false,
      "inputs": [
        {
          "indexed": true,
          "internalType": "address",
          "name": "previousOwner",
          "type": "address"
        },
        {
          "indexed": true,
          "internalType": "address",
          "name": "newOwner",
          "type": "address"
        }
      ],
      "name": "OwnershipTransferred",
      "type": "event"
    },
    {
      "anonymous": false,
      "inputs": [
        {
          "indexed": true,
          "internalType": "address",
          "name": "from",
          "type": "address"
        },
        {
          "indexed": true,
          "internalType": "address",
          "name": "to",
          "type": "address"
        },
        {
          "indexed": true,
          "internalType": "uint256",
          "name": "tokenId",
          "type": "uint256"
        }
      ],
      "name": "Transfer",
      "type": "event"
    },
    {
      "inputs": [
        {
          "internalType": "address[]",
          "name": "to",
          "type": "address[]"
        }
      ],
      "name": "airdrop",
      "outputs": [],
      "stateMutability": "nonpayable",
      "type": "function"
    },
    {
      "inputs": [
        {
          "internalType": "address",
          "name": "to",
          "type": "address"
        },
        {
          "internalType": "uint256",
          "name": "tokenId",
          "type": "uint256"
        }
      ],
      "name": "approve",
      "outputs": [],
      "stateMutability": "nonpayable",
      "type": "function"
    },
    {
      "inputs": [
        {
          "internalType": "address",
          "name": "owner",
          "type": "address"
        }
      ],
      "name": "balanceOf",
      "outputs": [
        {
          "internalType": "uint256",
          "name": "",
          "type": "uint256"
        }
      ],
      "stateMutability": "view",
      "type": "function"
    },
    {
      "inputs": [
        {
          "internalType": "bytes",
          "name": "unencoded",
          "type": "bytes"
        }
      ],
      "name": "base64Encode",
      "outputs": [
        {
          "internalType": "string",
          "name": "",
          "type": "string"
        }
      ],
      "stateMutability": "pure",
      "type": "function"
    },
    {
      "inputs": [
        {
          "internalType": "bytes",
          "name": "json",
          "type": "bytes"
        }
      ],
      "name": "encodeMetadataJSON",
      "outputs": [
        {
          "internalType": "string",
          "name": "",
          "type": "string"
        }
      ],
      "stateMutability": "pure",
      "type": "function"
    },
    {
      "inputs": [
        {
          "internalType": "uint256",
          "name": "tokenId",
          "type": "uint256"
        }
      ],
      "name": "getApproved",
      "outputs": [
        {
          "internalType": "address",
          "name": "",
          "type": "address"
        }
      ],
      "stateMutability": "view",
      "type": "function"
    },
    {
      "inputs": [
        {
          "internalType": "address",
          "name": "owner",
          "type": "address"
        },
        {
          "internalType": "address",
          "name": "operator",
          "type": "address"
        }
      ],
      "name": "isApprovedForAll",
      "outputs": [
        {
          "internalType": "bool",
          "name": "",
          "type": "bool"
        }
      ],
      "stateMutability": "view",
      "type": "function"
    },
    {
      "inputs": [],
      "name": "mintIsOpen",
      "outputs": [
        {
          "internalType": "bool",
          "name": "",
          "type": "bool"
        }
      ],
      "stateMutability": "view",
      "type": "function"
    },
    {
      "inputs": [],
      "name": "name",
      "outputs": [
        {
          "internalType": "string",
          "name": "",
          "type": "string"
        }
      ],
      "stateMutability": "view",
      "type": "function"
    },
    {
      "inputs": [],
      "name": "owner",
      "outputs": [
        {
          "internalType": "address",
          "name": "",
          "type": "address"
        }
      ],
      "stateMutability": "view",
      "type": "function"
    },
    {
      "inputs": [
        {
          "internalType": "uint256",
          "name": "tokenId",
          "type": "uint256"
        }
      ],
      "name": "ownerOf",
      "outputs": [
        {
          "internalType": "address",
          "name": "",
          "type": "address"
        }
      ],
      "stateMutability": "view",
      "type": "function"
    },
    {
      "inputs": [
        {
          "internalType": "uint256",
          "name": "tokenId",
          "type": "uint256"
        }
      ],
      "name": "renderSVG",
      "outputs": [
        {
          "internalType": "string",
          "name": "",
          "type": "string"
        }
      ],
      "stateMutability": "view",
      "type": "function"
    },
    {
      "inputs": [],
      "name": "renderer",
      "outputs": [
        {
          "internalType": "contract Renderer",
          "name": "",
          "type": "address"
        }
      ],
      "stateMutability": "view",
      "type": "function"
    },
    {
      "inputs": [],
      "name": "renounceOwnership",
      "outputs": [],
      "stateMutability": "nonpayable",
      "type": "function"
    },
    {
      "inputs": [
        {
          "internalType": "address",
          "name": "to",
          "type": "address"
        }
      ],
      "name": "safeMint",
      "outputs": [],
      "stateMutability": "nonpayable",
      "type": "function"
    },
    {
      "inputs": [
        {
          "internalType": "address",
          "name": "from",
          "type": "address"
        },
        {
          "internalType": "address",
          "name": "to",
          "type": "address"
        },
        {
          "internalType": "uint256",
          "name": "tokenId",
          "type": "uint256"
        }
      ],
      "name": "safeTransferFrom",
      "outputs": [],
      "stateMutability": "nonpayable",
      "type": "function"
    },
    {
      "inputs": [
        {
          "internalType": "address",
          "name": "from",
          "type": "address"
        },
        {
          "internalType": "address",
          "name": "to",
          "type": "address"
        },
        {
          "internalType": "uint256",
          "name": "tokenId",
          "type": "uint256"
        },
        {
          "internalType": "bytes",
          "name": "_data",
          "type": "bytes"
        }
      ],
      "name": "safeTransferFrom",
      "outputs": [],
      "stateMutability": "nonpayable",
      "type": "function"
    },
    {
      "inputs": [
        {
          "internalType": "address",
          "name": "operator",
          "type": "address"
        },
        {
          "internalType": "bool",
          "name": "approved",
          "type": "bool"
        }
      ],
      "name": "setApprovalForAll",
      "outputs": [],
      "stateMutability": "nonpayable",
      "type": "function"
    },
    {
      "inputs": [
        {
          "internalType": "bool",
          "name": "_saleIsActive_",
          "type": "bool"
        }
      ],
      "name": "setMintIsOpen",
      "outputs": [],
      "stateMutability": "nonpayable",
      "type": "function"
    },
    {
      "inputs": [
        {
          "internalType": "bytes4",
          "name": "interfaceId",
          "type": "bytes4"
        }
      ],
      "name": "supportsInterface",
      "outputs": [
        {
          "internalType": "bool",
          "name": "",
          "type": "bool"
        }
      ],
      "stateMutability": "view",
      "type": "function"
    },
    {
      "inputs": [],
      "name": "symbol",
      "outputs": [
        {
          "internalType": "string",
          "name": "",
          "type": "string"
        }
      ],
      "stateMutability": "view",
      "type": "function"
    },
    {
      "inputs": [
        {
          "internalType": "uint256",
          "name": "tokenId",
          "type": "uint256"
        }
      ],
      "name": "tokenURI",
      "outputs": [
        {
          "internalType": "string",
          "name": "",
          "type": "string"
        }
      ],
      "stateMutability": "view",
      "type": "function"
    },
    {
      "inputs": [],
      "name": "totalSupply",
      "outputs": [
        {
          "internalType": "uint256",
          "name": "",
          "type": "uint256"
        }
      ],
      "stateMutability": "view",
      "type": "function"
    },
    {
      "inputs": [
        {
          "internalType": "address",
          "name": "from",
          "type": "address"
        },
        {
          "internalType": "address",
          "name": "to",
          "type": "address"
        },
        {
          "internalType": "uint256",
          "name": "tokenId",
          "type": "uint256"
        }
      ],
      "name": "transferFrom",
      "outputs": [],
      "stateMutability": "nonpayable",
      "type": "function"
    },
    {
      "inputs": [
        {
          "internalType": "address",
          "name": "newOwner",
          "type": "address"
        }
      ],
      "name": "transferOwnership",
      "outputs": [],
      "stateMutability": "nonpayable",
      "type": "function"
    }
  ],
  "address": "0x15477F1885723bAF05ab2De5717cE287A56f5B5f",
  "args": [],
  "bytecode": "0x60806040526000600960146101000a81548160ff0219169083151502179055503480156200002c57600080fd5b506040518060400160405280600a81526020017f4c69676874204f726273000000000000000000000000000000000000000000008152506040518060400160405280600481526020017f4c4f5242000000000000000000000000000000000000000000000000000000008152508160009080519060200190620000b1929190620001c9565b508060019080519060200190620000ca929190620001c9565b5050506001600681905550620000f5620000e9620000fb60201b60201c565b6200010360201b60201c565b620002dd565b600033905090565b6000600760009054906101000a900473ffffffffffffffffffffffffffffffffffffffff16905081600760006101000a81548173ffffffffffffffffffffffffffffffffffffffff021916908373ffffffffffffffffffffffffffffffffffffffff1602179055508173ffffffffffffffffffffffffffffffffffffffff168173ffffffffffffffffffffffffffffffffffffffff167f8be0079c531659141344cd1fd0a4f28419497f9722a3daafe3b4186f6b6457e060405160405180910390a35050565b828054620001d790620002a8565b90600052602060002090601f016020900481019282620001fb576000855562000247565b82601f106200021657805160ff191683800117855562000247565b8280016001018555821562000247579182015b828111156200024657825182559160200191906001019062000229565b5b5090506200025691906200025a565b5090565b5b80821115620002755760008160009055506001016200025b565b5090565b7f4e487b7100000000000000000000000000000000000000000000000000000000600052602260045260246000fd5b60006002820490506001821680620002c157607f821691505b602082108103620002d757620002d662000279565b5b50919050565b61379f80620002ed6000396000f3fe608060405234801561001057600080fd5b50600436106101735760003560e01c8063729ad39e116100de578063b88d4fde11610097578063d12a4c9811610071578063d12a4c9814610436578063d5fb1b1914610466578063e985e9c514610496578063f2fde38b146104c657610173565b8063b88d4fde146103ba578063c87b56dd146103d6578063d01fde8c1461040657610173565b8063729ad39e1461030a5780638ada6b0f146103265780638da5cb5b1461034457806395d89b4114610362578063a22cb46514610380578063aa1152ab1461039c57610173565b8063297e1a1111610130578063297e1a111461024c57806340d097c31461026857806342842e0e146102845780636352211e146102a057806370a08231146102d0578063715018a61461030057610173565b806301ffc9a71461017857806306fdde03146101a8578063081812fc146101c6578063095ea7b3146101f657806318160ddd1461021257806323b872dd14610230575b600080fd5b610192600480360381019061018d9190612038565b6104e2565b60405161019f9190612080565b60405180910390f35b6101b06105c4565b6040516101bd9190612134565b60405180910390f35b6101e060048036038101906101db919061218c565b610656565b6040516101ed91906121fa565b60405180910390f35b610210600480360381019061020b9190612241565b6106db565b005b61021a6107f2565b6040516102279190612290565b60405180910390f35b61024a600480360381019061024591906122ab565b610803565b005b6102666004803603810190610261919061232a565b610863565b005b610282600480360381019061027d9190612357565b6108fc565b005b61029e600480360381019061029991906122ab565b6109ed565b005b6102ba60048036038101906102b5919061218c565b610a0d565b6040516102c791906121fa565b60405180910390f35b6102ea60048036038101906102e59190612357565b610abe565b6040516102f79190612290565b60405180910390f35b610308610b75565b005b610324600480360381019061031f91906124cc565b610bfd565b005b61032e610cd3565b60405161033b9190612574565b60405180910390f35b61034c610cf9565b60405161035991906121fa565b60405180910390f35b61036a610d23565b6040516103779190612134565b60405180910390f35b61039a6004803603810190610395919061258f565b610db5565b005b6103a4610dcb565b6040516103b19190612080565b60405180910390f35b6103d460048036038101906103cf9190612684565b610dde565b005b6103f060048036038101906103eb919061218c565b610e40565b6040516103fd9190612134565b60405180910390f35b610420600480360381019061041b9190612707565b610ee1565b60405161042d9190612134565b60405180910390f35b610450600480360381019061044b919061218c565b610f12565b60405161045d9190612134565b60405180910390f35b610480600480360381019061047b9190612707565b610fc4565b60405161048d9190612134565b60405180910390f35b6104b060048036038101906104ab9190612750565b610fd6565b6040516104bd9190612080565b60405180910390f35b6104e060048036038101906104db9190612357565b61106a565b005b60007f80ac58cd000000000000000000000000000000000000000000000000000000007bffffffffffffffffffffffffffffffffffffffffffffffffffffffff1916827bffffffffffffffffffffffffffffffffffffffffffffffffffffffff191614806105ad57507f5b5e139f000000000000000000000000000000000000000000000000000000007bffffffffffffffffffffffffffffffffffffffffffffffffffffffff1916827bffffffffffffffffffffffffffffffffffffffffffffffffffffffff1916145b806105bd57506105bc82611161565b5b9050919050565b6060600080546105d3906127bf565b80601f01602080910402602001604051908101604052809291908181526020018280546105ff906127bf565b801561064c5780601f106106215761010080835404028352916020019161064c565b820191906000526020600020905b81548152906001019060200180831161062f57829003601f168201915b5050505050905090565b6000610661826111cb565b6106a0576040517f08c379a000000000000000000000000000000000000000000000000000000000815260040161069790612862565b60405180910390fd5b6004600083815260200190815260200160002060009054906101000a900473ffffffffffffffffffffffffffffffffffffffff169050919050565b60006106e682610a0d565b90508073ffffffffffffffffffffffffffffffffffffffff168373ffffffffffffffffffffffffffffffffffffffff1603610756576040517f08c379a000000000000000000000000000000000000000000000000000000000815260040161074d906128f4565b60405180910390fd5b8073ffffffffffffffffffffffffffffffffffffffff16610775611237565b73ffffffffffffffffffffffffffffffffffffffff1614806107a457506107a38161079e611237565b610fd6565b5b6107e3576040517f08c379a00000000000000000000000000000000000000000000000000000000081526004016107da90612986565b60405180910390fd5b6107ed838361123f565b505050565b60006107fe60086112f8565b905090565b61081461080e611237565b82611306565b610853576040517f08c379a000000000000000000000000000000000000000000000000000000000815260040161084a90612a18565b60405180910390fd5b61085e8383836113e4565b505050565b61086b611237565b73ffffffffffffffffffffffffffffffffffffffff16610889610cf9565b73ffffffffffffffffffffffffffffffffffffffff16146108df576040517f08c379a00000000000000000000000000000000000000000000000000000000081526004016108d690612a84565b60405180910390fd5b80600960146101000a81548160ff02191690831515021790555050565b610904611237565b73ffffffffffffffffffffffffffffffffffffffff16610922610cf9565b73ffffffffffffffffffffffffffffffffffffffff1614610978576040517f08c379a000000000000000000000000000000000000000000000000000000000815260040161096f90612a84565b60405180910390fd5b600960149054906101000a900460ff166109c7576040517f08c379a00000000000000000000000000000000000000000000000000000000081526004016109be90612af0565b60405180910390fd5b60006109d360086112f8565b90506109df600861164a565b6109e98282611660565b5050565b610a0883838360405180602001604052806000815250610dde565b505050565b6000806002600084815260200190815260200160002060009054906101000a900473ffffffffffffffffffffffffffffffffffffffff169050600073ffffffffffffffffffffffffffffffffffffffff168173ffffffffffffffffffffffffffffffffffffffff1603610ab5576040517f08c379a0000000000000000000000000000000000000000000000000000000008152600401610aac90612b82565b60405180910390fd5b80915050919050565b60008073ffffffffffffffffffffffffffffffffffffffff168273ffffffffffffffffffffffffffffffffffffffff1603610b2e576040517f08c379a0000000000000000000000000000000000000000000000000000000008152600401610b2590612c14565b60405180910390fd5b600360008373ffffffffffffffffffffffffffffffffffffffff1673ffffffffffffffffffffffffffffffffffffffff168152602001908152602001600020549050919050565b610b7d611237565b73ffffffffffffffffffffffffffffffffffffffff16610b9b610cf9565b73ffffffffffffffffffffffffffffffffffffffff1614610bf1576040517f08c379a0000000000000000000000000000000000000000000000000000000008152600401610be890612a84565b60405180910390fd5b610bfb600061167e565b565b610c05611237565b73ffffffffffffffffffffffffffffffffffffffff16610c23610cf9565b73ffffffffffffffffffffffffffffffffffffffff1614610c79576040517f08c379a0000000000000000000000000000000000000000000000000000000008152600401610c7090612a84565b60405180910390fd5b60005b8151811015610ccf57610cb2828281518110610c9b57610c9a612c34565b5b6020026020010151610cad60086112f8565b611744565b610cbc600861164a565b8080610cc790612c92565b915050610c7c565b5050565b600960009054906101000a900473ffffffffffffffffffffffffffffffffffffffff1681565b6000600760009054906101000a900473ffffffffffffffffffffffffffffffffffffffff16905090565b606060018054610d32906127bf565b80601f0160208091040260200160405190810160405280929190818152602001828054610d5e906127bf565b8015610dab5780601f10610d8057610100808354040283529160200191610dab565b820191906000526020600020905b815481529060010190602001808311610d8e57829003601f168201915b5050505050905090565b610dc7610dc0611237565b838361191d565b5050565b600960149054906101000a900460ff1681565b610def610de9611237565b83611306565b610e2e576040517f08c379a0000000000000000000000000000000000000000000000000000000008152600401610e2590612a18565b60405180910390fd5b610e3a84848484611a89565b50505050565b6060610e4b826111cb565b610e8a576040517f08c379a0000000000000000000000000000000000000000000000000000000008152600401610e8190612d26565b60405180910390fd5b6000610e9583611ae5565b90506000610ea284610f12565b9050610ed88283610eb284610fc4565b604051602001610ec493929190612efe565b604051602081830303815290604052610ee1565b92505050919050565b6060610eec82610fc4565b604051602001610efc9190612fa7565b6040516020818303038152906040529050919050565b6060600960009054906101000a900473ffffffffffffffffffffffffffffffffffffffff1673ffffffffffffffffffffffffffffffffffffffff166319e00849610f5b84610a0d565b6040518263ffffffff1660e01b8152600401610f7791906121fa565b600060405180830381865afa158015610f94573d6000803e3d6000fd5b505050506040513d6000823e3d601f19601f82011682018060405250810190610fbd919061306a565b9050919050565b6060610fcf82611c45565b9050919050565b6000600560008473ffffffffffffffffffffffffffffffffffffffff1673ffffffffffffffffffffffffffffffffffffffff16815260200190815260200160002060008373ffffffffffffffffffffffffffffffffffffffff1673ffffffffffffffffffffffffffffffffffffffff16815260200190815260200160002060009054906101000a900460ff16905092915050565b611072611237565b73ffffffffffffffffffffffffffffffffffffffff16611090610cf9565b73ffffffffffffffffffffffffffffffffffffffff16146110e6576040517f08c379a00000000000000000000000000000000000000000000000000000000081526004016110dd90612a84565b60405180910390fd5b600073ffffffffffffffffffffffffffffffffffffffff168173ffffffffffffffffffffffffffffffffffffffff1603611155576040517f08c379a000000000000000000000000000000000000000000000000000000000815260040161114c90613125565b60405180910390fd5b61115e8161167e565b50565b60007f01ffc9a7000000000000000000000000000000000000000000000000000000007bffffffffffffffffffffffffffffffffffffffffffffffffffffffff1916827bffffffffffffffffffffffffffffffffffffffffffffffffffffffff1916149050919050565b60008073ffffffffffffffffffffffffffffffffffffffff166002600084815260200190815260200160002060009054906101000a900473ffffffffffffffffffffffffffffffffffffffff1673ffffffffffffffffffffffffffffffffffffffff1614159050919050565b600033905090565b816004600083815260200190815260200160002060006101000a81548173ffffffffffffffffffffffffffffffffffffffff021916908373ffffffffffffffffffffffffffffffffffffffff160217905550808273ffffffffffffffffffffffffffffffffffffffff166112b283610a0d565b73ffffffffffffffffffffffffffffffffffffffff167f8c5be1e5ebec7d5bd14f71427d1e84f3dd0314c0f7b2291e5b200ac8c7c3b92560405160405180910390a45050565b600081600001549050919050565b6000611311826111cb565b611350576040517f08c379a0000000000000000000000000000000000000000000000000000000008152600401611347906131b7565b60405180910390fd5b600061135b83610a0d565b90508073ffffffffffffffffffffffffffffffffffffffff168473ffffffffffffffffffffffffffffffffffffffff16148061139d575061139c8185610fd6565b5b806113db57508373ffffffffffffffffffffffffffffffffffffffff166113c384610656565b73ffffffffffffffffffffffffffffffffffffffff16145b91505092915050565b8273ffffffffffffffffffffffffffffffffffffffff1661140482610a0d565b73ffffffffffffffffffffffffffffffffffffffff161461145a576040517f08c379a000000000000000000000000000000000000000000000000000000000815260040161145190613249565b60405180910390fd5b600073ffffffffffffffffffffffffffffffffffffffff168273ffffffffffffffffffffffffffffffffffffffff16036114c9576040517f08c379a00000000000000000000000000000000000000000000000000000000081526004016114c0906132db565b60405180910390fd5b6114d4838383611dbd565b6114df60008261123f565b6001600360008573ffffffffffffffffffffffffffffffffffffffff1673ffffffffffffffffffffffffffffffffffffffff168152602001908152602001600020600082825461152f91906132fb565b925050819055506001600360008473ffffffffffffffffffffffffffffffffffffffff1673ffffffffffffffffffffffffffffffffffffffff1681526020019081526020016000206000828254611586919061332f565b92505081905550816002600083815260200190815260200160002060006101000a81548173ffffffffffffffffffffffffffffffffffffffff021916908373ffffffffffffffffffffffffffffffffffffffff160217905550808273ffffffffffffffffffffffffffffffffffffffff168473ffffffffffffffffffffffffffffffffffffffff167fddf252ad1be2c89b69c2b068fc378daa952ba7f163c4a11628f55a4df523b3ef60405160405180910390a4611645838383611dc2565b505050565b6001816000016000828254019250508190555050565b61167a828260405180602001604052806000815250611dc7565b5050565b6000600760009054906101000a900473ffffffffffffffffffffffffffffffffffffffff16905081600760006101000a81548173ffffffffffffffffffffffffffffffffffffffff021916908373ffffffffffffffffffffffffffffffffffffffff1602179055508173ffffffffffffffffffffffffffffffffffffffff168173ffffffffffffffffffffffffffffffffffffffff167f8be0079c531659141344cd1fd0a4f28419497f9722a3daafe3b4186f6b6457e060405160405180910390a35050565b600073ffffffffffffffffffffffffffffffffffffffff168273ffffffffffffffffffffffffffffffffffffffff16036117b3576040517f08c379a00000000000000000000000000000000000000000000000000000000081526004016117aa906133d1565b60405180910390fd5b6117bc816111cb565b156117fc576040517f08c379a00000000000000000000000000000000000000000000000000000000081526004016117f39061343d565b60405180910390fd5b61180860008383611dbd565b6001600360008473ffffffffffffffffffffffffffffffffffffffff1673ffffffffffffffffffffffffffffffffffffffff1681526020019081526020016000206000828254611858919061332f565b92505081905550816002600083815260200190815260200160002060006101000a81548173ffffffffffffffffffffffffffffffffffffffff021916908373ffffffffffffffffffffffffffffffffffffffff160217905550808273ffffffffffffffffffffffffffffffffffffffff16600073ffffffffffffffffffffffffffffffffffffffff167fddf252ad1be2c89b69c2b068fc378daa952ba7f163c4a11628f55a4df523b3ef60405160405180910390a461191960008383611dc2565b5050565b8173ffffffffffffffffffffffffffffffffffffffff168373ffffffffffffffffffffffffffffffffffffffff160361198b576040517f08c379a0000000000000000000000000000000000000000000000000000000008152600401611982906134a9565b60405180910390fd5b80600560008573ffffffffffffffffffffffffffffffffffffffff1673ffffffffffffffffffffffffffffffffffffffff16815260200190815260200160002060008473ffffffffffffffffffffffffffffffffffffffff1673ffffffffffffffffffffffffffffffffffffffff16815260200190815260200160002060006101000a81548160ff0219169083151502179055508173ffffffffffffffffffffffffffffffffffffffff168373ffffffffffffffffffffffffffffffffffffffff167f17307eab39ab6107e8899845ad3d59bd9653f200f220920489ca2b5937696c3183604051611a7c9190612080565b60405180910390a3505050565b611a948484846113e4565b611aa084848484611e22565b611adf576040517f08c379a0000000000000000000000000000000000000000000000000000000008152600401611ad69061353b565b60405180910390fd5b50505050565b606060008203611b2c576040518060400160405280600181526020017f30000000000000000000000000000000000000000000000000000000000000008152509050611c40565b600082905060005b60008214611b5e578080611b4790612c92565b915050600a82611b57919061358a565b9150611b34565b60008167ffffffffffffffff811115611b7a57611b79612389565b5b6040519080825280601f01601f191660200182016040528015611bac5781602001600182028036833780820191505090505b5090505b60008514611c3957600182611bc591906132fb565b9150600a85611bd491906135bb565b6030611be0919061332f565b60f81b818381518110611bf657611bf5612c34565b5b60200101907effffffffffffffffffffffffffffffffffffffffffffffffffffffffffffff1916908160001a905350600a85611c32919061358a565b9450611bb0565b8093505050505b919050565b60606000825103611c6757604051806020016040528060008152509050611db8565b600060405180606001604052806040815260200161372a6040913990506000600360028551611c96919061332f565b611ca0919061358a565b6004611cac91906135ec565b90506000602082611cbd919061332f565b67ffffffffffffffff811115611cd657611cd5612389565b5b6040519080825280601f01601f191660200182016040528015611d085781602001600182028036833780820191505090505b509050818152600183018586518101602084015b81831015611d77576003830192508251603f8160121c168501518253600182019150603f81600c1c168501518253600182019150603f8160061c168501518253600182019150603f8116850151825360018201915050611d1c565b600389510660018114611d915760028114611da157611dac565b613d3d60f01b6002830352611dac565b603d60f81b60018303525b50505050508093505050505b919050565b505050565b505050565b611dd18383611744565b611dde6000848484611e22565b611e1d576040517f08c379a0000000000000000000000000000000000000000000000000000000008152600401611e149061353b565b60405180910390fd5b505050565b6000611e438473ffffffffffffffffffffffffffffffffffffffff16611fa9565b15611f9c578373ffffffffffffffffffffffffffffffffffffffff1663150b7a02611e6c611237565b8786866040518563ffffffff1660e01b8152600401611e8e949392919061369b565b6020604051808303816000875af1925050508015611eca57506040513d601f19601f82011682018060405250810190611ec791906136fc565b60015b611f4c573d8060008114611efa576040519150601f19603f3d011682016040523d82523d6000602084013e611eff565b606091505b506000815103611f44576040517f08c379a0000000000000000000000000000000000000000000000000000000008152600401611f3b9061353b565b60405180910390fd5b805181602001fd5b63150b7a0260e01b7bffffffffffffffffffffffffffffffffffffffffffffffffffffffff1916817bffffffffffffffffffffffffffffffffffffffffffffffffffffffff191614915050611fa1565b600190505b949350505050565b6000808273ffffffffffffffffffffffffffffffffffffffff163b119050919050565b6000604051905090565b600080fd5b600080fd5b60007fffffffff0000000000000000000000000000000000000000000000000000000082169050919050565b61201581611fe0565b811461202057600080fd5b50565b6000813590506120328161200c565b92915050565b60006020828403121561204e5761204d611fd6565b5b600061205c84828501612023565b91505092915050565b60008115159050919050565b61207a81612065565b82525050565b60006020820190506120956000830184612071565b92915050565b600081519050919050565b600082825260208201905092915050565b60005b838110156120d55780820151818401526020810190506120ba565b838111156120e4576000848401525b50505050565b6000601f19601f8301169050919050565b60006121068261209b565b61211081856120a6565b93506121208185602086016120b7565b612129816120ea565b840191505092915050565b6000602082019050818103600083015261214e81846120fb565b905092915050565b6000819050919050565b61216981612156565b811461217457600080fd5b50565b60008135905061218681612160565b92915050565b6000602082840312156121a2576121a1611fd6565b5b60006121b084828501612177565b91505092915050565b600073ffffffffffffffffffffffffffffffffffffffff82169050919050565b60006121e4826121b9565b9050919050565b6121f4816121d9565b82525050565b600060208201905061220f60008301846121eb565b92915050565b61221e816121d9565b811461222957600080fd5b50565b60008135905061223b81612215565b92915050565b6000806040838503121561225857612257611fd6565b5b60006122668582860161222c565b925050602061227785828601612177565b9150509250929050565b61228a81612156565b82525050565b60006020820190506122a56000830184612281565b92915050565b6000806000606084860312156122c4576122c3611fd6565b5b60006122d28682870161222c565b93505060206122e38682870161222c565b92505060406122f486828701612177565b9150509250925092565b61230781612065565b811461231257600080fd5b50565b600081359050612324816122fe565b92915050565b6000602082840312156123405761233f611fd6565b5b600061234e84828501612315565b91505092915050565b60006020828403121561236d5761236c611fd6565b5b600061237b8482850161222c565b91505092915050565b600080fd5b7f4e487b7100000000000000000000000000000000000000000000000000000000600052604160045260246000fd5b6123c1826120ea565b810181811067ffffffffffffffff821117156123e0576123df612389565b5b80604052505050565b60006123f3611fcc565b90506123ff82826123b8565b919050565b600067ffffffffffffffff82111561241f5761241e612389565b5b602082029050602081019050919050565b600080fd5b600061244861244384612404565b6123e9565b9050808382526020820190506020840283018581111561246b5761246a612430565b5b835b818110156124945780612480888261222c565b84526020840193505060208101905061246d565b5050509392505050565b600082601f8301126124b3576124b2612384565b5b81356124c3848260208601612435565b91505092915050565b6000602082840312156124e2576124e1611fd6565b5b600082013567ffffffffffffffff811115612500576124ff611fdb565b5b61250c8482850161249e565b91505092915050565b6000819050919050565b600061253a612535612530846121b9565b612515565b6121b9565b9050919050565b600061254c8261251f565b9050919050565b600061255e82612541565b9050919050565b61256e81612553565b82525050565b60006020820190506125896000830184612565565b92915050565b600080604083850312156125a6576125a5611fd6565b5b60006125b48582860161222c565b92505060206125c585828601612315565b9150509250929050565b600080fd5b600067ffffffffffffffff8211156125ef576125ee612389565b5b6125f8826120ea565b9050602081019050919050565b82818337600083830152505050565b6000612627612622846125d4565b6123e9565b905082815260208101848484011115612643576126426125cf565b5b61264e848285612605565b509392505050565b600082601f83011261266b5761266a612384565b5b813561267b848260208601612614565b91505092915050565b6000806000806080858703121561269e5761269d611fd6565b5b60006126ac8782880161222c565b94505060206126bd8782880161222c565b93505060406126ce87828801612177565b925050606085013567ffffffffffffffff8111156126ef576126ee611fdb565b5b6126fb87828801612656565b91505092959194509250565b60006020828403121561271d5761271c611fd6565b5b600082013567ffffffffffffffff81111561273b5761273a611fdb565b5b61274784828501612656565b91505092915050565b6000806040838503121561276757612766611fd6565b5b60006127758582860161222c565b92505060206127868582860161222c565b9150509250929050565b7f4e487b7100000000000000000000000000000000000000000000000000000000600052602260045260246000fd5b600060028204905060018216806127d757607f821691505b6020821081036127ea576127e9612790565b5b50919050565b7f4552433732313a20617070726f76656420717565727920666f72206e6f6e657860008201527f697374656e7420746f6b656e0000000000000000000000000000000000000000602082015250565b600061284c602c836120a6565b9150612857826127f0565b604082019050919050565b6000602082019050818103600083015261287b8161283f565b9050919050565b7f4552433732313a20617070726f76616c20746f2063757272656e74206f776e6560008201527f7200000000000000000000000000000000000000000000000000000000000000602082015250565b60006128de6021836120a6565b91506128e982612882565b604082019050919050565b6000602082019050818103600083015261290d816128d1565b9050919050565b7f4552433732313a20617070726f76652063616c6c6572206973206e6f74206f7760008201527f6e6572206e6f7220617070726f76656420666f7220616c6c0000000000000000602082015250565b60006129706038836120a6565b915061297b82612914565b604082019050919050565b6000602082019050818103600083015261299f81612963565b9050919050565b7f4552433732313a207472616e736665722063616c6c6572206973206e6f74206f60008201527f776e6572206e6f7220617070726f766564000000000000000000000000000000602082015250565b6000612a026031836120a6565b9150612a0d826129a6565b604082019050919050565b60006020820190508181036000830152612a31816129f5565b9050919050565b7f4f776e61626c653a2063616c6c6572206973206e6f7420746865206f776e6572600082015250565b6000612a6e6020836120a6565b9150612a7982612a38565b602082019050919050565b60006020820190508181036000830152612a9d81612a61565b9050919050565b7f4d696e74206e6f74206f70656e00000000000000000000000000000000000000600082015250565b6000612ada600d836120a6565b9150612ae582612aa4565b602082019050919050565b60006020820190508181036000830152612b0981612acd565b9050919050565b7f4552433732313a206f776e657220717565727920666f72206e6f6e657869737460008201527f656e7420746f6b656e0000000000000000000000000000000000000000000000602082015250565b6000612b6c6029836120a6565b9150612b7782612b10565b604082019050919050565b60006020820190508181036000830152612b9b81612b5f565b9050919050565b7f4552433732313a2062616c616e636520717565727920666f7220746865207a6560008201527f726f206164647265737300000000000000000000000000000000000000000000602082015250565b6000612bfe602a836120a6565b9150612c0982612ba2565b604082019050919050565b60006020820190508181036000830152612c2d81612bf1565b9050919050565b7f4e487b7100000000000000000000000000000000000000000000000000000000600052603260045260246000fd5b7f4e487b7100000000000000000000000000000000000000000000000000000000600052601160045260246000fd5b6000612c9d82612156565b91507fffffffffffffffffffffffffffffffffffffffffffffffffffffffffffffffff8203612ccf57612cce612c63565b5b600182019050919050565b7f4e6f20746f6b656e206578697374730000000000000000000000000000000000600082015250565b6000612d10600f836120a6565b9150612d1b82612cda565b602082019050919050565b60006020820190508181036000830152612d3f81612d03565b9050919050565b600081905092915050565b7f7b226e616d65223a20224c69676874204f726220230000000000000000000000600082015250565b6000612d87601583612d46565b9150612d9282612d51565b601582019050919050565b6000612da88261209b565b612db28185612d46565b9350612dc28185602086016120b7565b80840191505092915050565b7f222c20226465736372697074696f6e223a20224c69676874204f72622044657360008201527f6372697074696f6e202300000000000000000000000000000000000000000000602082015250565b6000612e2a602a83612d46565b9150612e3582612dce565b602a82019050919050565b7f222c2022696d616765223a2022646174613a696d6167652f7376672b786d6c3b60008201527f6261736536342c00000000000000000000000000000000000000000000000000602082015250565b6000612e9c602783612d46565b9150612ea782612e40565b602782019050919050565b7f227d000000000000000000000000000000000000000000000000000000000000600082015250565b6000612ee8600283612d46565b9150612ef382612eb2565b600282019050919050565b6000612f0982612d7a565b9150612f158286612d9d565b9150612f2082612e1d565b9150612f2c8285612d9d565b9150612f3782612e8f565b9150612f438284612d9d565b9150612f4e82612edb565b9150819050949350505050565b7f646174613a6170706c69636174696f6e2f6a736f6e3b6261736536342c000000600082015250565b6000612f91601d83612d46565b9150612f9c82612f5b565b601d82019050919050565b6000612fb282612f84565b9150612fbe8284612d9d565b915081905092915050565b600067ffffffffffffffff821115612fe457612fe3612389565b5b612fed826120ea565b9050602081019050919050565b600061300d61300884612fc9565b6123e9565b905082815260208101848484011115613029576130286125cf565b5b6130348482856120b7565b509392505050565b600082601f83011261305157613050612384565b5b8151613061848260208601612ffa565b91505092915050565b6000602082840312156130805761307f611fd6565b5b600082015167ffffffffffffffff81111561309e5761309d611fdb565b5b6130aa8482850161303c565b91505092915050565b7f4f776e61626c653a206e6577206f776e657220697320746865207a65726f206160008201527f6464726573730000000000000000000000000000000000000000000000000000602082015250565b600061310f6026836120a6565b915061311a826130b3565b604082019050919050565b6000602082019050818103600083015261313e81613102565b9050919050565b7f4552433732313a206f70657261746f7220717565727920666f72206e6f6e657860008201527f697374656e7420746f6b656e0000000000000000000000000000000000000000602082015250565b60006131a1602c836120a6565b91506131ac82613145565b604082019050919050565b600060208201905081810360008301526131d081613194565b9050919050565b7f4552433732313a207472616e736665722066726f6d20696e636f72726563742060008201527f6f776e6572000000000000000000000000000000000000000000000000000000602082015250565b60006132336025836120a6565b915061323e826131d7565b604082019050919050565b6000602082019050818103600083015261326281613226565b9050919050565b7f4552433732313a207472616e7366657220746f20746865207a65726f2061646460008201527f7265737300000000000000000000000000000000000000000000000000000000602082015250565b60006132c56024836120a6565b91506132d082613269565b604082019050919050565b600060208201905081810360008301526132f4816132b8565b9050919050565b600061330682612156565b915061331183612156565b92508282101561332457613323612c63565b5b828203905092915050565b600061333a82612156565b915061334583612156565b9250827fffffffffffffffffffffffffffffffffffffffffffffffffffffffffffffffff0382111561337a57613379612c63565b5b828201905092915050565b7f4552433732313a206d696e7420746f20746865207a65726f2061646472657373600082015250565b60006133bb6020836120a6565b91506133c682613385565b602082019050919050565b600060208201905081810360008301526133ea816133ae565b9050919050565b7f4552433732313a20746f6b656e20616c7265616479206d696e74656400000000600082015250565b6000613427601c836120a6565b9150613432826133f1565b602082019050919050565b600060208201905081810360008301526134568161341a565b9050919050565b7f4552433732313a20617070726f766520746f2063616c6c657200000000000000600082015250565b60006134936019836120a6565b915061349e8261345d565b602082019050919050565b600060208201905081810360008301526134c281613486565b9050919050565b7f4552433732313a207472616e7366657220746f206e6f6e20455243373231526560008201527f63656976657220696d706c656d656e7465720000000000000000000000000000602082015250565b60006135256032836120a6565b9150613530826134c9565b604082019050919050565b6000602082019050818103600083015261355481613518565b9050919050565b7f4e487b7100000000000000000000000000000000000000000000000000000000600052601260045260246000fd5b600061359582612156565b91506135a083612156565b9250826135b0576135af61355b565b5b828204905092915050565b60006135c682612156565b91506135d183612156565b9250826135e1576135e061355b565b5b828206905092915050565b60006135f782612156565b915061360283612156565b9250817fffffffffffffffffffffffffffffffffffffffffffffffffffffffffffffffff048311821515161561363b5761363a612c63565b5b828202905092915050565b600081519050919050565b600082825260208201905092915050565b600061366d82613646565b6136778185613651565b93506136878185602086016120b7565b613690816120ea565b840191505092915050565b60006080820190506136b060008301876121eb565b6136bd60208301866121eb565b6136ca6040830185612281565b81810360608301526136dc8184613662565b905095945050505050565b6000815190506136f68161200c565b92915050565b60006020828403121561371257613711611fd6565b5b6000613720848285016136e7565b9150509291505056fe4142434445464748494a4b4c4d4e4f505152535455565758595a6162636465666768696a6b6c6d6e6f707172737475767778797a303132333435363738392b2fa2646970667358221220ade3b10bb1e9a2c6c0547f7f72f49e8ff0a69aaae9a6434db950cf9df0ff3d8864736f6c634300080d0033",
  "devdoc": {
    "kind": "dev",
    "methods": {
      "approve(address,uint256)": {
        "details": "See {IERC721-approve}."
      },
      "balanceOf(address)": {
        "details": "See {IERC721-balanceOf}."
      },
      "getApproved(uint256)": {
        "details": "See {IERC721-getApproved}."
      },
      "isApprovedForAll(address,address)": {
        "details": "See {IERC721-isApprovedForAll}."
      },
      "name()": {
        "details": "See {IERC721Metadata-name}."
      },
      "owner()": {
        "details": "Returns the address of the current owner."
      },
      "ownerOf(uint256)": {
        "details": "See {IERC721-ownerOf}."
      },
      "renounceOwnership()": {
        "details": "Leaves the contract without owner. It will not be possible to call `onlyOwner` functions anymore. Can only be called by the current owner. NOTE: Renouncing ownership will leave the contract without an owner, thereby removing any functionality that is only available to the owner."
      },
      "safeTransferFrom(address,address,uint256)": {
        "details": "See {IERC721-safeTransferFrom}."
      },
      "safeTransferFrom(address,address,uint256,bytes)": {
        "details": "See {IERC721-safeTransferFrom}."
      },
      "setApprovalForAll(address,bool)": {
        "details": "See {IERC721-setApprovalForAll}."
      },
      "supportsInterface(bytes4)": {
        "details": "See {IERC165-supportsInterface}."
      },
      "symbol()": {
        "details": "See {IERC721Metadata-symbol}."
      },
      "tokenURI(uint256)": {
        "details": "See {IERC721Metadata-tokenURI}."
      },
      "transferFrom(address,address,uint256)": {
        "details": "See {IERC721-transferFrom}."
      },
      "transferOwnership(address)": {
        "details": "Transfers ownership of the contract to a new account (`newOwner`). Can only be called by the current owner."
      }
    },
    "version": 1
  },
  "numDeployments": 10,
  "solcInputHash": "c38dad5cfb5e68a75c030363025cf3f1",
  "storageLayout": {
    "storage": [
      {
        "astId": 170,
        "contract": "contracts/LightOrb/src/LightOrb.sol:LightOrb",
        "label": "_name",
        "offset": 0,
        "slot": "0",
        "type": "t_string_storage"
      },
      {
        "astId": 172,
        "contract": "contracts/LightOrb/src/LightOrb.sol:LightOrb",
        "label": "_symbol",
        "offset": 0,
        "slot": "1",
        "type": "t_string_storage"
      },
      {
        "astId": 176,
        "contract": "contracts/LightOrb/src/LightOrb.sol:LightOrb",
        "label": "_owners",
        "offset": 0,
        "slot": "2",
        "type": "t_mapping(t_uint256,t_address)"
      },
      {
        "astId": 180,
        "contract": "contracts/LightOrb/src/LightOrb.sol:LightOrb",
        "label": "_balances",
        "offset": 0,
        "slot": "3",
        "type": "t_mapping(t_address,t_uint256)"
      },
      {
        "astId": 184,
        "contract": "contracts/LightOrb/src/LightOrb.sol:LightOrb",
        "label": "_tokenApprovals",
        "offset": 0,
        "slot": "4",
        "type": "t_mapping(t_uint256,t_address)"
      },
      {
        "astId": 190,
        "contract": "contracts/LightOrb/src/LightOrb.sol:LightOrb",
        "label": "_operatorApprovals",
        "offset": 0,
        "slot": "5",
        "type": "t_mapping(t_address,t_mapping(t_address,t_bool))"
      },
      {
        "astId": 115,
        "contract": "contracts/LightOrb/src/LightOrb.sol:LightOrb",
        "label": "_status",
        "offset": 0,
        "slot": "6",
        "type": "t_uint256"
      },
      {
        "astId": 7,
        "contract": "contracts/LightOrb/src/LightOrb.sol:LightOrb",
        "label": "_owner",
        "offset": 0,
        "slot": "7",
        "type": "t_address"
      },
      {
        "astId": 1943,
        "contract": "contracts/LightOrb/src/LightOrb.sol:LightOrb",
        "label": "supplyCounter",
        "offset": 0,
        "slot": "8",
        "type": "t_struct(Counter)1494_storage"
      },
      {
        "astId": 1946,
        "contract": "contracts/LightOrb/src/LightOrb.sol:LightOrb",
        "label": "renderer",
        "offset": 0,
        "slot": "9",
        "type": "t_contract(Renderer)2333"
      },
      {
        "astId": 1949,
        "contract": "contracts/LightOrb/src/LightOrb.sol:LightOrb",
        "label": "mintIsOpen",
        "offset": 20,
        "slot": "9",
        "type": "t_bool"
      }
    ],
    "types": {
      "t_address": {
        "encoding": "inplace",
        "label": "address",
        "numberOfBytes": "20"
      },
      "t_bool": {
        "encoding": "inplace",
        "label": "bool",
        "numberOfBytes": "1"
      },
      "t_contract(Renderer)2333": {
        "encoding": "inplace",
        "label": "contract Renderer",
        "numberOfBytes": "20"
      },
      "t_mapping(t_address,t_bool)": {
        "encoding": "mapping",
        "key": "t_address",
        "label": "mapping(address => bool)",
        "numberOfBytes": "32",
        "value": "t_bool"
      },
      "t_mapping(t_address,t_mapping(t_address,t_bool))": {
        "encoding": "mapping",
        "key": "t_address",
        "label": "mapping(address => mapping(address => bool))",
        "numberOfBytes": "32",
        "value": "t_mapping(t_address,t_bool)"
      },
      "t_mapping(t_address,t_uint256)": {
        "encoding": "mapping",
        "key": "t_address",
        "label": "mapping(address => uint256)",
        "numberOfBytes": "32",
        "value": "t_uint256"
      },
      "t_mapping(t_uint256,t_address)": {
        "encoding": "mapping",
        "key": "t_uint256",
        "label": "mapping(uint256 => address)",
        "numberOfBytes": "32",
        "value": "t_address"
      },
      "t_string_storage": {
        "encoding": "bytes",
        "label": "string",
        "numberOfBytes": "32"
      },
      "t_struct(Counter)1494_storage": {
        "encoding": "inplace",
        "label": "struct Counters.Counter",
        "members": [
          {
            "astId": 1493,
            "contract": "contracts/LightOrb/src/LightOrb.sol:LightOrb",
            "label": "_value",
            "offset": 0,
            "slot": "0",
            "type": "t_uint256"
          }
        ],
        "numberOfBytes": "32"
      },
      "t_uint256": {
        "encoding": "inplace",
        "label": "uint256",
        "numberOfBytes": "32"
      }
    }
  },
  "transactionHash": "0x4fe7f071cdc03e5f87f0a42264fd557027fa9db3153908b8ddabd4491d3c09c1",
  "userdoc": {
    "kind": "user",
    "methods": {},
    "version": 1
  }
}