{
  "abi": [
    {
      "anonymous": false,
      "inputs": [
        {
          "indexed": false,
          "internalType": "uint8",
          "name": "version",
          "type": "uint8"
        }
      ],
      "name": "Initialized",
      "type": "event"
    },
    {
      "anonymous": false,
      "inputs": [
        {
          "indexed": true,
          "internalType": "address",
          "name": "previousOwner",
          "type": "address"
        },
        {
          "indexed": true,
          "internalType": "address",
          "name": "newOwner",
          "type": "address"
        }
      ],
      "name": "OwnershipTransferred",
      "type": "event"
    },
    {
      "anonymous": false,
      "inputs": [
        {
          "indexed": false,
          "internalType": "address",
          "name": "",
          "type": "address"
        },
        {
          "indexed": false,
          "internalType": "uint256",
          "name": "",
          "type": "uint256"
        }
      ],
      "name": "Received",
      "type": "event"
    },
    {
      "inputs": [],
      "name": "getStoredValue",
      "outputs": [
        {
          "internalType": "uint256",
          "name": "",
          "type": "uint256"
        }
      ],
      "stateMutability": "view",
      "type": "function"
    },
    {
      "inputs": [],
      "name": "initialize",
      "outputs": [],
      "stateMutability": "nonpayable",
      "type": "function"
    },
    {
      "inputs": [],
      "name": "owner",
      "outputs": [
        {
          "internalType": "address",
          "name": "",
          "type": "address"
        }
      ],
      "stateMutability": "view",
      "type": "function"
    },
    {
      "inputs": [],
      "name": "renounceOwnership",
      "outputs": [],
      "stateMutability": "nonpayable",
      "type": "function"
    },
    {
      "inputs": [
        {
          "internalType": "uint256",
          "name": "newValue",
          "type": "uint256"
        }
      ],
      "name": "setStoredValue",
      "outputs": [],
      "stateMutability": "nonpayable",
      "type": "function"
    },
    {
      "inputs": [
        {
          "internalType": "address",
          "name": "newOwner",
          "type": "address"
        }
      ],
      "name": "transferOwnership",
      "outputs": [],
      "stateMutability": "nonpayable",
      "type": "function"
    },
    {
      "inputs": [
        {
          "internalType": "address",
          "name": "to",
          "type": "address"
        },
        {
          "internalType": "uint256",
          "name": "value",
          "type": "uint256"
        }
      ],
      "name": "withdraw",
      "outputs": [],
      "stateMutability": "payable",
      "type": "function"
    },
    {
      "stateMutability": "payable",
      "type": "receive"
    }
  ],
  "address": "0xF4f153B06789a44c67847011D2f841B6ca5131EE",
  "args": [],
  "bytecode": "0x608060405234801561001057600080fd5b50610dbc806100206000396000f3fe6080604052600436106100745760003560e01c80638129fc1c1161004e5780638129fc1c146101245780638da5cb5b1461013b578063f2fde38b14610166578063f3fef3a31461018f576100b4565b80630d336a21146100b95780633295425d146100e4578063715018a61461010d576100b4565b366100b4577f88a5966d370b9919b20f3e2c13ff65706f196a4e32cc2c12bf57088f8852587433346040516100aa929190610872565b60405180910390a1005b600080fd5b3480156100c557600080fd5b506100ce6101ab565b6040516100db919061089b565b60405180910390f35b3480156100f057600080fd5b5061010b600480360381019061010691906108e7565b6101b5565b005b34801561011957600080fd5b506101226101bf565b005b34801561013057600080fd5b50610139610247565b005b34801561014757600080fd5b506101506102db565b60405161015d9190610914565b60405180910390f35b34801561017257600080fd5b5061018d6004803603810190610188919061095b565b610305565b005b6101a960048036038101906101a49190610988565b6103fc565b005b6000609754905090565b8060978190555050565b6101c761057d565b73ffffffffffffffffffffffffffffffffffffffff166101e56102db565b73ffffffffffffffffffffffffffffffffffffffff161461023b576040517f08c379a000000000000000000000000000000000000000000000000000000000815260040161023290610a25565b60405180910390fd5b6102456000610585565b565b6000610253600161064b565b90508015610277576001600060016101000a81548160ff0219169083151502179055505b61027f61073b565b80156102d85760008060016101000a81548160ff0219169083151502179055507f7f26b83ff96e1f2b6a682f133852f6798a09c465da95921460cefb384740249860016040516102cf9190610a97565b60405180910390a15b50565b6000606560009054906101000a900473ffffffffffffffffffffffffffffffffffffffff16905090565b61030d61057d565b73ffffffffffffffffffffffffffffffffffffffff1661032b6102db565b73ffffffffffffffffffffffffffffffffffffffff1614610381576040517f08c379a000000000000000000000000000000000000000000000000000000000815260040161037890610a25565b60405180910390fd5b600073ffffffffffffffffffffffffffffffffffffffff168173ffffffffffffffffffffffffffffffffffffffff16036103f0576040517f08c379a00000000000000000000000000000000000000000000000000000000081526004016103e790610b24565b60405180910390fd5b6103f981610585565b50565b61040461057d565b73ffffffffffffffffffffffffffffffffffffffff166104226102db565b73ffffffffffffffffffffffffffffffffffffffff1614610478576040517f08c379a000000000000000000000000000000000000000000000000000000000815260040161046f90610a25565b60405180910390fd5b6002600154036104bd576040517f08c379a00000000000000000000000000000000000000000000000000000000081526004016104b490610b90565b60405180910390fd5b600260018190555060008273ffffffffffffffffffffffffffffffffffffffff16826040516104eb90610be1565b60006040518083038185875af1925050503d8060008114610528576040519150601f19603f3d011682016040523d82523d6000602084013e61052d565b606091505b5050905080610571576040517f08c379a000000000000000000000000000000000000000000000000000000000815260040161056890610c42565b60405180910390fd5b50600180819055505050565b600033905090565b6000606560009054906101000a900473ffffffffffffffffffffffffffffffffffffffff16905081606560006101000a81548173ffffffffffffffffffffffffffffffffffffffff021916908373ffffffffffffffffffffffffffffffffffffffff1602179055508173ffffffffffffffffffffffffffffffffffffffff168173ffffffffffffffffffffffffffffffffffffffff167f8be0079c531659141344cd1fd0a4f28419497f9722a3daafe3b4186f6b6457e060405160405180910390a35050565b60008060019054906101000a900460ff16156106c25760018260ff1614801561067a575061067830610794565b155b6106b9576040517f08c379a00000000000000000000000000000000000000000000000000000000081526004016106b090610cd4565b60405180910390fd5b60009050610736565b8160ff1660008054906101000a900460ff1660ff1610610717576040517f08c379a000000000000000000000000000000000000000000000000000000000815260040161070e90610cd4565b60405180910390fd5b816000806101000a81548160ff021916908360ff160217905550600190505b919050565b600060019054906101000a900460ff1661078a576040517f08c379a000000000000000000000000000000000000000000000000000000000815260040161078190610d66565b60405180910390fd5b6107926107b7565b565b6000808273ffffffffffffffffffffffffffffffffffffffff163b119050919050565b600060019054906101000a900460ff16610806576040517f08c379a00000000000000000000000000000000000000000000000000000000081526004016107fd90610d66565b60405180910390fd5b61081661081161057d565b610585565b565b600073ffffffffffffffffffffffffffffffffffffffff82169050919050565b600061084382610818565b9050919050565b61085381610838565b82525050565b6000819050919050565b61086c81610859565b82525050565b6000604082019050610887600083018561084a565b6108946020830184610863565b9392505050565b60006020820190506108b06000830184610863565b92915050565b600080fd5b6108c481610859565b81146108cf57600080fd5b50565b6000813590506108e1816108bb565b92915050565b6000602082840312156108fd576108fc6108b6565b5b600061090b848285016108d2565b91505092915050565b6000602082019050610929600083018461084a565b92915050565b61093881610838565b811461094357600080fd5b50565b6000813590506109558161092f565b92915050565b600060208284031215610971576109706108b6565b5b600061097f84828501610946565b91505092915050565b6000806040838503121561099f5761099e6108b6565b5b60006109ad85828601610946565b92505060206109be858286016108d2565b9150509250929050565b600082825260208201905092915050565b7f4f776e61626c653a2063616c6c6572206973206e6f7420746865206f776e6572600082015250565b6000610a0f6020836109c8565b9150610a1a826109d9565b602082019050919050565b60006020820190508181036000830152610a3e81610a02565b9050919050565b6000819050919050565b600060ff82169050919050565b6000819050919050565b6000610a81610a7c610a7784610a45565b610a5c565b610a4f565b9050919050565b610a9181610a66565b82525050565b6000602082019050610aac6000830184610a88565b92915050565b7f4f776e61626c653a206e6577206f776e657220697320746865207a65726f206160008201527f6464726573730000000000000000000000000000000000000000000000000000602082015250565b6000610b0e6026836109c8565b9150610b1982610ab2565b604082019050919050565b60006020820190508181036000830152610b3d81610b01565b9050919050565b7f5265656e7472616e637947756172643a207265656e7472616e742063616c6c00600082015250565b6000610b7a601f836109c8565b9150610b8582610b44565b602082019050919050565b60006020820190508181036000830152610ba981610b6d565b9050919050565b600081905092915050565b50565b6000610bcb600083610bb0565b9150610bd682610bbb565b600082019050919050565b6000610bec82610bbe565b9150819050919050565b7f4661696c656420746f2073656e64204574686572000000000000000000000000600082015250565b6000610c2c6014836109c8565b9150610c3782610bf6565b602082019050919050565b60006020820190508181036000830152610c5b81610c1f565b9050919050565b7f496e697469616c697a61626c653a20636f6e747261637420697320616c72656160008201527f647920696e697469616c697a6564000000000000000000000000000000000000602082015250565b6000610cbe602e836109c8565b9150610cc982610c62565b604082019050919050565b60006020820190508181036000830152610ced81610cb1565b9050919050565b7f496e697469616c697a61626c653a20636f6e7472616374206973206e6f74206960008201527f6e697469616c697a696e67000000000000000000000000000000000000000000602082015250565b6000610d50602b836109c8565b9150610d5b82610cf4565b604082019050919050565b60006020820190508181036000830152610d7f81610d43565b905091905056fea2646970667358221220546a6071ed592d38a2d39cef159518a10e1471dc90409c87d4503dc82a94faec64736f6c634300080d0033",
  "devdoc": {
    "kind": "dev",
    "methods": {
      "owner()": {
        "details": "Returns the address of the current owner."
      },
      "renounceOwnership()": {
        "details": "Leaves the contract without owner. It will not be possible to call `onlyOwner` functions anymore. Can only be called by the current owner. NOTE: Renouncing ownership will leave the contract without an owner, thereby removing any functionality that is only available to the owner."
      },
      "transferOwnership(address)": {
        "details": "Transfers ownership of the contract to a new account (`newOwner`). Can only be called by the current owner."
      }
    },
    "version": 1
  },
  "numDeployments": 1,
  "solcInputHash": "9ad30fe4226e03f9ff03cc6093b6c45a",
  "storageLayout": {
    "storage": [
      {
        "astId": 130,
        "contract": "contracts/Upgradeable/src/Upgradeable.sol:Upgradeable",
        "label": "_initialized",
        "offset": 0,
        "slot": "0",
        "type": "t_uint8"
      },
      {
        "astId": 133,
        "contract": "contracts/Upgradeable/src/Upgradeable.sol:Upgradeable",
        "label": "_initializing",
        "offset": 1,
        "slot": "0",
        "type": "t_bool"
      },
      {
        "astId": 279,
        "contract": "contracts/Upgradeable/src/Upgradeable.sol:Upgradeable",
        "label": "_status",
        "offset": 0,
        "slot": "1",
        "type": "t_uint256"
      },
      {
        "astId": 323,
        "contract": "contracts/Upgradeable/src/Upgradeable.sol:Upgradeable",
        "label": "__gap",
        "offset": 0,
        "slot": "2",
        "type": "t_array(t_uint256)49_storage"
      },
      {
        "astId": 1660,
        "contract": "contracts/Upgradeable/src/Upgradeable.sol:Upgradeable",
        "label": "__gap",
        "offset": 0,
        "slot": "51",
        "type": "t_array(t_uint256)50_storage"
      },
      {
        "astId": 10,
        "contract": "contracts/Upgradeable/src/Upgradeable.sol:Upgradeable",
        "label": "_owner",
        "offset": 0,
        "slot": "101",
        "type": "t_address"
      },
      {
        "astId": 122,
        "contract": "contracts/Upgradeable/src/Upgradeable.sol:Upgradeable",
        "label": "__gap",
        "offset": 0,
        "slot": "102",
        "type": "t_array(t_uint256)49_storage"
      },
      {
        "astId": 12724,
        "contract": "contracts/Upgradeable/src/Upgradeable.sol:Upgradeable",
        "label": "storedValue",
        "offset": 0,
        "slot": "151",
        "type": "t_uint256"
      }
    ],
    "types": {
      "t_address": {
        "encoding": "inplace",
        "label": "address",
        "numberOfBytes": "20"
      },
      "t_array(t_uint256)49_storage": {
        "base": "t_uint256",
        "encoding": "inplace",
        "label": "uint256[49]",
        "numberOfBytes": "1568"
      },
      "t_array(t_uint256)50_storage": {
        "base": "t_uint256",
        "encoding": "inplace",
        "label": "uint256[50]",
        "numberOfBytes": "1600"
      },
      "t_bool": {
        "encoding": "inplace",
        "label": "bool",
        "numberOfBytes": "1"
      },
      "t_uint256": {
        "encoding": "inplace",
        "label": "uint256",
        "numberOfBytes": "32"
      },
      "t_uint8": {
        "encoding": "inplace",
        "label": "uint8",
        "numberOfBytes": "1"
      }
    }
  },
  "transactionHash": "0xd2b7a57167e65372e9c91554f3fe813ed0d37d9c290350a9ee11db60166a7a63",
  "userdoc": {
    "kind": "user",
    "methods": {},
    "version": 1
  }
}