{
  "abi": [
    {
      "inputs": [
        {
          "internalType": "string",
          "name": "customBaseURI_",
          "type": "string"
        }
      ],
      "stateMutability": "nonpayable",
      "type": "constructor"
    },
    {
      "anonymous": false,
      "inputs": [
        {
          "indexed": true,
          "internalType": "address",
          "name": "owner",
          "type": "address"
        },
        {
          "indexed": true,
          "internalType": "address",
          "name": "approved",
          "type": "address"
        },
        {
          "indexed": true,
          "internalType": "uint256",
          "name": "tokenId",
          "type": "uint256"
        }
      ],
      "name": "Approval",
      "type": "event"
    },
    {
      "anonymous": false,
      "inputs": [
        {
          "indexed": true,
          "internalType": "address",
          "name": "owner",
          "type": "address"
        },
        {
          "indexed": true,
          "internalType": "address",
          "name": "operator",
          "type": "address"
        },
        {
          "indexed": false,
          "internalType": "bool",
          "name": "approved",
          "type": "bool"
        }
      ],
      "name": "ApprovalForAll",
      "type": "event"
    },
    {
      "anonymous": false,
      "inputs": [
        {
          "indexed": true,
          "internalType": "address",
          "name": "previousOwner",
          "type": "address"
        },
        {
          "indexed": true,
          "internalType": "address",
          "name": "newOwner",
          "type": "address"
        }
      ],
      "name": "OwnershipTransferred",
      "type": "event"
    },
    {
      "anonymous": false,
      "inputs": [
        {
          "indexed": true,
          "internalType": "address",
          "name": "from",
          "type": "address"
        },
        {
          "indexed": true,
          "internalType": "address",
          "name": "to",
          "type": "address"
        },
        {
          "indexed": true,
          "internalType": "uint256",
          "name": "tokenId",
          "type": "uint256"
        }
      ],
      "name": "Transfer",
      "type": "event"
    },
    {
      "inputs": [],
      "name": "MAX_SUPPLY",
      "outputs": [
        {
          "internalType": "uint256",
          "name": "",
          "type": "uint256"
        }
      ],
      "stateMutability": "view",
      "type": "function"
    },
    {
      "inputs": [],
      "name": "MINT_LIMIT_PER_WALLET",
      "outputs": [
        {
          "internalType": "uint256",
          "name": "",
          "type": "uint256"
        }
      ],
      "stateMutability": "view",
      "type": "function"
    },
    {
      "inputs": [
        {
          "internalType": "address",
          "name": "minter",
          "type": "address"
        }
      ],
      "name": "allowedMintCount",
      "outputs": [
        {
          "internalType": "uint256",
          "name": "",
          "type": "uint256"
        }
      ],
      "stateMutability": "view",
      "type": "function"
    },
    {
      "inputs": [
        {
          "internalType": "address",
          "name": "to",
          "type": "address"
        },
        {
          "internalType": "uint256",
          "name": "tokenId",
          "type": "uint256"
        }
      ],
      "name": "approve",
      "outputs": [],
      "stateMutability": "nonpayable",
      "type": "function"
    },
    {
      "inputs": [
        {
          "internalType": "address",
          "name": "owner",
          "type": "address"
        }
      ],
      "name": "balanceOf",
      "outputs": [
        {
          "internalType": "uint256",
          "name": "",
          "type": "uint256"
        }
      ],
      "stateMutability": "view",
      "type": "function"
    },
    {
      "inputs": [
        {
          "internalType": "uint256",
          "name": "tokenId",
          "type": "uint256"
        }
      ],
      "name": "getApproved",
      "outputs": [
        {
          "internalType": "address",
          "name": "",
          "type": "address"
        }
      ],
      "stateMutability": "view",
      "type": "function"
    },
    {
      "inputs": [
        {
          "internalType": "address",
          "name": "owner",
          "type": "address"
        },
        {
          "internalType": "address",
          "name": "operator",
          "type": "address"
        }
      ],
      "name": "isApprovedForAll",
      "outputs": [
        {
          "internalType": "bool",
          "name": "",
          "type": "bool"
        }
      ],
      "stateMutability": "view",
      "type": "function"
    },
    {
      "inputs": [],
      "name": "mint",
      "outputs": [],
      "stateMutability": "nonpayable",
      "type": "function"
    },
    {
      "inputs": [],
      "name": "name",
      "outputs": [
        {
          "internalType": "string",
          "name": "",
          "type": "string"
        }
      ],
      "stateMutability": "view",
      "type": "function"
    },
    {
      "inputs": [],
      "name": "owner",
      "outputs": [
        {
          "internalType": "address",
          "name": "",
          "type": "address"
        }
      ],
      "stateMutability": "view",
      "type": "function"
    },
    {
      "inputs": [
        {
          "internalType": "uint256",
          "name": "tokenId",
          "type": "uint256"
        }
      ],
      "name": "ownerOf",
      "outputs": [
        {
          "internalType": "address",
          "name": "",
          "type": "address"
        }
      ],
      "stateMutability": "view",
      "type": "function"
    },
    {
      "inputs": [],
      "name": "renounceOwnership",
      "outputs": [],
      "stateMutability": "nonpayable",
      "type": "function"
    },
    {
      "inputs": [
        {
          "internalType": "address",
          "name": "from",
          "type": "address"
        },
        {
          "internalType": "address",
          "name": "to",
          "type": "address"
        },
        {
          "internalType": "uint256",
          "name": "tokenId",
          "type": "uint256"
        }
      ],
      "name": "safeTransferFrom",
      "outputs": [],
      "stateMutability": "nonpayable",
      "type": "function"
    },
    {
      "inputs": [
        {
          "internalType": "address",
          "name": "from",
          "type": "address"
        },
        {
          "internalType": "address",
          "name": "to",
          "type": "address"
        },
        {
          "internalType": "uint256",
          "name": "tokenId",
          "type": "uint256"
        },
        {
          "internalType": "bytes",
          "name": "_data",
          "type": "bytes"
        }
      ],
      "name": "safeTransferFrom",
      "outputs": [],
      "stateMutability": "nonpayable",
      "type": "function"
    },
    {
      "inputs": [
        {
          "internalType": "address",
          "name": "operator",
          "type": "address"
        },
        {
          "internalType": "bool",
          "name": "approved",
          "type": "bool"
        }
      ],
      "name": "setApprovalForAll",
      "outputs": [],
      "stateMutability": "nonpayable",
      "type": "function"
    },
    {
      "inputs": [
        {
          "internalType": "string",
          "name": "customBaseURI_",
          "type": "string"
        }
      ],
      "name": "setBaseURI",
      "outputs": [],
      "stateMutability": "nonpayable",
      "type": "function"
    },
    {
      "inputs": [
        {
          "internalType": "bytes4",
          "name": "interfaceId",
          "type": "bytes4"
        }
      ],
      "name": "supportsInterface",
      "outputs": [
        {
          "internalType": "bool",
          "name": "",
          "type": "bool"
        }
      ],
      "stateMutability": "view",
      "type": "function"
    },
    {
      "inputs": [],
      "name": "symbol",
      "outputs": [
        {
          "internalType": "string",
          "name": "",
          "type": "string"
        }
      ],
      "stateMutability": "view",
      "type": "function"
    },
    {
      "inputs": [
        {
          "internalType": "uint256",
          "name": "index",
          "type": "uint256"
        }
      ],
      "name": "tokenByIndex",
      "outputs": [
        {
          "internalType": "uint256",
          "name": "",
          "type": "uint256"
        }
      ],
      "stateMutability": "view",
      "type": "function"
    },
    {
      "inputs": [
        {
          "internalType": "address",
          "name": "owner",
          "type": "address"
        },
        {
          "internalType": "uint256",
          "name": "index",
          "type": "uint256"
        }
      ],
      "name": "tokenOfOwnerByIndex",
      "outputs": [
        {
          "internalType": "uint256",
          "name": "",
          "type": "uint256"
        }
      ],
      "stateMutability": "view",
      "type": "function"
    },
    {
      "inputs": [
        {
          "internalType": "uint256",
          "name": "tokenId",
          "type": "uint256"
        }
      ],
      "name": "tokenURI",
      "outputs": [
        {
          "internalType": "string",
          "name": "",
          "type": "string"
        }
      ],
      "stateMutability": "view",
      "type": "function"
    },
    {
      "inputs": [],
      "name": "totalSupply",
      "outputs": [
        {
          "internalType": "uint256",
          "name": "",
          "type": "uint256"
        }
      ],
      "stateMutability": "view",
      "type": "function"
    },
    {
      "inputs": [
        {
          "internalType": "address",
          "name": "from",
          "type": "address"
        },
        {
          "internalType": "address",
          "name": "to",
          "type": "address"
        },
        {
          "internalType": "uint256",
          "name": "tokenId",
          "type": "uint256"
        }
      ],
      "name": "transferFrom",
      "outputs": [],
      "stateMutability": "nonpayable",
      "type": "function"
    },
    {
      "inputs": [
        {
          "internalType": "address",
          "name": "newOwner",
          "type": "address"
        }
      ],
      "name": "transferOwnership",
      "outputs": [],
      "stateMutability": "nonpayable",
      "type": "function"
    }
  ],
  "address": "0x8b116bB4929A0073149E00C5dD247CF6634AC4e0",
  "args": [
    "https://0xkiyo.xyz/metadata/"
  ],
  "bytecode": "0x60806040523480156200001157600080fd5b5060405162003e0438038062003e0483398181016040528101906200003791906200030f565b6040518060400160405280600f81526020017f4b69796f53616e426972746864617900000000000000000000000000000000008152506040518060400160405280600681526020017f30784b69796f00000000000000000000000000000000000000000000000000008152508160009080519060200190620000bb929190620001ed565b508060019080519060200190620000d4929190620001ed565b5050506001600a81905550620000ff620000f36200011f60201b60201c565b6200012760201b60201c565b80600e908051906020019062000117929190620001ed565b5050620004c4565b600033905090565b6000600b60009054906101000a900473ffffffffffffffffffffffffffffffffffffffff16905081600b60006101000a81548173ffffffffffffffffffffffffffffffffffffffff021916908373ffffffffffffffffffffffffffffffffffffffff1602179055508173ffffffffffffffffffffffffffffffffffffffff168173ffffffffffffffffffffffffffffffffffffffff167f8be0079c531659141344cd1fd0a4f28419497f9722a3daafe3b4186f6b6457e060405160405180910390a35050565b828054620001fb90620003e9565b90600052602060002090601f0160209004810192826200021f57600085556200026b565b82601f106200023a57805160ff19168380011785556200026b565b828001600101855582156200026b579182015b828111156200026a5782518255916020019190600101906200024d565b5b5090506200027a91906200027e565b5090565b5b80821115620002995760008160009055506001016200027f565b5090565b6000620002b4620002ae846200037d565b62000354565b905082815260208101848484011115620002cd57600080fd5b620002da848285620003b3565b509392505050565b600082601f830112620002f457600080fd5b8151620003068482602086016200029d565b91505092915050565b6000602082840312156200032257600080fd5b600082015167ffffffffffffffff8111156200033d57600080fd5b6200034b84828501620002e2565b91505092915050565b60006200036062000373565b90506200036e82826200041f565b919050565b6000604051905090565b600067ffffffffffffffff8211156200039b576200039a62000484565b5b620003a682620004b3565b9050602081019050919050565b60005b83811015620003d3578082015181840152602081019050620003b6565b83811115620003e3576000848401525b50505050565b600060028204905060018216806200040257607f821691505b6020821081141562000419576200041862000455565b5b50919050565b6200042a82620004b3565b810181811067ffffffffffffffff821117156200044c576200044b62000484565b5b80604052505050565b7f4e487b7100000000000000000000000000000000000000000000000000000000600052602260045260246000fd5b7f4e487b7100000000000000000000000000000000000000000000000000000000600052604160045260246000fd5b6000601f19601f8301169050919050565b61393080620004d46000396000f3fe608060405234801561001057600080fd5b50600436106101585760003560e01c80636352211e116100c3578063b88d4fde1161007c578063b88d4fde146103b3578063bb660c0a146103cf578063c87b56dd146103ff578063d6c336ed1461042f578063e985e9c51461044d578063f2fde38b1461047d57610158565b80636352211e146102f157806370a0823114610321578063715018a6146103515780638da5cb5b1461035b57806395d89b4114610379578063a22cb4651461039757610158565b806323b872dd1161011557806323b872dd1461021f5780632f745c591461023b57806332cb6b0c1461026b57806342842e0e146102895780634f6ccce7146102a557806355f804b3146102d557610158565b806301ffc9a71461015d57806306fdde031461018d578063081812fc146101ab578063095ea7b3146101db5780631249c58b146101f757806318160ddd14610201575b600080fd5b6101776004803603810190610172919061275a565b610499565b6040516101849190612c50565b60405180910390f35b610195610513565b6040516101a29190612c6b565b60405180910390f35b6101c560048036038101906101c091906127ed565b6105a5565b6040516101d29190612be9565b60405180910390f35b6101f560048036038101906101f0919061271e565b61062a565b005b6101ff610742565b005b610209610865565b6040516102169190612f2d565b60405180910390f35b61023960048036038101906102349190612618565b610872565b005b6102556004803603810190610250919061271e565b6108d2565b6040516102629190612f2d565b60405180910390f35b610273610977565b6040516102809190612f2d565b60405180910390f35b6102a3600480360381019061029e9190612618565b61097c565b005b6102bf60048036038101906102ba91906127ed565b61099c565b6040516102cc9190612f2d565b60405180910390f35b6102ef60048036038101906102ea91906127ac565b610a33565b005b61030b600480360381019061030691906127ed565b610ac9565b6040516103189190612be9565b60405180910390f35b61033b600480360381019061033691906125b3565b610b7b565b6040516103489190612f2d565b60405180910390f35b610359610c33565b005b610363610cbb565b6040516103709190612be9565b60405180910390f35b610381610ce5565b60405161038e9190612c6b565b60405180910390f35b6103b160048036038101906103ac91906126e2565b610d77565b005b6103cd60048036038101906103c89190612667565b610ef8565b005b6103e960048036038101906103e491906125b3565b610f5a565b6040516103f69190612f2d565b60405180910390f35b610419600480360381019061041491906127ed565b610faf565b6040516104269190612c6b565b60405180910390f35b610437611056565b6040516104449190612f2d565b60405180910390f35b610467600480360381019061046291906125dc565b61105b565b6040516104749190612c50565b60405180910390f35b610497600480360381019061049291906125b3565b6110ef565b005b60007f780e9d63000000000000000000000000000000000000000000000000000000007bffffffffffffffffffffffffffffffffffffffffffffffffffffffff1916827bffffffffffffffffffffffffffffffffffffffffffffffffffffffff1916148061050c575061050b826111e7565b5b9050919050565b60606000805461052290613183565b80601f016020809104026020016040519081016040528092919081815260200182805461054e90613183565b801561059b5780601f106105705761010080835404028352916020019161059b565b820191906000526020600020905b81548152906001019060200180831161057e57829003601f168201915b5050505050905090565b60006105b0826112c9565b6105ef576040517f08c379a00000000000000000000000000000000000000000000000000000000081526004016105e690612e2d565b60405180910390fd5b6004600083815260200190815260200160002060009054906101000a900473ffffffffffffffffffffffffffffffffffffffff169050919050565b600061063582610ac9565b90508073ffffffffffffffffffffffffffffffffffffffff168373ffffffffffffffffffffffffffffffffffffffff1614156106a6576040517f08c379a000000000000000000000000000000000000000000000000000000000815260040161069d90612ead565b60405180910390fd5b8073ffffffffffffffffffffffffffffffffffffffff166106c5611335565b73ffffffffffffffffffffffffffffffffffffffff1614806106f457506106f3816106ee611335565b61105b565b5b610733576040517f08c379a000000000000000000000000000000000000000000000000000000000815260040161072a90612d8d565b60405180910390fd5b61073d838361133d565b505050565b6002600a541415610788576040517f08c379a000000000000000000000000000000000000000000000000000000000815260040161077f90612f0d565b60405180910390fd5b6002600a8190555060016107a261079d611335565b610f5a565b106107be576107b96107b2611335565b60016113f6565b6107f9565b6040517f08c379a00000000000000000000000000000000000000000000000000000000081526004016107f090612d6d565b60405180910390fd5b601b610803610865565b10610843576040517f08c379a000000000000000000000000000000000000000000000000000000000815260040161083a90612ded565b60405180910390fd5b61085b61084e611335565b610856610865565b611450565b6001600a81905550565b6000600880549050905090565b61088361087d611335565b8261146e565b6108c2576040517f08c379a00000000000000000000000000000000000000000000000000000000081526004016108b990612ecd565b60405180910390fd5b6108cd83838361154c565b505050565b60006108dd83610b7b565b821061091e576040517f08c379a000000000000000000000000000000000000000000000000000000000815260040161091590612c8d565b60405180910390fd5b600660008473ffffffffffffffffffffffffffffffffffffffff1673ffffffffffffffffffffffffffffffffffffffff168152602001908152602001600020600083815260200190815260200160002054905092915050565b601b81565b61099783838360405180602001604052806000815250610ef8565b505050565b60006109a6610865565b82106109e7576040517f08c379a00000000000000000000000000000000000000000000000000000000081526004016109de90612eed565b60405180910390fd5b60088281548110610a21577f4e487b7100000000000000000000000000000000000000000000000000000000600052603260045260246000fd5b90600052602060002001549050919050565b610a3b611335565b73ffffffffffffffffffffffffffffffffffffffff16610a59610cbb565b73ffffffffffffffffffffffffffffffffffffffff1614610aaf576040517f08c379a0000000000000000000000000000000000000000000000000000000008152600401610aa690612e4d565b60405180910390fd5b80600e9080519060200190610ac59291906123d7565b5050565b6000806002600084815260200190815260200160002060009054906101000a900473ffffffffffffffffffffffffffffffffffffffff169050600073ffffffffffffffffffffffffffffffffffffffff168173ffffffffffffffffffffffffffffffffffffffff161415610b72576040517f08c379a0000000000000000000000000000000000000000000000000000000008152600401610b6990612dcd565b60405180910390fd5b80915050919050565b60008073ffffffffffffffffffffffffffffffffffffffff168273ffffffffffffffffffffffffffffffffffffffff161415610bec576040517f08c379a0000000000000000000000000000000000000000000000000000000008152600401610be390612dad565b60405180910390fd5b600360008373ffffffffffffffffffffffffffffffffffffffff1673ffffffffffffffffffffffffffffffffffffffff168152602001908152602001600020549050919050565b610c3b611335565b73ffffffffffffffffffffffffffffffffffffffff16610c59610cbb565b73ffffffffffffffffffffffffffffffffffffffff1614610caf576040517f08c379a0000000000000000000000000000000000000000000000000000000008152600401610ca690612e4d565b60405180910390fd5b610cb960006117a8565b565b6000600b60009054906101000a900473ffffffffffffffffffffffffffffffffffffffff16905090565b606060018054610cf490613183565b80601f0160208091040260200160405190810160405280929190818152602001828054610d2090613183565b8015610d6d5780601f10610d4257610100808354040283529160200191610d6d565b820191906000526020600020905b815481529060010190602001808311610d5057829003601f168201915b5050505050905090565b610d7f611335565b73ffffffffffffffffffffffffffffffffffffffff168273ffffffffffffffffffffffffffffffffffffffff161415610ded576040517f08c379a0000000000000000000000000000000000000000000000000000000008152600401610de490612d2d565b60405180910390fd5b8060056000610dfa611335565b73ffffffffffffffffffffffffffffffffffffffff1673ffffffffffffffffffffffffffffffffffffffff16815260200190815260200160002060008473ffffffffffffffffffffffffffffffffffffffff1673ffffffffffffffffffffffffffffffffffffffff16815260200190815260200160002060006101000a81548160ff0219169083151502179055508173ffffffffffffffffffffffffffffffffffffffff16610ea7611335565b73ffffffffffffffffffffffffffffffffffffffff167f17307eab39ab6107e8899845ad3d59bd9653f200f220920489ca2b5937696c3183604051610eec9190612c50565b60405180910390a35050565b610f09610f03611335565b8361146e565b610f48576040517f08c379a0000000000000000000000000000000000000000000000000000000008152600401610f3f90612ecd565b60405180910390fd5b610f548484848461186e565b50505050565b6000600c60008373ffffffffffffffffffffffffffffffffffffffff1673ffffffffffffffffffffffffffffffffffffffff168152602001908152602001600020546003610fa89190613099565b9050919050565b6060610fba826112c9565b610ff9576040517f08c379a0000000000000000000000000000000000000000000000000000000008152600401610ff090612e8d565b60405180910390fd5b60006110036118ca565b90506000815111611023576040518060200160405280600081525061104e565b8061102d8461195c565b60405160200161103e929190612bc5565b6040516020818303038152906040525b915050919050565b600381565b6000600560008473ffffffffffffffffffffffffffffffffffffffff1673ffffffffffffffffffffffffffffffffffffffff16815260200190815260200160002060008373ffffffffffffffffffffffffffffffffffffffff1673ffffffffffffffffffffffffffffffffffffffff16815260200190815260200160002060009054906101000a900460ff16905092915050565b6110f7611335565b73ffffffffffffffffffffffffffffffffffffffff16611115610cbb565b73ffffffffffffffffffffffffffffffffffffffff161461116b576040517f08c379a000000000000000000000000000000000000000000000000000000000815260040161116290612e4d565b60405180910390fd5b600073ffffffffffffffffffffffffffffffffffffffff168173ffffffffffffffffffffffffffffffffffffffff1614156111db576040517f08c379a00000000000000000000000000000000000000000000000000000000081526004016111d290612ccd565b60405180910390fd5b6111e4816117a8565b50565b60007f80ac58cd000000000000000000000000000000000000000000000000000000007bffffffffffffffffffffffffffffffffffffffffffffffffffffffff1916827bffffffffffffffffffffffffffffffffffffffffffffffffffffffff191614806112b257507f5b5e139f000000000000000000000000000000000000000000000000000000007bffffffffffffffffffffffffffffffffffffffffffffffffffffffff1916827bffffffffffffffffffffffffffffffffffffffffffffffffffffffff1916145b806112c257506112c182611b09565b5b9050919050565b60008073ffffffffffffffffffffffffffffffffffffffff166002600084815260200190815260200160002060009054906101000a900473ffffffffffffffffffffffffffffffffffffffff1673ffffffffffffffffffffffffffffffffffffffff1614159050919050565b600033905090565b816004600083815260200190815260200160002060006101000a81548173ffffffffffffffffffffffffffffffffffffffff021916908373ffffffffffffffffffffffffffffffffffffffff160217905550808273ffffffffffffffffffffffffffffffffffffffff166113b083610ac9565b73ffffffffffffffffffffffffffffffffffffffff167f8c5be1e5ebec7d5bd14f71427d1e84f3dd0314c0f7b2291e5b200ac8c7c3b92560405160405180910390a45050565b80600c60008473ffffffffffffffffffffffffffffffffffffffff1673ffffffffffffffffffffffffffffffffffffffff16815260200190815260200160002060008282546114459190613012565b925050819055505050565b61146a828260405180602001604052806000815250611b73565b5050565b6000611479826112c9565b6114b8576040517f08c379a00000000000000000000000000000000000000000000000000000000081526004016114af90612d4d565b60405180910390fd5b60006114c383610ac9565b90508073ffffffffffffffffffffffffffffffffffffffff168473ffffffffffffffffffffffffffffffffffffffff16148061153257508373ffffffffffffffffffffffffffffffffffffffff1661151a846105a5565b73ffffffffffffffffffffffffffffffffffffffff16145b806115435750611542818561105b565b5b91505092915050565b8273ffffffffffffffffffffffffffffffffffffffff1661156c82610ac9565b73ffffffffffffffffffffffffffffffffffffffff16146115c2576040517f08c379a00000000000000000000000000000000000000000000000000000000081526004016115b990612e6d565b60405180910390fd5b600073ffffffffffffffffffffffffffffffffffffffff168273ffffffffffffffffffffffffffffffffffffffff161415611632576040517f08c379a000000000000000000000000000000000000000000000000000000000815260040161162990612d0d565b60405180910390fd5b61163d838383611bce565b61164860008261133d565b6001600360008573ffffffffffffffffffffffffffffffffffffffff1673ffffffffffffffffffffffffffffffffffffffff16815260200190815260200160002060008282546116989190613099565b925050819055506001600360008473ffffffffffffffffffffffffffffffffffffffff1673ffffffffffffffffffffffffffffffffffffffff16815260200190815260200160002060008282546116ef9190613012565b92505081905550816002600083815260200190815260200160002060006101000a81548173ffffffffffffffffffffffffffffffffffffffff021916908373ffffffffffffffffffffffffffffffffffffffff160217905550808273ffffffffffffffffffffffffffffffffffffffff168473ffffffffffffffffffffffffffffffffffffffff167fddf252ad1be2c89b69c2b068fc378daa952ba7f163c4a11628f55a4df523b3ef60405160405180910390a4505050565b6000600b60009054906101000a900473ffffffffffffffffffffffffffffffffffffffff16905081600b60006101000a81548173ffffffffffffffffffffffffffffffffffffffff021916908373ffffffffffffffffffffffffffffffffffffffff1602179055508173ffffffffffffffffffffffffffffffffffffffff168173ffffffffffffffffffffffffffffffffffffffff167f8be0079c531659141344cd1fd0a4f28419497f9722a3daafe3b4186f6b6457e060405160405180910390a35050565b61187984848461154c565b61188584848484611ce2565b6118c4576040517f08c379a00000000000000000000000000000000000000000000000000000000081526004016118bb90612cad565b60405180910390fd5b50505050565b6060600e80546118d990613183565b80601f016020809104026020016040519081016040528092919081815260200182805461190590613183565b80156119525780601f1061192757610100808354040283529160200191611952565b820191906000526020600020905b81548152906001019060200180831161193557829003601f168201915b5050505050905090565b606060008214156119a4576040518060400160405280600181526020017f30000000000000000000000000000000000000000000000000000000000000008152509050611b04565b600082905060005b600082146119d65780806119bf906131e6565b915050600a826119cf9190613068565b91506119ac565b60008167ffffffffffffffff811115611a18577f4e487b7100000000000000000000000000000000000000000000000000000000600052604160045260246000fd5b6040519080825280601f01601f191660200182016040528015611a4a5781602001600182028036833780820191505090505b5090505b60008514611afd57600182611a639190613099565b9150600a85611a72919061322f565b6030611a7e9190613012565b60f81b818381518110611aba577f4e487b7100000000000000000000000000000000000000000000000000000000600052603260045260246000fd5b60200101907effffffffffffffffffffffffffffffffffffffffffffffffffffffffffffff1916908160001a905350600a85611af69190613068565b9450611a4e565b8093505050505b919050565b60007f01ffc9a7000000000000000000000000000000000000000000000000000000007bffffffffffffffffffffffffffffffffffffffffffffffffffffffff1916827bffffffffffffffffffffffffffffffffffffffffffffffffffffffff1916149050919050565b611b7d8383611e79565b611b8a6000848484611ce2565b611bc9576040517f08c379a0000000000000000000000000000000000000000000000000000000008152600401611bc090612cad565b60405180910390fd5b505050565b611bd9838383612047565b600073ffffffffffffffffffffffffffffffffffffffff168373ffffffffffffffffffffffffffffffffffffffff161415611c1c57611c178161204c565b611c5b565b8173ffffffffffffffffffffffffffffffffffffffff168373ffffffffffffffffffffffffffffffffffffffff1614611c5a57611c598382612095565b5b5b600073ffffffffffffffffffffffffffffffffffffffff168273ffffffffffffffffffffffffffffffffffffffff161415611c9e57611c9981612202565b611cdd565b8273ffffffffffffffffffffffffffffffffffffffff168273ffffffffffffffffffffffffffffffffffffffff1614611cdc57611cdb8282612345565b5b5b505050565b6000611d038473ffffffffffffffffffffffffffffffffffffffff166123c4565b15611e6c578373ffffffffffffffffffffffffffffffffffffffff1663150b7a02611d2c611335565b8786866040518563ffffffff1660e01b8152600401611d4e9493929190612c04565b602060405180830381600087803b158015611d6857600080fd5b505af1925050508015611d9957506040513d601f19601f82011682018060405250810190611d969190612783565b60015b611e1c573d8060008114611dc9576040519150601f19603f3d011682016040523d82523d6000602084013e611dce565b606091505b50600081511415611e14576040517f08c379a0000000000000000000000000000000000000000000000000000000008152600401611e0b90612cad565b60405180910390fd5b805181602001fd5b63150b7a0260e01b7bffffffffffffffffffffffffffffffffffffffffffffffffffffffff1916817bffffffffffffffffffffffffffffffffffffffffffffffffffffffff191614915050611e71565b600190505b949350505050565b600073ffffffffffffffffffffffffffffffffffffffff168273ffffffffffffffffffffffffffffffffffffffff161415611ee9576040517f08c379a0000000000000000000000000000000000000000000000000000000008152600401611ee090612e0d565b60405180910390fd5b611ef2816112c9565b15611f32576040517f08c379a0000000000000000000000000000000000000000000000000000000008152600401611f2990612ced565b60405180910390fd5b611f3e60008383611bce565b6001600360008473ffffffffffffffffffffffffffffffffffffffff1673ffffffffffffffffffffffffffffffffffffffff1681526020019081526020016000206000828254611f8e9190613012565b92505081905550816002600083815260200190815260200160002060006101000a81548173ffffffffffffffffffffffffffffffffffffffff021916908373ffffffffffffffffffffffffffffffffffffffff160217905550808273ffffffffffffffffffffffffffffffffffffffff16600073ffffffffffffffffffffffffffffffffffffffff167fddf252ad1be2c89b69c2b068fc378daa952ba7f163c4a11628f55a4df523b3ef60405160405180910390a45050565b505050565b6008805490506009600083815260200190815260200160002081905550600881908060018154018082558091505060019003906000526020600020016000909190919091505550565b600060016120a284610b7b565b6120ac9190613099565b9050600060076000848152602001908152602001600020549050818114612191576000600660008673ffffffffffffffffffffffffffffffffffffffff1673ffffffffffffffffffffffffffffffffffffffff168152602001908152602001600020600084815260200190815260200160002054905080600660008773ffffffffffffffffffffffffffffffffffffffff1673ffffffffffffffffffffffffffffffffffffffff168152602001908152602001600020600084815260200190815260200160002081905550816007600083815260200190815260200160002081905550505b6007600084815260200190815260200160002060009055600660008573ffffffffffffffffffffffffffffffffffffffff1673ffffffffffffffffffffffffffffffffffffffff16815260200190815260200160002060008381526020019081526020016000206000905550505050565b600060016008805490506122169190613099565b905060006009600084815260200190815260200160002054905060006008838154811061226c577f4e487b7100000000000000000000000000000000000000000000000000000000600052603260045260246000fd5b9060005260206000200154905080600883815481106122b4577f4e487b7100000000000000000000000000000000000000000000000000000000600052603260045260246000fd5b906000526020600020018190555081600960008381526020019081526020016000208190555060096000858152602001908152602001600020600090556008805480612329577f4e487b7100000000000000000000000000000000000000000000000000000000600052603160045260246000fd5b6001900381819060005260206000200160009055905550505050565b600061235083610b7b565b905081600660008573ffffffffffffffffffffffffffffffffffffffff1673ffffffffffffffffffffffffffffffffffffffff168152602001908152602001600020600083815260200190815260200160002081905550806007600084815260200190815260200160002081905550505050565b600080823b905060008111915050919050565b8280546123e390613183565b90600052602060002090601f016020900481019282612405576000855561244c565b82601f1061241e57805160ff191683800117855561244c565b8280016001018555821561244c579182015b8281111561244b578251825591602001919060010190612430565b5b509050612459919061245d565b5090565b5b8082111561247657600081600090555060010161245e565b5090565b600061248d61248884612f6d565b612f48565b9050828152602081018484840111156124a557600080fd5b6124b0848285613141565b509392505050565b60006124cb6124c684612f9e565b612f48565b9050828152602081018484840111156124e357600080fd5b6124ee848285613141565b509392505050565b6000813590506125058161389e565b92915050565b60008135905061251a816138b5565b92915050565b60008135905061252f816138cc565b92915050565b600081519050612544816138cc565b92915050565b600082601f83011261255b57600080fd5b813561256b84826020860161247a565b91505092915050565b600082601f83011261258557600080fd5b81356125958482602086016124b8565b91505092915050565b6000813590506125ad816138e3565b92915050565b6000602082840312156125c557600080fd5b60006125d3848285016124f6565b91505092915050565b600080604083850312156125ef57600080fd5b60006125fd858286016124f6565b925050602061260e858286016124f6565b9150509250929050565b60008060006060848603121561262d57600080fd5b600061263b868287016124f6565b935050602061264c868287016124f6565b925050604061265d8682870161259e565b9150509250925092565b6000806000806080858703121561267d57600080fd5b600061268b878288016124f6565b945050602061269c878288016124f6565b93505060406126ad8782880161259e565b925050606085013567ffffffffffffffff8111156126ca57600080fd5b6126d68782880161254a565b91505092959194509250565b600080604083850312156126f557600080fd5b6000612703858286016124f6565b92505060206127148582860161250b565b9150509250929050565b6000806040838503121561273157600080fd5b600061273f858286016124f6565b92505060206127508582860161259e565b9150509250929050565b60006020828403121561276c57600080fd5b600061277a84828501612520565b91505092915050565b60006020828403121561279557600080fd5b60006127a384828501612535565b91505092915050565b6000602082840312156127be57600080fd5b600082013567ffffffffffffffff8111156127d857600080fd5b6127e484828501612574565b91505092915050565b6000602082840312156127ff57600080fd5b600061280d8482850161259e565b91505092915050565b61281f816130cd565b82525050565b61282e816130df565b82525050565b600061283f82612fcf565b6128498185612fe5565b9350612859818560208601613150565b6128628161331c565b840191505092915050565b600061287882612fda565b6128828185612ff6565b9350612892818560208601613150565b61289b8161331c565b840191505092915050565b60006128b182612fda565b6128bb8185613007565b93506128cb818560208601613150565b80840191505092915050565b60006128e4602b83612ff6565b91506128ef8261332d565b604082019050919050565b6000612907603283612ff6565b91506129128261337c565b604082019050919050565b600061292a602683612ff6565b9150612935826133cb565b604082019050919050565b600061294d601c83612ff6565b91506129588261341a565b602082019050919050565b6000612970602483612ff6565b915061297b82613443565b604082019050919050565b6000612993601983612ff6565b915061299e82613492565b602082019050919050565b60006129b6602c83612ff6565b91506129c1826134bb565b604082019050919050565b60006129d9601683612ff6565b91506129e48261350a565b602082019050919050565b60006129fc603883612ff6565b9150612a0782613533565b604082019050919050565b6000612a1f602a83612ff6565b9150612a2a82613582565b604082019050919050565b6000612a42602983612ff6565b9150612a4d826135d1565b604082019050919050565b6000612a65601283612ff6565b9150612a7082613620565b602082019050919050565b6000612a88602083612ff6565b9150612a9382613649565b602082019050919050565b6000612aab602c83612ff6565b9150612ab682613672565b604082019050919050565b6000612ace602083612ff6565b9150612ad9826136c1565b602082019050919050565b6000612af1602983612ff6565b9150612afc826136ea565b604082019050919050565b6000612b14602f83612ff6565b9150612b1f82613739565b604082019050919050565b6000612b37602183612ff6565b9150612b4282613788565b604082019050919050565b6000612b5a603183612ff6565b9150612b65826137d7565b604082019050919050565b6000612b7d602c83612ff6565b9150612b8882613826565b604082019050919050565b6000612ba0601f83612ff6565b9150612bab82613875565b602082019050919050565b612bbf81613137565b82525050565b6000612bd182856128a6565b9150612bdd82846128a6565b91508190509392505050565b6000602082019050612bfe6000830184612816565b92915050565b6000608082019050612c196000830187612816565b612c266020830186612816565b612c336040830185612bb6565b8181036060830152612c458184612834565b905095945050505050565b6000602082019050612c656000830184612825565b92915050565b60006020820190508181036000830152612c85818461286d565b905092915050565b60006020820190508181036000830152612ca6816128d7565b9050919050565b60006020820190508181036000830152612cc6816128fa565b9050919050565b60006020820190508181036000830152612ce68161291d565b9050919050565b60006020820190508181036000830152612d0681612940565b9050919050565b60006020820190508181036000830152612d2681612963565b9050919050565b60006020820190508181036000830152612d4681612986565b9050919050565b60006020820190508181036000830152612d66816129a9565b9050919050565b60006020820190508181036000830152612d86816129cc565b9050919050565b60006020820190508181036000830152612da6816129ef565b9050919050565b60006020820190508181036000830152612dc681612a12565b9050919050565b60006020820190508181036000830152612de681612a35565b9050919050565b60006020820190508181036000830152612e0681612a58565b9050919050565b60006020820190508181036000830152612e2681612a7b565b9050919050565b60006020820190508181036000830152612e4681612a9e565b9050919050565b60006020820190508181036000830152612e6681612ac1565b9050919050565b60006020820190508181036000830152612e8681612ae4565b9050919050565b60006020820190508181036000830152612ea681612b07565b9050919050565b60006020820190508181036000830152612ec681612b2a565b9050919050565b60006020820190508181036000830152612ee681612b4d565b9050919050565b60006020820190508181036000830152612f0681612b70565b9050919050565b60006020820190508181036000830152612f2681612b93565b9050919050565b6000602082019050612f426000830184612bb6565b92915050565b6000612f52612f63565b9050612f5e82826131b5565b919050565b6000604051905090565b600067ffffffffffffffff821115612f8857612f876132ed565b5b612f918261331c565b9050602081019050919050565b600067ffffffffffffffff821115612fb957612fb86132ed565b5b612fc28261331c565b9050602081019050919050565b600081519050919050565b600081519050919050565b600082825260208201905092915050565b600082825260208201905092915050565b600081905092915050565b600061301d82613137565b915061302883613137565b9250827fffffffffffffffffffffffffffffffffffffffffffffffffffffffffffffffff0382111561305d5761305c613260565b5b828201905092915050565b600061307382613137565b915061307e83613137565b92508261308e5761308d61328f565b5b828204905092915050565b60006130a482613137565b91506130af83613137565b9250828210156130c2576130c1613260565b5b828203905092915050565b60006130d882613117565b9050919050565b60008115159050919050565b60007fffffffff0000000000000000000000000000000000000000000000000000000082169050919050565b600073ffffffffffffffffffffffffffffffffffffffff82169050919050565b6000819050919050565b82818337600083830152505050565b60005b8381101561316e578082015181840152602081019050613153565b8381111561317d576000848401525b50505050565b6000600282049050600182168061319b57607f821691505b602082108114156131af576131ae6132be565b5b50919050565b6131be8261331c565b810181811067ffffffffffffffff821117156131dd576131dc6132ed565b5b80604052505050565b60006131f182613137565b91507fffffffffffffffffffffffffffffffffffffffffffffffffffffffffffffffff82141561322457613223613260565b5b600182019050919050565b600061323a82613137565b915061324583613137565b9250826132555761325461328f565b5b828206905092915050565b7f4e487b7100000000000000000000000000000000000000000000000000000000600052601160045260246000fd5b7f4e487b7100000000000000000000000000000000000000000000000000000000600052601260045260246000fd5b7f4e487b7100000000000000000000000000000000000000000000000000000000600052602260045260246000fd5b7f4e487b7100000000000000000000000000000000000000000000000000000000600052604160045260246000fd5b6000601f19601f8301169050919050565b7f455243373231456e756d657261626c653a206f776e657220696e646578206f7560008201527f74206f6620626f756e6473000000000000000000000000000000000000000000602082015250565b7f4552433732313a207472616e7366657220746f206e6f6e20455243373231526560008201527f63656976657220696d706c656d656e7465720000000000000000000000000000602082015250565b7f4f776e61626c653a206e6577206f776e657220697320746865207a65726f206160008201527f6464726573730000000000000000000000000000000000000000000000000000602082015250565b7f4552433732313a20746f6b656e20616c7265616479206d696e74656400000000600082015250565b7f4552433732313a207472616e7366657220746f20746865207a65726f2061646460008201527f7265737300000000000000000000000000000000000000000000000000000000602082015250565b7f4552433732313a20617070726f766520746f2063616c6c657200000000000000600082015250565b7f4552433732313a206f70657261746f7220717565727920666f72206e6f6e657860008201527f697374656e7420746f6b656e0000000000000000000000000000000000000000602082015250565b7f4d696e74696e67206c696d697420657863656564656400000000000000000000600082015250565b7f4552433732313a20617070726f76652063616c6c6572206973206e6f74206f7760008201527f6e6572206e6f7220617070726f76656420666f7220616c6c0000000000000000602082015250565b7f4552433732313a2062616c616e636520717565727920666f7220746865207a6560008201527f726f206164647265737300000000000000000000000000000000000000000000602082015250565b7f4552433732313a206f776e657220717565727920666f72206e6f6e657869737460008201527f656e7420746f6b656e0000000000000000000000000000000000000000000000602082015250565b7f45786365656473206d617820737570706c790000000000000000000000000000600082015250565b7f4552433732313a206d696e7420746f20746865207a65726f2061646472657373600082015250565b7f4552433732313a20617070726f76656420717565727920666f72206e6f6e657860008201527f697374656e7420746f6b656e0000000000000000000000000000000000000000602082015250565b7f4f776e61626c653a2063616c6c6572206973206e6f7420746865206f776e6572600082015250565b7f4552433732313a207472616e73666572206f6620746f6b656e2074686174206960008201527f73206e6f74206f776e0000000000000000000000000000000000000000000000602082015250565b7f4552433732314d657461646174613a2055524920717565727920666f72206e6f60008201527f6e6578697374656e7420746f6b656e0000000000000000000000000000000000602082015250565b7f4552433732313a20617070726f76616c20746f2063757272656e74206f776e6560008201527f7200000000000000000000000000000000000000000000000000000000000000602082015250565b7f4552433732313a207472616e736665722063616c6c6572206973206e6f74206f60008201527f776e6572206e6f7220617070726f766564000000000000000000000000000000602082015250565b7f455243373231456e756d657261626c653a20676c6f62616c20696e646578206f60008201527f7574206f6620626f756e64730000000000000000000000000000000000000000602082015250565b7f5265656e7472616e637947756172643a207265656e7472616e742063616c6c00600082015250565b6138a7816130cd565b81146138b257600080fd5b50565b6138be816130df565b81146138c957600080fd5b50565b6138d5816130eb565b81146138e057600080fd5b50565b6138ec81613137565b81146138f757600080fd5b5056fea2646970667358221220424126d3bea03250b8d02ec97381e7151b4cbcd5a177390285d3e47cc1fd518464736f6c63430008040033",
  "devdoc": {
    "kind": "dev",
    "methods": {
      "approve(address,uint256)": {
        "details": "See {IERC721-approve}."
      },
      "balanceOf(address)": {
        "details": "See {IERC721-balanceOf}."
      },
      "getApproved(uint256)": {
        "details": "See {IERC721-getApproved}."
      },
      "isApprovedForAll(address,address)": {
        "details": "See {IERC721-isApprovedForAll}."
      },
      "name()": {
        "details": "See {IERC721Metadata-name}."
      },
      "owner()": {
        "details": "Returns the address of the current owner."
      },
      "ownerOf(uint256)": {
        "details": "See {IERC721-ownerOf}."
      },
      "renounceOwnership()": {
        "details": "Leaves the contract without owner. It will not be possible to call `onlyOwner` functions anymore. Can only be called by the current owner. NOTE: Renouncing ownership will leave the contract without an owner, thereby removing any functionality that is only available to the owner."
      },
      "safeTransferFrom(address,address,uint256)": {
        "details": "See {IERC721-safeTransferFrom}."
      },
      "safeTransferFrom(address,address,uint256,bytes)": {
        "details": "See {IERC721-safeTransferFrom}."
      },
      "setApprovalForAll(address,bool)": {
        "details": "See {IERC721-setApprovalForAll}."
      },
      "supportsInterface(bytes4)": {
        "details": "See {IERC165-supportsInterface}."
      },
      "symbol()": {
        "details": "See {IERC721Metadata-symbol}."
      },
      "tokenByIndex(uint256)": {
        "details": "See {IERC721Enumerable-tokenByIndex}."
      },
      "tokenOfOwnerByIndex(address,uint256)": {
        "details": "See {IERC721Enumerable-tokenOfOwnerByIndex}."
      },
      "tokenURI(uint256)": {
        "details": "See {IERC721Metadata-tokenURI}."
      },
      "totalSupply()": {
        "details": "See {IERC721Enumerable-totalSupply}."
      },
      "transferFrom(address,address,uint256)": {
        "details": "See {IERC721-transferFrom}."
      },
      "transferOwnership(address)": {
        "details": "Transfers ownership of the contract to a new account (`newOwner`). Can only be called by the current owner."
      }
    },
    "version": 1
  },
  "solcInputHash": "aad86ed91ff6fabb404a9c5d6d9a1389",
  "storageLayout": {
    "storage": [
      {
        "astId": 169,
        "contract": "contracts/0xKiyo/src/0xKiyo.sol:KiyoSanBirthday",
        "label": "_name",
        "offset": 0,
        "slot": "0",
        "type": "t_string_storage"
      },
      {
        "astId": 171,
        "contract": "contracts/0xKiyo/src/0xKiyo.sol:KiyoSanBirthday",
        "label": "_symbol",
        "offset": 0,
        "slot": "1",
        "type": "t_string_storage"
      },
      {
        "astId": 175,
        "contract": "contracts/0xKiyo/src/0xKiyo.sol:KiyoSanBirthday",
        "label": "_owners",
        "offset": 0,
        "slot": "2",
        "type": "t_mapping(t_uint256,t_address)"
      },
      {
        "astId": 179,
        "contract": "contracts/0xKiyo/src/0xKiyo.sol:KiyoSanBirthday",
        "label": "_balances",
        "offset": 0,
        "slot": "3",
        "type": "t_mapping(t_address,t_uint256)"
      },
      {
        "astId": 183,
        "contract": "contracts/0xKiyo/src/0xKiyo.sol:KiyoSanBirthday",
        "label": "_tokenApprovals",
        "offset": 0,
        "slot": "4",
        "type": "t_mapping(t_uint256,t_address)"
      },
      {
        "astId": 189,
        "contract": "contracts/0xKiyo/src/0xKiyo.sol:KiyoSanBirthday",
        "label": "_operatorApprovals",
        "offset": 0,
        "slot": "5",
        "type": "t_mapping(t_address,t_mapping(t_address,t_bool))"
      },
      {
        "astId": 1108,
        "contract": "contracts/0xKiyo/src/0xKiyo.sol:KiyoSanBirthday",
        "label": "_ownedTokens",
        "offset": 0,
        "slot": "6",
        "type": "t_mapping(t_address,t_mapping(t_uint256,t_uint256))"
      },
      {
        "astId": 1112,
        "contract": "contracts/0xKiyo/src/0xKiyo.sol:KiyoSanBirthday",
        "label": "_ownedTokensIndex",
        "offset": 0,
        "slot": "7",
        "type": "t_mapping(t_uint256,t_uint256)"
      },
      {
        "astId": 1115,
        "contract": "contracts/0xKiyo/src/0xKiyo.sol:KiyoSanBirthday",
        "label": "_allTokens",
        "offset": 0,
        "slot": "8",
        "type": "t_array(t_uint256)dyn_storage"
      },
      {
        "astId": 1119,
        "contract": "contracts/0xKiyo/src/0xKiyo.sol:KiyoSanBirthday",
        "label": "_allTokensIndex",
        "offset": 0,
        "slot": "9",
        "type": "t_mapping(t_uint256,t_uint256)"
      },
      {
        "astId": 114,
        "contract": "contracts/0xKiyo/src/0xKiyo.sol:KiyoSanBirthday",
        "label": "_status",
        "offset": 0,
        "slot": "10",
        "type": "t_uint256"
      },
      {
        "astId": 7,
        "contract": "contracts/0xKiyo/src/0xKiyo.sol:KiyoSanBirthday",
        "label": "_owner",
        "offset": 0,
        "slot": "11",
        "type": "t_address"
      },
      {
        "astId": 2159,
        "contract": "contracts/0xKiyo/src/0xKiyo.sol:KiyoSanBirthday",
        "label": "mintCountMap",
        "offset": 0,
        "slot": "12",
        "type": "t_mapping(t_address,t_uint256)"
      },
      {
        "astId": 2163,
        "contract": "contracts/0xKiyo/src/0xKiyo.sol:KiyoSanBirthday",
        "label": "allowedMintCountMap",
        "offset": 0,
        "slot": "13",
        "type": "t_mapping(t_address,t_uint256)"
      },
      {
        "astId": 2236,
        "contract": "contracts/0xKiyo/src/0xKiyo.sol:KiyoSanBirthday",
        "label": "customBaseURI",
        "offset": 0,
        "slot": "14",
        "type": "t_string_storage"
      }
    ],
    "types": {
      "t_address": {
        "encoding": "inplace",
        "label": "address",
        "numberOfBytes": "20"
      },
      "t_array(t_uint256)dyn_storage": {
        "base": "t_uint256",
        "encoding": "dynamic_array",
        "label": "uint256[]",
        "numberOfBytes": "32"
      },
      "t_bool": {
        "encoding": "inplace",
        "label": "bool",
        "numberOfBytes": "1"
      },
      "t_mapping(t_address,t_bool)": {
        "encoding": "mapping",
        "key": "t_address",
        "label": "mapping(address => bool)",
        "numberOfBytes": "32",
        "value": "t_bool"
      },
      "t_mapping(t_address,t_mapping(t_address,t_bool))": {
        "encoding": "mapping",
        "key": "t_address",
        "label": "mapping(address => mapping(address => bool))",
        "numberOfBytes": "32",
        "value": "t_mapping(t_address,t_bool)"
      },
      "t_mapping(t_address,t_mapping(t_uint256,t_uint256))": {
        "encoding": "mapping",
        "key": "t_address",
        "label": "mapping(address => mapping(uint256 => uint256))",
        "numberOfBytes": "32",
        "value": "t_mapping(t_uint256,t_uint256)"
      },
      "t_mapping(t_address,t_uint256)": {
        "encoding": "mapping",
        "key": "t_address",
        "label": "mapping(address => uint256)",
        "numberOfBytes": "32",
        "value": "t_uint256"
      },
      "t_mapping(t_uint256,t_address)": {
        "encoding": "mapping",
        "key": "t_uint256",
        "label": "mapping(uint256 => address)",
        "numberOfBytes": "32",
        "value": "t_address"
      },
      "t_mapping(t_uint256,t_uint256)": {
        "encoding": "mapping",
        "key": "t_uint256",
        "label": "mapping(uint256 => uint256)",
        "numberOfBytes": "32",
        "value": "t_uint256"
      },
      "t_string_storage": {
        "encoding": "bytes",
        "label": "string",
        "numberOfBytes": "32"
      },
      "t_uint256": {
        "encoding": "inplace",
        "label": "uint256",
        "numberOfBytes": "32"
      }
    }
  },
  "transactionHash": "0x854af81ef5b94187b52ff0b6f5796408cd12ca79dc3fbb157a3d8fc413dc0f08",
  "userdoc": {
    "kind": "user",
    "methods": {},
    "version": 1
  }
}