{
  "abi": [
    {
      "inputs": [
        {
          "internalType": "string",
          "name": "customBaseURI_",
          "type": "string"
        }
      ],
      "stateMutability": "nonpayable",
      "type": "constructor"
    },
    {
      "anonymous": false,
      "inputs": [
        {
          "indexed": true,
          "internalType": "address",
          "name": "owner",
          "type": "address"
        },
        {
          "indexed": true,
          "internalType": "address",
          "name": "approved",
          "type": "address"
        },
        {
          "indexed": true,
          "internalType": "uint256",
          "name": "tokenId",
          "type": "uint256"
        }
      ],
      "name": "Approval",
      "type": "event"
    },
    {
      "anonymous": false,
      "inputs": [
        {
          "indexed": true,
          "internalType": "address",
          "name": "owner",
          "type": "address"
        },
        {
          "indexed": true,
          "internalType": "address",
          "name": "operator",
          "type": "address"
        },
        {
          "indexed": false,
          "internalType": "bool",
          "name": "approved",
          "type": "bool"
        }
      ],
      "name": "ApprovalForAll",
      "type": "event"
    },
    {
      "anonymous": false,
      "inputs": [
        {
          "indexed": true,
          "internalType": "address",
          "name": "previousOwner",
          "type": "address"
        },
        {
          "indexed": true,
          "internalType": "address",
          "name": "newOwner",
          "type": "address"
        }
      ],
      "name": "OwnershipTransferred",
      "type": "event"
    },
    {
      "anonymous": false,
      "inputs": [
        {
          "indexed": true,
          "internalType": "address",
          "name": "from",
          "type": "address"
        },
        {
          "indexed": true,
          "internalType": "address",
          "name": "to",
          "type": "address"
        },
        {
          "indexed": true,
          "internalType": "uint256",
          "name": "tokenId",
          "type": "uint256"
        }
      ],
      "name": "Transfer",
      "type": "event"
    },
    {
      "inputs": [],
      "name": "MAX_SUPPLY",
      "outputs": [
        {
          "internalType": "uint256",
          "name": "",
          "type": "uint256"
        }
      ],
      "stateMutability": "view",
      "type": "function"
    },
    {
      "inputs": [
        {
          "internalType": "address",
          "name": "to",
          "type": "address"
        },
        {
          "internalType": "uint256",
          "name": "tokenId",
          "type": "uint256"
        }
      ],
      "name": "approve",
      "outputs": [],
      "stateMutability": "nonpayable",
      "type": "function"
    },
    {
      "inputs": [
        {
          "internalType": "address",
          "name": "owner",
          "type": "address"
        }
      ],
      "name": "balanceOf",
      "outputs": [
        {
          "internalType": "uint256",
          "name": "",
          "type": "uint256"
        }
      ],
      "stateMutability": "view",
      "type": "function"
    },
    {
      "inputs": [
        {
          "internalType": "uint256",
          "name": "tokenId",
          "type": "uint256"
        }
      ],
      "name": "getApproved",
      "outputs": [
        {
          "internalType": "address",
          "name": "",
          "type": "address"
        }
      ],
      "stateMutability": "view",
      "type": "function"
    },
    {
      "inputs": [
        {
          "internalType": "address",
          "name": "owner",
          "type": "address"
        },
        {
          "internalType": "address",
          "name": "operator",
          "type": "address"
        }
      ],
      "name": "isApprovedForAll",
      "outputs": [
        {
          "internalType": "bool",
          "name": "",
          "type": "bool"
        }
      ],
      "stateMutability": "view",
      "type": "function"
    },
    {
      "inputs": [],
      "name": "mint",
      "outputs": [],
      "stateMutability": "nonpayable",
      "type": "function"
    },
    {
      "inputs": [],
      "name": "name",
      "outputs": [
        {
          "internalType": "string",
          "name": "",
          "type": "string"
        }
      ],
      "stateMutability": "view",
      "type": "function"
    },
    {
      "inputs": [],
      "name": "owner",
      "outputs": [
        {
          "internalType": "address",
          "name": "",
          "type": "address"
        }
      ],
      "stateMutability": "view",
      "type": "function"
    },
    {
      "inputs": [
        {
          "internalType": "uint256",
          "name": "tokenId",
          "type": "uint256"
        }
      ],
      "name": "ownerOf",
      "outputs": [
        {
          "internalType": "address",
          "name": "",
          "type": "address"
        }
      ],
      "stateMutability": "view",
      "type": "function"
    },
    {
      "inputs": [],
      "name": "renounceOwnership",
      "outputs": [],
      "stateMutability": "nonpayable",
      "type": "function"
    },
    {
      "inputs": [
        {
          "internalType": "address",
          "name": "from",
          "type": "address"
        },
        {
          "internalType": "address",
          "name": "to",
          "type": "address"
        },
        {
          "internalType": "uint256",
          "name": "tokenId",
          "type": "uint256"
        }
      ],
      "name": "safeTransferFrom",
      "outputs": [],
      "stateMutability": "nonpayable",
      "type": "function"
    },
    {
      "inputs": [
        {
          "internalType": "address",
          "name": "from",
          "type": "address"
        },
        {
          "internalType": "address",
          "name": "to",
          "type": "address"
        },
        {
          "internalType": "uint256",
          "name": "tokenId",
          "type": "uint256"
        },
        {
          "internalType": "bytes",
          "name": "_data",
          "type": "bytes"
        }
      ],
      "name": "safeTransferFrom",
      "outputs": [],
      "stateMutability": "nonpayable",
      "type": "function"
    },
    {
      "inputs": [
        {
          "internalType": "address",
          "name": "operator",
          "type": "address"
        },
        {
          "internalType": "bool",
          "name": "approved",
          "type": "bool"
        }
      ],
      "name": "setApprovalForAll",
      "outputs": [],
      "stateMutability": "nonpayable",
      "type": "function"
    },
    {
      "inputs": [
        {
          "internalType": "string",
          "name": "customBaseURI_",
          "type": "string"
        }
      ],
      "name": "setBaseURI",
      "outputs": [],
      "stateMutability": "nonpayable",
      "type": "function"
    },
    {
      "inputs": [
        {
          "internalType": "bytes4",
          "name": "interfaceId",
          "type": "bytes4"
        }
      ],
      "name": "supportsInterface",
      "outputs": [
        {
          "internalType": "bool",
          "name": "",
          "type": "bool"
        }
      ],
      "stateMutability": "view",
      "type": "function"
    },
    {
      "inputs": [],
      "name": "symbol",
      "outputs": [
        {
          "internalType": "string",
          "name": "",
          "type": "string"
        }
      ],
      "stateMutability": "view",
      "type": "function"
    },
    {
      "inputs": [
        {
          "internalType": "uint256",
          "name": "index",
          "type": "uint256"
        }
      ],
      "name": "tokenByIndex",
      "outputs": [
        {
          "internalType": "uint256",
          "name": "",
          "type": "uint256"
        }
      ],
      "stateMutability": "view",
      "type": "function"
    },
    {
      "inputs": [
        {
          "internalType": "address",
          "name": "owner",
          "type": "address"
        },
        {
          "internalType": "uint256",
          "name": "index",
          "type": "uint256"
        }
      ],
      "name": "tokenOfOwnerByIndex",
      "outputs": [
        {
          "internalType": "uint256",
          "name": "",
          "type": "uint256"
        }
      ],
      "stateMutability": "view",
      "type": "function"
    },
    {
      "inputs": [
        {
          "internalType": "uint256",
          "name": "tokenId",
          "type": "uint256"
        }
      ],
      "name": "tokenURI",
      "outputs": [
        {
          "internalType": "string",
          "name": "",
          "type": "string"
        }
      ],
      "stateMutability": "view",
      "type": "function"
    },
    {
      "inputs": [],
      "name": "totalSupply",
      "outputs": [
        {
          "internalType": "uint256",
          "name": "",
          "type": "uint256"
        }
      ],
      "stateMutability": "view",
      "type": "function"
    },
    {
      "inputs": [
        {
          "internalType": "address",
          "name": "from",
          "type": "address"
        },
        {
          "internalType": "address",
          "name": "to",
          "type": "address"
        },
        {
          "internalType": "uint256",
          "name": "tokenId",
          "type": "uint256"
        }
      ],
      "name": "transferFrom",
      "outputs": [],
      "stateMutability": "nonpayable",
      "type": "function"
    },
    {
      "inputs": [
        {
          "internalType": "address",
          "name": "newOwner",
          "type": "address"
        }
      ],
      "name": "transferOwnership",
      "outputs": [],
      "stateMutability": "nonpayable",
      "type": "function"
    }
  ],
  "address": "0xB183f56aBf930459B204162c1746285F52106F91",
  "args": [
    "https://0xkiyo.xyz/metadata/"
  ],
  "bytecode": "0x60806040523480156200001157600080fd5b5060405162003c1738038062003c1783398181016040528101906200003791906200030f565b6040518060400160405280600f81526020017f4b69796f53616e426972746864617900000000000000000000000000000000008152506040518060400160405280600681526020017f30784b69796f00000000000000000000000000000000000000000000000000008152508160009080519060200190620000bb929190620001ed565b508060019080519060200190620000d4929190620001ed565b5050506001600a81905550620000ff620000f36200011f60201b60201c565b6200012760201b60201c565b80600c908051906020019062000117929190620001ed565b5050620004c4565b600033905090565b6000600b60009054906101000a900473ffffffffffffffffffffffffffffffffffffffff16905081600b60006101000a81548173ffffffffffffffffffffffffffffffffffffffff021916908373ffffffffffffffffffffffffffffffffffffffff1602179055508173ffffffffffffffffffffffffffffffffffffffff168173ffffffffffffffffffffffffffffffffffffffff167f8be0079c531659141344cd1fd0a4f28419497f9722a3daafe3b4186f6b6457e060405160405180910390a35050565b828054620001fb90620003e9565b90600052602060002090601f0160209004810192826200021f57600085556200026b565b82601f106200023a57805160ff19168380011785556200026b565b828001600101855582156200026b579182015b828111156200026a5782518255916020019190600101906200024d565b5b5090506200027a91906200027e565b5090565b5b80821115620002995760008160009055506001016200027f565b5090565b6000620002b4620002ae846200037d565b62000354565b905082815260208101848484011115620002cd57600080fd5b620002da848285620003b3565b509392505050565b600082601f830112620002f457600080fd5b8151620003068482602086016200029d565b91505092915050565b6000602082840312156200032257600080fd5b600082015167ffffffffffffffff8111156200033d57600080fd5b6200034b84828501620002e2565b91505092915050565b60006200036062000373565b90506200036e82826200041f565b919050565b6000604051905090565b600067ffffffffffffffff8211156200039b576200039a62000484565b5b620003a682620004b3565b9050602081019050919050565b60005b83811015620003d3578082015181840152602081019050620003b6565b83811115620003e3576000848401525b50505050565b600060028204905060018216806200040257607f821691505b6020821081141562000419576200041862000455565b5b50919050565b6200042a82620004b3565b810181811067ffffffffffffffff821117156200044c576200044b62000484565b5b80604052505050565b7f4e487b7100000000000000000000000000000000000000000000000000000000600052602260045260246000fd5b7f4e487b7100000000000000000000000000000000000000000000000000000000600052604160045260246000fd5b6000601f19601f8301169050919050565b61374380620004d46000396000f3fe608060405234801561001057600080fd5b50600436106101425760003560e01c806355f804b3116100b857806395d89b411161007c57806395d89b4114610363578063a22cb46514610381578063b88d4fde1461039d578063c87b56dd146103b9578063e985e9c5146103e9578063f2fde38b1461041957610142565b806355f804b3146102bf5780636352211e146102db57806370a082311461030b578063715018a61461033b5780638da5cb5b1461034557610142565b806318160ddd1161010a57806318160ddd146101eb57806323b872dd146102095780632f745c591461022557806332cb6b0c1461025557806342842e0e146102735780634f6ccce71461028f57610142565b806301ffc9a71461014757806306fdde0314610177578063081812fc14610195578063095ea7b3146101c55780631249c58b146101e1575b600080fd5b610161600480360381019061015c91906125d9565b610435565b60405161016e9190612aac565b60405180910390f35b61017f6104af565b60405161018c9190612ac7565b60405180910390f35b6101af60048036038101906101aa919061266c565b610541565b6040516101bc9190612a45565b60405180910390f35b6101df60048036038101906101da919061259d565b6105c6565b005b6101e96106de565b005b6101f3610798565b6040516102009190612d69565b60405180910390f35b610223600480360381019061021e9190612497565b6107a5565b005b61023f600480360381019061023a919061259d565b610805565b60405161024c9190612d69565b60405180910390f35b61025d6108aa565b60405161026a9190612d69565b60405180910390f35b61028d60048036038101906102889190612497565b6108af565b005b6102a960048036038101906102a4919061266c565b6108cf565b6040516102b69190612d69565b60405180910390f35b6102d960048036038101906102d4919061262b565b610966565b005b6102f560048036038101906102f0919061266c565b6109fc565b6040516103029190612a45565b60405180910390f35b61032560048036038101906103209190612432565b610aae565b6040516103329190612d69565b60405180910390f35b610343610b66565b005b61034d610bee565b60405161035a9190612a45565b60405180910390f35b61036b610c18565b6040516103789190612ac7565b60405180910390f35b61039b60048036038101906103969190612561565b610caa565b005b6103b760048036038101906103b291906124e6565b610e2b565b005b6103d360048036038101906103ce919061266c565b610e8d565b6040516103e09190612ac7565b60405180910390f35b61040360048036038101906103fe919061245b565b610f34565b6040516104109190612aac565b60405180910390f35b610433600480360381019061042e9190612432565b610fc8565b005b60007f780e9d63000000000000000000000000000000000000000000000000000000007bffffffffffffffffffffffffffffffffffffffffffffffffffffffff1916827bffffffffffffffffffffffffffffffffffffffffffffffffffffffff191614806104a857506104a7826110c0565b5b9050919050565b6060600080546104be90612fbf565b80601f01602080910402602001604051908101604052809291908181526020018280546104ea90612fbf565b80156105375780601f1061050c57610100808354040283529160200191610537565b820191906000526020600020905b81548152906001019060200180831161051a57829003601f168201915b5050505050905090565b600061054c826111a2565b61058b576040517f08c379a000000000000000000000000000000000000000000000000000000000815260040161058290612c69565b60405180910390fd5b6004600083815260200190815260200160002060009054906101000a900473ffffffffffffffffffffffffffffffffffffffff169050919050565b60006105d1826109fc565b90508073ffffffffffffffffffffffffffffffffffffffff168373ffffffffffffffffffffffffffffffffffffffff161415610642576040517f08c379a000000000000000000000000000000000000000000000000000000000815260040161063990612ce9565b60405180910390fd5b8073ffffffffffffffffffffffffffffffffffffffff1661066161120e565b73ffffffffffffffffffffffffffffffffffffffff161480610690575061068f8161068a61120e565b610f34565b5b6106cf576040517f08c379a00000000000000000000000000000000000000000000000000000000081526004016106c690612bc9565b60405180910390fd5b6106d98383611216565b505050565b6002600a541415610724576040517f08c379a000000000000000000000000000000000000000000000000000000000815260040161071b90612d49565b60405180910390fd5b6002600a81905550601b610736610798565b10610776576040517f08c379a000000000000000000000000000000000000000000000000000000000815260040161076d90612c29565b60405180910390fd5b61078e61078161120e565b610789610798565b6112cf565b6001600a81905550565b6000600880549050905090565b6107b66107b061120e565b826112ed565b6107f5576040517f08c379a00000000000000000000000000000000000000000000000000000000081526004016107ec90612d09565b60405180910390fd5b6108008383836113cb565b505050565b600061081083610aae565b8210610851576040517f08c379a000000000000000000000000000000000000000000000000000000000815260040161084890612ae9565b60405180910390fd5b600660008473ffffffffffffffffffffffffffffffffffffffff1673ffffffffffffffffffffffffffffffffffffffff168152602001908152602001600020600083815260200190815260200160002054905092915050565b601b81565b6108ca83838360405180602001604052806000815250610e2b565b505050565b60006108d9610798565b821061091a576040517f08c379a000000000000000000000000000000000000000000000000000000000815260040161091190612d29565b60405180910390fd5b60088281548110610954577f4e487b7100000000000000000000000000000000000000000000000000000000600052603260045260246000fd5b90600052602060002001549050919050565b61096e61120e565b73ffffffffffffffffffffffffffffffffffffffff1661098c610bee565b73ffffffffffffffffffffffffffffffffffffffff16146109e2576040517f08c379a00000000000000000000000000000000000000000000000000000000081526004016109d990612c89565b60405180910390fd5b80600c90805190602001906109f8929190612256565b5050565b6000806002600084815260200190815260200160002060009054906101000a900473ffffffffffffffffffffffffffffffffffffffff169050600073ffffffffffffffffffffffffffffffffffffffff168173ffffffffffffffffffffffffffffffffffffffff161415610aa5576040517f08c379a0000000000000000000000000000000000000000000000000000000008152600401610a9c90612c09565b60405180910390fd5b80915050919050565b60008073ffffffffffffffffffffffffffffffffffffffff168273ffffffffffffffffffffffffffffffffffffffff161415610b1f576040517f08c379a0000000000000000000000000000000000000000000000000000000008152600401610b1690612be9565b60405180910390fd5b600360008373ffffffffffffffffffffffffffffffffffffffff1673ffffffffffffffffffffffffffffffffffffffff168152602001908152602001600020549050919050565b610b6e61120e565b73ffffffffffffffffffffffffffffffffffffffff16610b8c610bee565b73ffffffffffffffffffffffffffffffffffffffff1614610be2576040517f08c379a0000000000000000000000000000000000000000000000000000000008152600401610bd990612c89565b60405180910390fd5b610bec6000611627565b565b6000600b60009054906101000a900473ffffffffffffffffffffffffffffffffffffffff16905090565b606060018054610c2790612fbf565b80601f0160208091040260200160405190810160405280929190818152602001828054610c5390612fbf565b8015610ca05780601f10610c7557610100808354040283529160200191610ca0565b820191906000526020600020905b815481529060010190602001808311610c8357829003601f168201915b5050505050905090565b610cb261120e565b73ffffffffffffffffffffffffffffffffffffffff168273ffffffffffffffffffffffffffffffffffffffff161415610d20576040517f08c379a0000000000000000000000000000000000000000000000000000000008152600401610d1790612b89565b60405180910390fd5b8060056000610d2d61120e565b73ffffffffffffffffffffffffffffffffffffffff1673ffffffffffffffffffffffffffffffffffffffff16815260200190815260200160002060008473ffffffffffffffffffffffffffffffffffffffff1673ffffffffffffffffffffffffffffffffffffffff16815260200190815260200160002060006101000a81548160ff0219169083151502179055508173ffffffffffffffffffffffffffffffffffffffff16610dda61120e565b73ffffffffffffffffffffffffffffffffffffffff167f17307eab39ab6107e8899845ad3d59bd9653f200f220920489ca2b5937696c3183604051610e1f9190612aac565b60405180910390a35050565b610e3c610e3661120e565b836112ed565b610e7b576040517f08c379a0000000000000000000000000000000000000000000000000000000008152600401610e7290612d09565b60405180910390fd5b610e87848484846116ed565b50505050565b6060610e98826111a2565b610ed7576040517f08c379a0000000000000000000000000000000000000000000000000000000008152600401610ece90612cc9565b60405180910390fd5b6000610ee1611749565b90506000815111610f015760405180602001604052806000815250610f2c565b80610f0b846117db565b604051602001610f1c929190612a21565b6040516020818303038152906040525b915050919050565b6000600560008473ffffffffffffffffffffffffffffffffffffffff1673ffffffffffffffffffffffffffffffffffffffff16815260200190815260200160002060008373ffffffffffffffffffffffffffffffffffffffff1673ffffffffffffffffffffffffffffffffffffffff16815260200190815260200160002060009054906101000a900460ff16905092915050565b610fd061120e565b73ffffffffffffffffffffffffffffffffffffffff16610fee610bee565b73ffffffffffffffffffffffffffffffffffffffff1614611044576040517f08c379a000000000000000000000000000000000000000000000000000000000815260040161103b90612c89565b60405180910390fd5b600073ffffffffffffffffffffffffffffffffffffffff168173ffffffffffffffffffffffffffffffffffffffff1614156110b4576040517f08c379a00000000000000000000000000000000000000000000000000000000081526004016110ab90612b29565b60405180910390fd5b6110bd81611627565b50565b60007f80ac58cd000000000000000000000000000000000000000000000000000000007bffffffffffffffffffffffffffffffffffffffffffffffffffffffff1916827bffffffffffffffffffffffffffffffffffffffffffffffffffffffff1916148061118b57507f5b5e139f000000000000000000000000000000000000000000000000000000007bffffffffffffffffffffffffffffffffffffffffffffffffffffffff1916827bffffffffffffffffffffffffffffffffffffffffffffffffffffffff1916145b8061119b575061119a82611988565b5b9050919050565b60008073ffffffffffffffffffffffffffffffffffffffff166002600084815260200190815260200160002060009054906101000a900473ffffffffffffffffffffffffffffffffffffffff1673ffffffffffffffffffffffffffffffffffffffff1614159050919050565b600033905090565b816004600083815260200190815260200160002060006101000a81548173ffffffffffffffffffffffffffffffffffffffff021916908373ffffffffffffffffffffffffffffffffffffffff160217905550808273ffffffffffffffffffffffffffffffffffffffff16611289836109fc565b73ffffffffffffffffffffffffffffffffffffffff167f8c5be1e5ebec7d5bd14f71427d1e84f3dd0314c0f7b2291e5b200ac8c7c3b92560405160405180910390a45050565b6112e98282604051806020016040528060008152506119f2565b5050565b60006112f8826111a2565b611337576040517f08c379a000000000000000000000000000000000000000000000000000000000815260040161132e90612ba9565b60405180910390fd5b6000611342836109fc565b90508073ffffffffffffffffffffffffffffffffffffffff168473ffffffffffffffffffffffffffffffffffffffff1614806113b157508373ffffffffffffffffffffffffffffffffffffffff1661139984610541565b73ffffffffffffffffffffffffffffffffffffffff16145b806113c257506113c18185610f34565b5b91505092915050565b8273ffffffffffffffffffffffffffffffffffffffff166113eb826109fc565b73ffffffffffffffffffffffffffffffffffffffff1614611441576040517f08c379a000000000000000000000000000000000000000000000000000000000815260040161143890612ca9565b60405180910390fd5b600073ffffffffffffffffffffffffffffffffffffffff168273ffffffffffffffffffffffffffffffffffffffff1614156114b1576040517f08c379a00000000000000000000000000000000000000000000000000000000081526004016114a890612b69565b60405180910390fd5b6114bc838383611a4d565b6114c7600082611216565b6001600360008573ffffffffffffffffffffffffffffffffffffffff1673ffffffffffffffffffffffffffffffffffffffff16815260200190815260200160002060008282546115179190612ed5565b925050819055506001600360008473ffffffffffffffffffffffffffffffffffffffff1673ffffffffffffffffffffffffffffffffffffffff168152602001908152602001600020600082825461156e9190612e4e565b92505081905550816002600083815260200190815260200160002060006101000a81548173ffffffffffffffffffffffffffffffffffffffff021916908373ffffffffffffffffffffffffffffffffffffffff160217905550808273ffffffffffffffffffffffffffffffffffffffff168473ffffffffffffffffffffffffffffffffffffffff167fddf252ad1be2c89b69c2b068fc378daa952ba7f163c4a11628f55a4df523b3ef60405160405180910390a4505050565b6000600b60009054906101000a900473ffffffffffffffffffffffffffffffffffffffff16905081600b60006101000a81548173ffffffffffffffffffffffffffffffffffffffff021916908373ffffffffffffffffffffffffffffffffffffffff1602179055508173ffffffffffffffffffffffffffffffffffffffff168173ffffffffffffffffffffffffffffffffffffffff167f8be0079c531659141344cd1fd0a4f28419497f9722a3daafe3b4186f6b6457e060405160405180910390a35050565b6116f88484846113cb565b61170484848484611b61565b611743576040517f08c379a000000000000000000000000000000000000000000000000000000000815260040161173a90612b09565b60405180910390fd5b50505050565b6060600c805461175890612fbf565b80601f016020809104026020016040519081016040528092919081815260200182805461178490612fbf565b80156117d15780601f106117a6576101008083540402835291602001916117d1565b820191906000526020600020905b8154815290600101906020018083116117b457829003601f168201915b5050505050905090565b60606000821415611823576040518060400160405280600181526020017f30000000000000000000000000000000000000000000000000000000000000008152509050611983565b600082905060005b6000821461185557808061183e90613022565b915050600a8261184e9190612ea4565b915061182b565b60008167ffffffffffffffff811115611897577f4e487b7100000000000000000000000000000000000000000000000000000000600052604160045260246000fd5b6040519080825280601f01601f1916602001820160405280156118c95781602001600182028036833780820191505090505b5090505b6000851461197c576001826118e29190612ed5565b9150600a856118f1919061306b565b60306118fd9190612e4e565b60f81b818381518110611939577f4e487b7100000000000000000000000000000000000000000000000000000000600052603260045260246000fd5b60200101907effffffffffffffffffffffffffffffffffffffffffffffffffffffffffffff1916908160001a905350600a856119759190612ea4565b94506118cd565b8093505050505b919050565b60007f01ffc9a7000000000000000000000000000000000000000000000000000000007bffffffffffffffffffffffffffffffffffffffffffffffffffffffff1916827bffffffffffffffffffffffffffffffffffffffffffffffffffffffff1916149050919050565b6119fc8383611cf8565b611a096000848484611b61565b611a48576040517f08c379a0000000000000000000000000000000000000000000000000000000008152600401611a3f90612b09565b60405180910390fd5b505050565b611a58838383611ec6565b600073ffffffffffffffffffffffffffffffffffffffff168373ffffffffffffffffffffffffffffffffffffffff161415611a9b57611a9681611ecb565b611ada565b8173ffffffffffffffffffffffffffffffffffffffff168373ffffffffffffffffffffffffffffffffffffffff1614611ad957611ad88382611f14565b5b5b600073ffffffffffffffffffffffffffffffffffffffff168273ffffffffffffffffffffffffffffffffffffffff161415611b1d57611b1881612081565b611b5c565b8273ffffffffffffffffffffffffffffffffffffffff168273ffffffffffffffffffffffffffffffffffffffff1614611b5b57611b5a82826121c4565b5b5b505050565b6000611b828473ffffffffffffffffffffffffffffffffffffffff16612243565b15611ceb578373ffffffffffffffffffffffffffffffffffffffff1663150b7a02611bab61120e565b8786866040518563ffffffff1660e01b8152600401611bcd9493929190612a60565b602060405180830381600087803b158015611be757600080fd5b505af1925050508015611c1857506040513d601f19601f82011682018060405250810190611c159190612602565b60015b611c9b573d8060008114611c48576040519150601f19603f3d011682016040523d82523d6000602084013e611c4d565b606091505b50600081511415611c93576040517f08c379a0000000000000000000000000000000000000000000000000000000008152600401611c8a90612b09565b60405180910390fd5b805181602001fd5b63150b7a0260e01b7bffffffffffffffffffffffffffffffffffffffffffffffffffffffff1916817bffffffffffffffffffffffffffffffffffffffffffffffffffffffff191614915050611cf0565b600190505b949350505050565b600073ffffffffffffffffffffffffffffffffffffffff168273ffffffffffffffffffffffffffffffffffffffff161415611d68576040517f08c379a0000000000000000000000000000000000000000000000000000000008152600401611d5f90612c49565b60405180910390fd5b611d71816111a2565b15611db1576040517f08c379a0000000000000000000000000000000000000000000000000000000008152600401611da890612b49565b60405180910390fd5b611dbd60008383611a4d565b6001600360008473ffffffffffffffffffffffffffffffffffffffff1673ffffffffffffffffffffffffffffffffffffffff1681526020019081526020016000206000828254611e0d9190612e4e565b92505081905550816002600083815260200190815260200160002060006101000a81548173ffffffffffffffffffffffffffffffffffffffff021916908373ffffffffffffffffffffffffffffffffffffffff160217905550808273ffffffffffffffffffffffffffffffffffffffff16600073ffffffffffffffffffffffffffffffffffffffff167fddf252ad1be2c89b69c2b068fc378daa952ba7f163c4a11628f55a4df523b3ef60405160405180910390a45050565b505050565b6008805490506009600083815260200190815260200160002081905550600881908060018154018082558091505060019003906000526020600020016000909190919091505550565b60006001611f2184610aae565b611f2b9190612ed5565b9050600060076000848152602001908152602001600020549050818114612010576000600660008673ffffffffffffffffffffffffffffffffffffffff1673ffffffffffffffffffffffffffffffffffffffff168152602001908152602001600020600084815260200190815260200160002054905080600660008773ffffffffffffffffffffffffffffffffffffffff1673ffffffffffffffffffffffffffffffffffffffff168152602001908152602001600020600084815260200190815260200160002081905550816007600083815260200190815260200160002081905550505b6007600084815260200190815260200160002060009055600660008573ffffffffffffffffffffffffffffffffffffffff1673ffffffffffffffffffffffffffffffffffffffff16815260200190815260200160002060008381526020019081526020016000206000905550505050565b600060016008805490506120959190612ed5565b90506000600960008481526020019081526020016000205490506000600883815481106120eb577f4e487b7100000000000000000000000000000000000000000000000000000000600052603260045260246000fd5b906000526020600020015490508060088381548110612133577f4e487b7100000000000000000000000000000000000000000000000000000000600052603260045260246000fd5b9060005260206000200181905550816009600083815260200190815260200160002081905550600960008581526020019081526020016000206000905560088054806121a8577f4e487b7100000000000000000000000000000000000000000000000000000000600052603160045260246000fd5b6001900381819060005260206000200160009055905550505050565b60006121cf83610aae565b905081600660008573ffffffffffffffffffffffffffffffffffffffff1673ffffffffffffffffffffffffffffffffffffffff168152602001908152602001600020600083815260200190815260200160002081905550806007600084815260200190815260200160002081905550505050565b600080823b905060008111915050919050565b82805461226290612fbf565b90600052602060002090601f01602090048101928261228457600085556122cb565b82601f1061229d57805160ff19168380011785556122cb565b828001600101855582156122cb579182015b828111156122ca5782518255916020019190600101906122af565b5b5090506122d891906122dc565b5090565b5b808211156122f55760008160009055506001016122dd565b5090565b600061230c61230784612da9565b612d84565b90508281526020810184848401111561232457600080fd5b61232f848285612f7d565b509392505050565b600061234a61234584612dda565b612d84565b90508281526020810184848401111561236257600080fd5b61236d848285612f7d565b509392505050565b600081359050612384816136b1565b92915050565b600081359050612399816136c8565b92915050565b6000813590506123ae816136df565b92915050565b6000815190506123c3816136df565b92915050565b600082601f8301126123da57600080fd5b81356123ea8482602086016122f9565b91505092915050565b600082601f83011261240457600080fd5b8135612414848260208601612337565b91505092915050565b60008135905061242c816136f6565b92915050565b60006020828403121561244457600080fd5b600061245284828501612375565b91505092915050565b6000806040838503121561246e57600080fd5b600061247c85828601612375565b925050602061248d85828601612375565b9150509250929050565b6000806000606084860312156124ac57600080fd5b60006124ba86828701612375565b93505060206124cb86828701612375565b92505060406124dc8682870161241d565b9150509250925092565b600080600080608085870312156124fc57600080fd5b600061250a87828801612375565b945050602061251b87828801612375565b935050604061252c8782880161241d565b925050606085013567ffffffffffffffff81111561254957600080fd5b612555878288016123c9565b91505092959194509250565b6000806040838503121561257457600080fd5b600061258285828601612375565b92505060206125938582860161238a565b9150509250929050565b600080604083850312156125b057600080fd5b60006125be85828601612375565b92505060206125cf8582860161241d565b9150509250929050565b6000602082840312156125eb57600080fd5b60006125f98482850161239f565b91505092915050565b60006020828403121561261457600080fd5b6000612622848285016123b4565b91505092915050565b60006020828403121561263d57600080fd5b600082013567ffffffffffffffff81111561265757600080fd5b612663848285016123f3565b91505092915050565b60006020828403121561267e57600080fd5b600061268c8482850161241d565b91505092915050565b61269e81612f09565b82525050565b6126ad81612f1b565b82525050565b60006126be82612e0b565b6126c88185612e21565b93506126d8818560208601612f8c565b6126e181613158565b840191505092915050565b60006126f782612e16565b6127018185612e32565b9350612711818560208601612f8c565b61271a81613158565b840191505092915050565b600061273082612e16565b61273a8185612e43565b935061274a818560208601612f8c565b80840191505092915050565b6000612763602b83612e32565b915061276e82613169565b604082019050919050565b6000612786603283612e32565b9150612791826131b8565b604082019050919050565b60006127a9602683612e32565b91506127b482613207565b604082019050919050565b60006127cc601c83612e32565b91506127d782613256565b602082019050919050565b60006127ef602483612e32565b91506127fa8261327f565b604082019050919050565b6000612812601983612e32565b915061281d826132ce565b602082019050919050565b6000612835602c83612e32565b9150612840826132f7565b604082019050919050565b6000612858603883612e32565b915061286382613346565b604082019050919050565b600061287b602a83612e32565b915061288682613395565b604082019050919050565b600061289e602983612e32565b91506128a9826133e4565b604082019050919050565b60006128c1601283612e32565b91506128cc82613433565b602082019050919050565b60006128e4602083612e32565b91506128ef8261345c565b602082019050919050565b6000612907602c83612e32565b915061291282613485565b604082019050919050565b600061292a602083612e32565b9150612935826134d4565b602082019050919050565b600061294d602983612e32565b9150612958826134fd565b604082019050919050565b6000612970602f83612e32565b915061297b8261354c565b604082019050919050565b6000612993602183612e32565b915061299e8261359b565b604082019050919050565b60006129b6603183612e32565b91506129c1826135ea565b604082019050919050565b60006129d9602c83612e32565b91506129e482613639565b604082019050919050565b60006129fc601f83612e32565b9150612a0782613688565b602082019050919050565b612a1b81612f73565b82525050565b6000612a2d8285612725565b9150612a398284612725565b91508190509392505050565b6000602082019050612a5a6000830184612695565b92915050565b6000608082019050612a756000830187612695565b612a826020830186612695565b612a8f6040830185612a12565b8181036060830152612aa181846126b3565b905095945050505050565b6000602082019050612ac160008301846126a4565b92915050565b60006020820190508181036000830152612ae181846126ec565b905092915050565b60006020820190508181036000830152612b0281612756565b9050919050565b60006020820190508181036000830152612b2281612779565b9050919050565b60006020820190508181036000830152612b428161279c565b9050919050565b60006020820190508181036000830152612b62816127bf565b9050919050565b60006020820190508181036000830152612b82816127e2565b9050919050565b60006020820190508181036000830152612ba281612805565b9050919050565b60006020820190508181036000830152612bc281612828565b9050919050565b60006020820190508181036000830152612be28161284b565b9050919050565b60006020820190508181036000830152612c028161286e565b9050919050565b60006020820190508181036000830152612c2281612891565b9050919050565b60006020820190508181036000830152612c42816128b4565b9050919050565b60006020820190508181036000830152612c62816128d7565b9050919050565b60006020820190508181036000830152612c82816128fa565b9050919050565b60006020820190508181036000830152612ca28161291d565b9050919050565b60006020820190508181036000830152612cc281612940565b9050919050565b60006020820190508181036000830152612ce281612963565b9050919050565b60006020820190508181036000830152612d0281612986565b9050919050565b60006020820190508181036000830152612d22816129a9565b9050919050565b60006020820190508181036000830152612d42816129cc565b9050919050565b60006020820190508181036000830152612d62816129ef565b9050919050565b6000602082019050612d7e6000830184612a12565b92915050565b6000612d8e612d9f565b9050612d9a8282612ff1565b919050565b6000604051905090565b600067ffffffffffffffff821115612dc457612dc3613129565b5b612dcd82613158565b9050602081019050919050565b600067ffffffffffffffff821115612df557612df4613129565b5b612dfe82613158565b9050602081019050919050565b600081519050919050565b600081519050919050565b600082825260208201905092915050565b600082825260208201905092915050565b600081905092915050565b6000612e5982612f73565b9150612e6483612f73565b9250827fffffffffffffffffffffffffffffffffffffffffffffffffffffffffffffffff03821115612e9957612e9861309c565b5b828201905092915050565b6000612eaf82612f73565b9150612eba83612f73565b925082612eca57612ec96130cb565b5b828204905092915050565b6000612ee082612f73565b9150612eeb83612f73565b925082821015612efe57612efd61309c565b5b828203905092915050565b6000612f1482612f53565b9050919050565b60008115159050919050565b60007fffffffff0000000000000000000000000000000000000000000000000000000082169050919050565b600073ffffffffffffffffffffffffffffffffffffffff82169050919050565b6000819050919050565b82818337600083830152505050565b60005b83811015612faa578082015181840152602081019050612f8f565b83811115612fb9576000848401525b50505050565b60006002820490506001821680612fd757607f821691505b60208210811415612feb57612fea6130fa565b5b50919050565b612ffa82613158565b810181811067ffffffffffffffff8211171561301957613018613129565b5b80604052505050565b600061302d82612f73565b91507fffffffffffffffffffffffffffffffffffffffffffffffffffffffffffffffff8214156130605761305f61309c565b5b600182019050919050565b600061307682612f73565b915061308183612f73565b925082613091576130906130cb565b5b828206905092915050565b7f4e487b7100000000000000000000000000000000000000000000000000000000600052601160045260246000fd5b7f4e487b7100000000000000000000000000000000000000000000000000000000600052601260045260246000fd5b7f4e487b7100000000000000000000000000000000000000000000000000000000600052602260045260246000fd5b7f4e487b7100000000000000000000000000000000000000000000000000000000600052604160045260246000fd5b6000601f19601f8301169050919050565b7f455243373231456e756d657261626c653a206f776e657220696e646578206f7560008201527f74206f6620626f756e6473000000000000000000000000000000000000000000602082015250565b7f4552433732313a207472616e7366657220746f206e6f6e20455243373231526560008201527f63656976657220696d706c656d656e7465720000000000000000000000000000602082015250565b7f4f776e61626c653a206e6577206f776e657220697320746865207a65726f206160008201527f6464726573730000000000000000000000000000000000000000000000000000602082015250565b7f4552433732313a20746f6b656e20616c7265616479206d696e74656400000000600082015250565b7f4552433732313a207472616e7366657220746f20746865207a65726f2061646460008201527f7265737300000000000000000000000000000000000000000000000000000000602082015250565b7f4552433732313a20617070726f766520746f2063616c6c657200000000000000600082015250565b7f4552433732313a206f70657261746f7220717565727920666f72206e6f6e657860008201527f697374656e7420746f6b656e0000000000000000000000000000000000000000602082015250565b7f4552433732313a20617070726f76652063616c6c6572206973206e6f74206f7760008201527f6e6572206e6f7220617070726f76656420666f7220616c6c0000000000000000602082015250565b7f4552433732313a2062616c616e636520717565727920666f7220746865207a6560008201527f726f206164647265737300000000000000000000000000000000000000000000602082015250565b7f4552433732313a206f776e657220717565727920666f72206e6f6e657869737460008201527f656e7420746f6b656e0000000000000000000000000000000000000000000000602082015250565b7f45786365656473206d617820737570706c790000000000000000000000000000600082015250565b7f4552433732313a206d696e7420746f20746865207a65726f2061646472657373600082015250565b7f4552433732313a20617070726f76656420717565727920666f72206e6f6e657860008201527f697374656e7420746f6b656e0000000000000000000000000000000000000000602082015250565b7f4f776e61626c653a2063616c6c6572206973206e6f7420746865206f776e6572600082015250565b7f4552433732313a207472616e73666572206f6620746f6b656e2074686174206960008201527f73206e6f74206f776e0000000000000000000000000000000000000000000000602082015250565b7f4552433732314d657461646174613a2055524920717565727920666f72206e6f60008201527f6e6578697374656e7420746f6b656e0000000000000000000000000000000000602082015250565b7f4552433732313a20617070726f76616c20746f2063757272656e74206f776e6560008201527f7200000000000000000000000000000000000000000000000000000000000000602082015250565b7f4552433732313a207472616e736665722063616c6c6572206973206e6f74206f60008201527f776e6572206e6f7220617070726f766564000000000000000000000000000000602082015250565b7f455243373231456e756d657261626c653a20676c6f62616c20696e646578206f60008201527f7574206f6620626f756e64730000000000000000000000000000000000000000602082015250565b7f5265656e7472616e637947756172643a207265656e7472616e742063616c6c00600082015250565b6136ba81612f09565b81146136c557600080fd5b50565b6136d181612f1b565b81146136dc57600080fd5b50565b6136e881612f27565b81146136f357600080fd5b50565b6136ff81612f73565b811461370a57600080fd5b5056fea26469706673582212204f481daac4e6502b11eda230f2b08e282060af07fcf9b864e87b870df44b475064736f6c63430008040033",
  "devdoc": {
    "kind": "dev",
    "methods": {
      "approve(address,uint256)": {
        "details": "See {IERC721-approve}."
      },
      "balanceOf(address)": {
        "details": "See {IERC721-balanceOf}."
      },
      "getApproved(uint256)": {
        "details": "See {IERC721-getApproved}."
      },
      "isApprovedForAll(address,address)": {
        "details": "See {IERC721-isApprovedForAll}."
      },
      "name()": {
        "details": "See {IERC721Metadata-name}."
      },
      "owner()": {
        "details": "Returns the address of the current owner."
      },
      "ownerOf(uint256)": {
        "details": "See {IERC721-ownerOf}."
      },
      "renounceOwnership()": {
        "details": "Leaves the contract without owner. It will not be possible to call `onlyOwner` functions anymore. Can only be called by the current owner. NOTE: Renouncing ownership will leave the contract without an owner, thereby removing any functionality that is only available to the owner."
      },
      "safeTransferFrom(address,address,uint256)": {
        "details": "See {IERC721-safeTransferFrom}."
      },
      "safeTransferFrom(address,address,uint256,bytes)": {
        "details": "See {IERC721-safeTransferFrom}."
      },
      "setApprovalForAll(address,bool)": {
        "details": "See {IERC721-setApprovalForAll}."
      },
      "supportsInterface(bytes4)": {
        "details": "See {IERC165-supportsInterface}."
      },
      "symbol()": {
        "details": "See {IERC721Metadata-symbol}."
      },
      "tokenByIndex(uint256)": {
        "details": "See {IERC721Enumerable-tokenByIndex}."
      },
      "tokenOfOwnerByIndex(address,uint256)": {
        "details": "See {IERC721Enumerable-tokenOfOwnerByIndex}."
      },
      "tokenURI(uint256)": {
        "details": "See {IERC721Metadata-tokenURI}."
      },
      "totalSupply()": {
        "details": "See {IERC721Enumerable-totalSupply}."
      },
      "transferFrom(address,address,uint256)": {
        "details": "See {IERC721-transferFrom}."
      },
      "transferOwnership(address)": {
        "details": "Transfers ownership of the contract to a new account (`newOwner`). Can only be called by the current owner."
      }
    },
    "version": 1
  },
  "solcInputHash": "f684dbba3e740f71f16ebd2cf224afb5",
  "storageLayout": {
    "storage": [
      {
        "astId": 169,
        "contract": "contracts/0xKiyo/src/0xKiyo.sol:KiyoSanBirthday",
        "label": "_name",
        "offset": 0,
        "slot": "0",
        "type": "t_string_storage"
      },
      {
        "astId": 171,
        "contract": "contracts/0xKiyo/src/0xKiyo.sol:KiyoSanBirthday",
        "label": "_symbol",
        "offset": 0,
        "slot": "1",
        "type": "t_string_storage"
      },
      {
        "astId": 175,
        "contract": "contracts/0xKiyo/src/0xKiyo.sol:KiyoSanBirthday",
        "label": "_owners",
        "offset": 0,
        "slot": "2",
        "type": "t_mapping(t_uint256,t_address)"
      },
      {
        "astId": 179,
        "contract": "contracts/0xKiyo/src/0xKiyo.sol:KiyoSanBirthday",
        "label": "_balances",
        "offset": 0,
        "slot": "3",
        "type": "t_mapping(t_address,t_uint256)"
      },
      {
        "astId": 183,
        "contract": "contracts/0xKiyo/src/0xKiyo.sol:KiyoSanBirthday",
        "label": "_tokenApprovals",
        "offset": 0,
        "slot": "4",
        "type": "t_mapping(t_uint256,t_address)"
      },
      {
        "astId": 189,
        "contract": "contracts/0xKiyo/src/0xKiyo.sol:KiyoSanBirthday",
        "label": "_operatorApprovals",
        "offset": 0,
        "slot": "5",
        "type": "t_mapping(t_address,t_mapping(t_address,t_bool))"
      },
      {
        "astId": 1108,
        "contract": "contracts/0xKiyo/src/0xKiyo.sol:KiyoSanBirthday",
        "label": "_ownedTokens",
        "offset": 0,
        "slot": "6",
        "type": "t_mapping(t_address,t_mapping(t_uint256,t_uint256))"
      },
      {
        "astId": 1112,
        "contract": "contracts/0xKiyo/src/0xKiyo.sol:KiyoSanBirthday",
        "label": "_ownedTokensIndex",
        "offset": 0,
        "slot": "7",
        "type": "t_mapping(t_uint256,t_uint256)"
      },
      {
        "astId": 1115,
        "contract": "contracts/0xKiyo/src/0xKiyo.sol:KiyoSanBirthday",
        "label": "_allTokens",
        "offset": 0,
        "slot": "8",
        "type": "t_array(t_uint256)dyn_storage"
      },
      {
        "astId": 1119,
        "contract": "contracts/0xKiyo/src/0xKiyo.sol:KiyoSanBirthday",
        "label": "_allTokensIndex",
        "offset": 0,
        "slot": "9",
        "type": "t_mapping(t_uint256,t_uint256)"
      },
      {
        "astId": 114,
        "contract": "contracts/0xKiyo/src/0xKiyo.sol:KiyoSanBirthday",
        "label": "_status",
        "offset": 0,
        "slot": "10",
        "type": "t_uint256"
      },
      {
        "astId": 7,
        "contract": "contracts/0xKiyo/src/0xKiyo.sol:KiyoSanBirthday",
        "label": "_owner",
        "offset": 0,
        "slot": "11",
        "type": "t_address"
      },
      {
        "astId": 2178,
        "contract": "contracts/0xKiyo/src/0xKiyo.sol:KiyoSanBirthday",
        "label": "customBaseURI",
        "offset": 0,
        "slot": "12",
        "type": "t_string_storage"
      }
    ],
    "types": {
      "t_address": {
        "encoding": "inplace",
        "label": "address",
        "numberOfBytes": "20"
      },
      "t_array(t_uint256)dyn_storage": {
        "base": "t_uint256",
        "encoding": "dynamic_array",
        "label": "uint256[]",
        "numberOfBytes": "32"
      },
      "t_bool": {
        "encoding": "inplace",
        "label": "bool",
        "numberOfBytes": "1"
      },
      "t_mapping(t_address,t_bool)": {
        "encoding": "mapping",
        "key": "t_address",
        "label": "mapping(address => bool)",
        "numberOfBytes": "32",
        "value": "t_bool"
      },
      "t_mapping(t_address,t_mapping(t_address,t_bool))": {
        "encoding": "mapping",
        "key": "t_address",
        "label": "mapping(address => mapping(address => bool))",
        "numberOfBytes": "32",
        "value": "t_mapping(t_address,t_bool)"
      },
      "t_mapping(t_address,t_mapping(t_uint256,t_uint256))": {
        "encoding": "mapping",
        "key": "t_address",
        "label": "mapping(address => mapping(uint256 => uint256))",
        "numberOfBytes": "32",
        "value": "t_mapping(t_uint256,t_uint256)"
      },
      "t_mapping(t_address,t_uint256)": {
        "encoding": "mapping",
        "key": "t_address",
        "label": "mapping(address => uint256)",
        "numberOfBytes": "32",
        "value": "t_uint256"
      },
      "t_mapping(t_uint256,t_address)": {
        "encoding": "mapping",
        "key": "t_uint256",
        "label": "mapping(uint256 => address)",
        "numberOfBytes": "32",
        "value": "t_address"
      },
      "t_mapping(t_uint256,t_uint256)": {
        "encoding": "mapping",
        "key": "t_uint256",
        "label": "mapping(uint256 => uint256)",
        "numberOfBytes": "32",
        "value": "t_uint256"
      },
      "t_string_storage": {
        "encoding": "bytes",
        "label": "string",
        "numberOfBytes": "32"
      },
      "t_uint256": {
        "encoding": "inplace",
        "label": "uint256",
        "numberOfBytes": "32"
      }
    }
  },
  "transactionHash": "0xbe43d0820b6cabfad5cbc7a931569b2dc471802f8eb5338412a9c9afad7e4e78",
  "userdoc": {
    "kind": "user",
    "methods": {},
    "version": 1
  }
}