{
  "abi": [
    {
      "anonymous": false,
      "inputs": [
        {
          "indexed": true,
          "internalType": "address",
          "name": "previousOwner",
          "type": "address"
        },
        {
          "indexed": true,
          "internalType": "address",
          "name": "newOwner",
          "type": "address"
        }
      ],
      "name": "OwnershipTransferred",
      "type": "event"
    },
    {
      "anonymous": false,
      "inputs": [
        {
          "indexed": false,
          "internalType": "address",
          "name": "",
          "type": "address"
        },
        {
          "indexed": false,
          "internalType": "uint256",
          "name": "",
          "type": "uint256"
        }
      ],
      "name": "Received",
      "type": "event"
    },
    {
      "inputs": [],
      "name": "getStoredValue",
      "outputs": [
        {
          "internalType": "uint256",
          "name": "",
          "type": "uint256"
        }
      ],
      "stateMutability": "view",
      "type": "function"
    },
    {
      "inputs": [],
      "name": "initialize",
      "outputs": [],
      "stateMutability": "nonpayable",
      "type": "function"
    },
    {
      "inputs": [],
      "name": "owner",
      "outputs": [
        {
          "internalType": "address",
          "name": "",
          "type": "address"
        }
      ],
      "stateMutability": "view",
      "type": "function"
    },
    {
      "inputs": [],
      "name": "renounceOwnership",
      "outputs": [],
      "stateMutability": "nonpayable",
      "type": "function"
    },
    {
      "inputs": [
        {
          "internalType": "uint256",
          "name": "newValue",
          "type": "uint256"
        }
      ],
      "name": "setStoredValue",
      "outputs": [],
      "stateMutability": "nonpayable",
      "type": "function"
    },
    {
      "inputs": [
        {
          "internalType": "address",
          "name": "newOwner",
          "type": "address"
        }
      ],
      "name": "transferOwnership",
      "outputs": [],
      "stateMutability": "nonpayable",
      "type": "function"
    },
    {
      "inputs": [
        {
          "internalType": "address",
          "name": "to",
          "type": "address"
        },
        {
          "internalType": "uint256",
          "name": "value",
          "type": "uint256"
        }
      ],
      "name": "withdraw",
      "outputs": [],
      "stateMutability": "payable",
      "type": "function"
    },
    {
      "stateMutability": "payable",
      "type": "receive"
    }
  ],
  "address": "0xF31B7bEA64ED4a04c9435E00E8AbD3bb5bC20658",
  "args": [],
  "bytecode": "0x608060405234801561001057600080fd5b50610dd9806100206000396000f3fe6080604052600436106100745760003560e01c80638129fc1c1161004e5780638129fc1c146101245780638da5cb5b1461013b578063f2fde38b14610166578063f3fef3a31461018f576100b4565b80630d336a21146100b95780633295425d146100e4578063715018a61461010d576100b4565b366100b4577f88a5966d370b9919b20f3e2c13ff65706f196a4e32cc2c12bf57088f8852587433346040516100aa929190610b1d565b60405180910390a1005b600080fd5b3480156100c557600080fd5b506100ce6101ab565b6040516100db9190610be6565b60405180910390f35b3480156100f057600080fd5b5061010b600480360381019061010691906109d4565b6101b5565b005b34801561011957600080fd5b506101226101bf565b005b34801561013057600080fd5b50610139610247565b005b34801561014757600080fd5b50610150610328565b60405161015d9190610b02565b60405180910390f35b34801561017257600080fd5b5061018d6004803603810190610188919061096f565b610352565b005b6101a960048036038101906101a49190610998565b61044a565b005b6000609754905090565b8060978190555050565b6101c76105cc565b73ffffffffffffffffffffffffffffffffffffffff166101e5610328565b73ffffffffffffffffffffffffffffffffffffffff161461023b576040517f08c379a000000000000000000000000000000000000000000000000000000000815260040161023290610ba6565b60405180910390fd5b61024560006105d4565b565b600060019054906101000a900460ff168061026d575060008054906101000a900460ff16155b6102ac576040517f08c379a00000000000000000000000000000000000000000000000000000000081526004016102a390610b86565b60405180910390fd5b60008060019054906101000a900460ff1615905080156102fc576001600060016101000a81548160ff02191690831515021790555060016000806101000a81548160ff0219169083151502179055505b61030461069a565b80156103255760008060016101000a81548160ff0219169083151502179055505b50565b6000606560009054906101000a900473ffffffffffffffffffffffffffffffffffffffff16905090565b61035a6105cc565b73ffffffffffffffffffffffffffffffffffffffff16610378610328565b73ffffffffffffffffffffffffffffffffffffffff16146103ce576040517f08c379a00000000000000000000000000000000000000000000000000000000081526004016103c590610ba6565b60405180910390fd5b600073ffffffffffffffffffffffffffffffffffffffff168173ffffffffffffffffffffffffffffffffffffffff16141561043e576040517f08c379a000000000000000000000000000000000000000000000000000000000815260040161043590610b46565b60405180910390fd5b610447816105d4565b50565b6104526105cc565b73ffffffffffffffffffffffffffffffffffffffff16610470610328565b73ffffffffffffffffffffffffffffffffffffffff16146104c6576040517f08c379a00000000000000000000000000000000000000000000000000000000081526004016104bd90610ba6565b60405180910390fd5b6002600154141561050c576040517f08c379a000000000000000000000000000000000000000000000000000000000815260040161050390610bc6565b60405180910390fd5b600260018190555060008273ffffffffffffffffffffffffffffffffffffffff168260405161053a90610aed565b60006040518083038185875af1925050503d8060008114610577576040519150601f19603f3d011682016040523d82523d6000602084013e61057c565b606091505b50509050806105c0576040517f08c379a00000000000000000000000000000000000000000000000000000000081526004016105b790610b66565b60405180910390fd5b50600180819055505050565b600033905090565b6000606560009054906101000a900473ffffffffffffffffffffffffffffffffffffffff16905081606560006101000a81548173ffffffffffffffffffffffffffffffffffffffff021916908373ffffffffffffffffffffffffffffffffffffffff1602179055508173ffffffffffffffffffffffffffffffffffffffff168173ffffffffffffffffffffffffffffffffffffffff167f8be0079c531659141344cd1fd0a4f28419497f9722a3daafe3b4186f6b6457e060405160405180910390a35050565b600060019054906101000a900460ff16806106c0575060008054906101000a900460ff16155b6106ff576040517f08c379a00000000000000000000000000000000000000000000000000000000081526004016106f690610b86565b60405180910390fd5b60008060019054906101000a900460ff16159050801561074f576001600060016101000a81548160ff02191690831515021790555060016000806101000a81548160ff0219169083151502179055505b610757610783565b61075f61085c565b80156107805760008060016101000a81548160ff0219169083151502179055505b50565b600060019054906101000a900460ff16806107a9575060008054906101000a900460ff16155b6107e8576040517f08c379a00000000000000000000000000000000000000000000000000000000081526004016107df90610b86565b60405180910390fd5b60008060019054906101000a900460ff161590508015610838576001600060016101000a81548160ff02191690831515021790555060016000806101000a81548160ff0219169083151502179055505b80156108595760008060016101000a81548160ff0219169083151502179055505b50565b600060019054906101000a900460ff1680610882575060008054906101000a900460ff16155b6108c1576040517f08c379a00000000000000000000000000000000000000000000000000000000081526004016108b890610b86565b60405180910390fd5b60008060019054906101000a900460ff161590508015610911576001600060016101000a81548160ff02191690831515021790555060016000806101000a81548160ff0219169083151502179055505b61092161091c6105cc565b6105d4565b80156109425760008060016101000a81548160ff0219169083151502179055505b50565b60008135905061095481610d75565b92915050565b60008135905061096981610d8c565b92915050565b60006020828403121561098157600080fd5b600061098f84828501610945565b91505092915050565b600080604083850312156109ab57600080fd5b60006109b985828601610945565b92505060206109ca8582860161095a565b9150509250929050565b6000602082840312156109e657600080fd5b60006109f48482850161095a565b91505092915050565b610a0681610c1d565b82525050565b6000610a19602683610c0c565b9150610a2482610c59565b604082019050919050565b6000610a3c601483610c0c565b9150610a4782610ca8565b602082019050919050565b6000610a5f602e83610c0c565b9150610a6a82610cd1565b604082019050919050565b6000610a82602083610c0c565b9150610a8d82610d20565b602082019050919050565b6000610aa5600083610c01565b9150610ab082610d49565b600082019050919050565b6000610ac8601f83610c0c565b9150610ad382610d4c565b602082019050919050565b610ae781610c4f565b82525050565b6000610af882610a98565b9150819050919050565b6000602082019050610b1760008301846109fd565b92915050565b6000604082019050610b3260008301856109fd565b610b3f6020830184610ade565b9392505050565b60006020820190508181036000830152610b5f81610a0c565b9050919050565b60006020820190508181036000830152610b7f81610a2f565b9050919050565b60006020820190508181036000830152610b9f81610a52565b9050919050565b60006020820190508181036000830152610bbf81610a75565b9050919050565b60006020820190508181036000830152610bdf81610abb565b9050919050565b6000602082019050610bfb6000830184610ade565b92915050565b600081905092915050565b600082825260208201905092915050565b6000610c2882610c2f565b9050919050565b600073ffffffffffffffffffffffffffffffffffffffff82169050919050565b6000819050919050565b7f4f776e61626c653a206e6577206f776e657220697320746865207a65726f206160008201527f6464726573730000000000000000000000000000000000000000000000000000602082015250565b7f4661696c656420746f2073656e64204574686572000000000000000000000000600082015250565b7f496e697469616c697a61626c653a20636f6e747261637420697320616c72656160008201527f647920696e697469616c697a6564000000000000000000000000000000000000602082015250565b7f4f776e61626c653a2063616c6c6572206973206e6f7420746865206f776e6572600082015250565b50565b7f5265656e7472616e637947756172643a207265656e7472616e742063616c6c00600082015250565b610d7e81610c1d565b8114610d8957600080fd5b50565b610d9581610c4f565b8114610da057600080fd5b5056fea26469706673582212200ca34ca58ce6a19e2a5b69f6b17b793380f762c5da2cddba879b9c536549df4e64736f6c63430008040033",
  "devdoc": {
    "kind": "dev",
    "methods": {
      "owner()": {
        "details": "Returns the address of the current owner."
      },
      "renounceOwnership()": {
        "details": "Leaves the contract without owner. It will not be possible to call `onlyOwner` functions anymore. Can only be called by the current owner. NOTE: Renouncing ownership will leave the contract without an owner, thereby removing any functionality that is only available to the owner."
      },
      "transferOwnership(address)": {
        "details": "Transfers ownership of the contract to a new account (`newOwner`). Can only be called by the current owner."
      }
    },
    "version": 1
  },
  "solcInputHash": "74d5738ba2ba0872c49a7c103714c75e",
  "storageLayout": {
    "storage": [
      {
        "astId": 130,
        "contract": "contracts/Upgradeable/src/Upgradeable.sol:Upgradeable",
        "label": "_initialized",
        "offset": 0,
        "slot": "0",
        "type": "t_bool"
      },
      {
        "astId": 133,
        "contract": "contracts/Upgradeable/src/Upgradeable.sol:Upgradeable",
        "label": "_initializing",
        "offset": 1,
        "slot": "0",
        "type": "t_bool"
      },
      {
        "astId": 184,
        "contract": "contracts/Upgradeable/src/Upgradeable.sol:Upgradeable",
        "label": "_status",
        "offset": 0,
        "slot": "1",
        "type": "t_uint256"
      },
      {
        "astId": 227,
        "contract": "contracts/Upgradeable/src/Upgradeable.sol:Upgradeable",
        "label": "__gap",
        "offset": 0,
        "slot": "2",
        "type": "t_array(t_uint256)49_storage"
      },
      {
        "astId": 271,
        "contract": "contracts/Upgradeable/src/Upgradeable.sol:Upgradeable",
        "label": "__gap",
        "offset": 0,
        "slot": "51",
        "type": "t_array(t_uint256)50_storage"
      },
      {
        "astId": 10,
        "contract": "contracts/Upgradeable/src/Upgradeable.sol:Upgradeable",
        "label": "_owner",
        "offset": 0,
        "slot": "101",
        "type": "t_address"
      },
      {
        "astId": 123,
        "contract": "contracts/Upgradeable/src/Upgradeable.sol:Upgradeable",
        "label": "__gap",
        "offset": 0,
        "slot": "102",
        "type": "t_array(t_uint256)49_storage"
      },
      {
        "astId": 2431,
        "contract": "contracts/Upgradeable/src/Upgradeable.sol:Upgradeable",
        "label": "storedValue",
        "offset": 0,
        "slot": "151",
        "type": "t_uint256"
      }
    ],
    "types": {
      "t_address": {
        "encoding": "inplace",
        "label": "address",
        "numberOfBytes": "20"
      },
      "t_array(t_uint256)49_storage": {
        "base": "t_uint256",
        "encoding": "inplace",
        "label": "uint256[49]",
        "numberOfBytes": "1568"
      },
      "t_array(t_uint256)50_storage": {
        "base": "t_uint256",
        "encoding": "inplace",
        "label": "uint256[50]",
        "numberOfBytes": "1600"
      },
      "t_bool": {
        "encoding": "inplace",
        "label": "bool",
        "numberOfBytes": "1"
      },
      "t_uint256": {
        "encoding": "inplace",
        "label": "uint256",
        "numberOfBytes": "32"
      }
    }
  },
  "transactionHash": "0x992d4e2859b86f0d39cab3b18cc7eef4c1f0d6e8c62497bfd7634a3e523ee19d",
  "userdoc": {
    "kind": "user",
    "methods": {},
    "version": 1
  }
}