{
  "abi": [
    {
      "inputs": [
        {
          "internalType": "string",
          "name": "customBaseURI_",
          "type": "string"
        }
      ],
      "stateMutability": "nonpayable",
      "type": "constructor"
    },
    {
      "anonymous": false,
      "inputs": [
        {
          "indexed": true,
          "internalType": "address",
          "name": "owner",
          "type": "address"
        },
        {
          "indexed": true,
          "internalType": "address",
          "name": "approved",
          "type": "address"
        },
        {
          "indexed": true,
          "internalType": "uint256",
          "name": "tokenId",
          "type": "uint256"
        }
      ],
      "name": "Approval",
      "type": "event"
    },
    {
      "anonymous": false,
      "inputs": [
        {
          "indexed": true,
          "internalType": "address",
          "name": "owner",
          "type": "address"
        },
        {
          "indexed": true,
          "internalType": "address",
          "name": "operator",
          "type": "address"
        },
        {
          "indexed": false,
          "internalType": "bool",
          "name": "approved",
          "type": "bool"
        }
      ],
      "name": "ApprovalForAll",
      "type": "event"
    },
    {
      "anonymous": false,
      "inputs": [
        {
          "indexed": true,
          "internalType": "address",
          "name": "previousOwner",
          "type": "address"
        },
        {
          "indexed": true,
          "internalType": "address",
          "name": "newOwner",
          "type": "address"
        }
      ],
      "name": "OwnershipTransferred",
      "type": "event"
    },
    {
      "anonymous": false,
      "inputs": [
        {
          "indexed": true,
          "internalType": "address",
          "name": "from",
          "type": "address"
        },
        {
          "indexed": true,
          "internalType": "address",
          "name": "to",
          "type": "address"
        },
        {
          "indexed": true,
          "internalType": "uint256",
          "name": "tokenId",
          "type": "uint256"
        }
      ],
      "name": "Transfer",
      "type": "event"
    },
    {
      "inputs": [],
      "name": "MAX_SUPPLY",
      "outputs": [
        {
          "internalType": "uint256",
          "name": "",
          "type": "uint256"
        }
      ],
      "stateMutability": "view",
      "type": "function"
    },
    {
      "inputs": [],
      "name": "MINT_LIMIT_PER_WALLET",
      "outputs": [
        {
          "internalType": "uint256",
          "name": "",
          "type": "uint256"
        }
      ],
      "stateMutability": "view",
      "type": "function"
    },
    {
      "inputs": [
        {
          "internalType": "address",
          "name": "minter",
          "type": "address"
        }
      ],
      "name": "allowedMintCount",
      "outputs": [
        {
          "internalType": "uint256",
          "name": "",
          "type": "uint256"
        }
      ],
      "stateMutability": "view",
      "type": "function"
    },
    {
      "inputs": [
        {
          "internalType": "address",
          "name": "to",
          "type": "address"
        },
        {
          "internalType": "uint256",
          "name": "tokenId",
          "type": "uint256"
        }
      ],
      "name": "approve",
      "outputs": [],
      "stateMutability": "nonpayable",
      "type": "function"
    },
    {
      "inputs": [
        {
          "internalType": "address",
          "name": "owner",
          "type": "address"
        }
      ],
      "name": "balanceOf",
      "outputs": [
        {
          "internalType": "uint256",
          "name": "",
          "type": "uint256"
        }
      ],
      "stateMutability": "view",
      "type": "function"
    },
    {
      "inputs": [
        {
          "internalType": "uint256",
          "name": "tokenId",
          "type": "uint256"
        }
      ],
      "name": "getApproved",
      "outputs": [
        {
          "internalType": "address",
          "name": "",
          "type": "address"
        }
      ],
      "stateMutability": "view",
      "type": "function"
    },
    {
      "inputs": [
        {
          "internalType": "address",
          "name": "owner",
          "type": "address"
        },
        {
          "internalType": "address",
          "name": "operator",
          "type": "address"
        }
      ],
      "name": "isApprovedForAll",
      "outputs": [
        {
          "internalType": "bool",
          "name": "",
          "type": "bool"
        }
      ],
      "stateMutability": "view",
      "type": "function"
    },
    {
      "inputs": [],
      "name": "mint",
      "outputs": [],
      "stateMutability": "nonpayable",
      "type": "function"
    },
    {
      "inputs": [],
      "name": "name",
      "outputs": [
        {
          "internalType": "string",
          "name": "",
          "type": "string"
        }
      ],
      "stateMutability": "view",
      "type": "function"
    },
    {
      "inputs": [],
      "name": "owner",
      "outputs": [
        {
          "internalType": "address",
          "name": "",
          "type": "address"
        }
      ],
      "stateMutability": "view",
      "type": "function"
    },
    {
      "inputs": [
        {
          "internalType": "uint256",
          "name": "tokenId",
          "type": "uint256"
        }
      ],
      "name": "ownerOf",
      "outputs": [
        {
          "internalType": "address",
          "name": "",
          "type": "address"
        }
      ],
      "stateMutability": "view",
      "type": "function"
    },
    {
      "inputs": [],
      "name": "renounceOwnership",
      "outputs": [],
      "stateMutability": "nonpayable",
      "type": "function"
    },
    {
      "inputs": [
        {
          "internalType": "address",
          "name": "from",
          "type": "address"
        },
        {
          "internalType": "address",
          "name": "to",
          "type": "address"
        },
        {
          "internalType": "uint256",
          "name": "tokenId",
          "type": "uint256"
        }
      ],
      "name": "safeTransferFrom",
      "outputs": [],
      "stateMutability": "nonpayable",
      "type": "function"
    },
    {
      "inputs": [
        {
          "internalType": "address",
          "name": "from",
          "type": "address"
        },
        {
          "internalType": "address",
          "name": "to",
          "type": "address"
        },
        {
          "internalType": "uint256",
          "name": "tokenId",
          "type": "uint256"
        },
        {
          "internalType": "bytes",
          "name": "_data",
          "type": "bytes"
        }
      ],
      "name": "safeTransferFrom",
      "outputs": [],
      "stateMutability": "nonpayable",
      "type": "function"
    },
    {
      "inputs": [],
      "name": "saleIsActive",
      "outputs": [
        {
          "internalType": "bool",
          "name": "",
          "type": "bool"
        }
      ],
      "stateMutability": "view",
      "type": "function"
    },
    {
      "inputs": [
        {
          "internalType": "address",
          "name": "operator",
          "type": "address"
        },
        {
          "internalType": "bool",
          "name": "approved",
          "type": "bool"
        }
      ],
      "name": "setApprovalForAll",
      "outputs": [],
      "stateMutability": "nonpayable",
      "type": "function"
    },
    {
      "inputs": [
        {
          "internalType": "string",
          "name": "customBaseURI_",
          "type": "string"
        }
      ],
      "name": "setBaseURI",
      "outputs": [],
      "stateMutability": "nonpayable",
      "type": "function"
    },
    {
      "inputs": [
        {
          "internalType": "bool",
          "name": "saleIsActive_",
          "type": "bool"
        }
      ],
      "name": "setSaleIsActive",
      "outputs": [],
      "stateMutability": "nonpayable",
      "type": "function"
    },
    {
      "inputs": [
        {
          "internalType": "bytes4",
          "name": "interfaceId",
          "type": "bytes4"
        }
      ],
      "name": "supportsInterface",
      "outputs": [
        {
          "internalType": "bool",
          "name": "",
          "type": "bool"
        }
      ],
      "stateMutability": "view",
      "type": "function"
    },
    {
      "inputs": [],
      "name": "symbol",
      "outputs": [
        {
          "internalType": "string",
          "name": "",
          "type": "string"
        }
      ],
      "stateMutability": "view",
      "type": "function"
    },
    {
      "inputs": [
        {
          "internalType": "uint256",
          "name": "tokenId",
          "type": "uint256"
        }
      ],
      "name": "tokenURI",
      "outputs": [
        {
          "internalType": "string",
          "name": "",
          "type": "string"
        }
      ],
      "stateMutability": "view",
      "type": "function"
    },
    {
      "inputs": [],
      "name": "totalSupply",
      "outputs": [
        {
          "internalType": "uint256",
          "name": "",
          "type": "uint256"
        }
      ],
      "stateMutability": "view",
      "type": "function"
    },
    {
      "inputs": [
        {
          "internalType": "address",
          "name": "from",
          "type": "address"
        },
        {
          "internalType": "address",
          "name": "to",
          "type": "address"
        },
        {
          "internalType": "uint256",
          "name": "tokenId",
          "type": "uint256"
        }
      ],
      "name": "transferFrom",
      "outputs": [],
      "stateMutability": "nonpayable",
      "type": "function"
    },
    {
      "inputs": [
        {
          "internalType": "address",
          "name": "newOwner",
          "type": "address"
        }
      ],
      "name": "transferOwnership",
      "outputs": [],
      "stateMutability": "nonpayable",
      "type": "function"
    }
  ],
  "address": "0x20a6D9dab893396375ADc86ED4E9F1cAC26B5dCB",
  "args": [
    "https://0xkiyo.xyz/metadata/"
  ],
  "bytecode": "0x60806040526000600b60006101000a81548160ff0219169083151502179055503480156200002c57600080fd5b50604051620038553803806200385583398181016040528101906200005291906200032a565b6040518060400160405280601681526020017f4b69796f2d73616e2042697274686461792032303231000000000000000000008152506040518060400160405280600681526020017f30784b69796f00000000000000000000000000000000000000000000000000008152508160009080519060200190620000d692919062000208565b508060019080519060200190620000ef92919062000208565b50505060016006819055506200011a6200010e6200013a60201b60201c565b6200014260201b60201c565b80600c90805190602001906200013292919062000208565b5050620004df565b600033905090565b6000600760009054906101000a900473ffffffffffffffffffffffffffffffffffffffff16905081600760006101000a81548173ffffffffffffffffffffffffffffffffffffffff021916908373ffffffffffffffffffffffffffffffffffffffff1602179055508173ffffffffffffffffffffffffffffffffffffffff168173ffffffffffffffffffffffffffffffffffffffff167f8be0079c531659141344cd1fd0a4f28419497f9722a3daafe3b4186f6b6457e060405160405180910390a35050565b828054620002169062000404565b90600052602060002090601f0160209004810192826200023a576000855562000286565b82601f106200025557805160ff191683800117855562000286565b8280016001018555821562000286579182015b828111156200028557825182559160200191906001019062000268565b5b50905062000295919062000299565b5090565b5b80821115620002b45760008160009055506001016200029a565b5090565b6000620002cf620002c98462000398565b6200036f565b905082815260208101848484011115620002e857600080fd5b620002f5848285620003ce565b509392505050565b600082601f8301126200030f57600080fd5b815162000321848260208601620002b8565b91505092915050565b6000602082840312156200033d57600080fd5b600082015167ffffffffffffffff8111156200035857600080fd5b6200036684828501620002fd565b91505092915050565b60006200037b6200038e565b90506200038982826200043a565b919050565b6000604051905090565b600067ffffffffffffffff821115620003b657620003b56200049f565b5b620003c182620004ce565b9050602081019050919050565b60005b83811015620003ee578082015181840152602081019050620003d1565b83811115620003fe576000848401525b50505050565b600060028204905060018216806200041d57607f821691505b6020821081141562000434576200043362000470565b5b50919050565b6200044582620004ce565b810181811067ffffffffffffffff821117156200046757620004666200049f565b5b80604052505050565b7f4e487b7100000000000000000000000000000000000000000000000000000000600052602260045260246000fd5b7f4e487b7100000000000000000000000000000000000000000000000000000000600052604160045260246000fd5b6000601f19601f8301169050919050565b61336680620004ef6000396000f3fe608060405234801561001057600080fd5b50600436106101585760003560e01c806370a08231116100c3578063bb660c0a1161007c578063bb660c0a1461038b578063c87b56dd146103bb578063d6c336ed146103eb578063e985e9c514610409578063eb8d244414610439578063f2fde38b1461045757610158565b806370a08231146102dd578063715018a61461030d5780638da5cb5b1461031757806395d89b4114610335578063a22cb46514610353578063b88d4fde1461036f57610158565b806318160ddd1161011557806318160ddd1461021d57806323b872dd1461023b57806332cb6b0c1461025757806342842e0e1461027557806355f804b3146102915780636352211e146102ad57610158565b806301ffc9a71461015d57806302c889891461018d57806306fdde03146101a9578063081812fc146101c7578063095ea7b3146101f75780631249c58b14610213575b600080fd5b61017760048036038101906101729190612248565b610473565b604051610184919061271b565b60405180910390f35b6101a760048036038101906101a2919061221f565b610555565b005b6101b16105ee565b6040516101be9190612736565b60405180910390f35b6101e160048036038101906101dc91906122db565b610680565b6040516101ee91906126b4565b60405180910390f35b610211600480360381019061020c91906121e3565b610705565b005b61021b61081d565b005b610225610999565b60405161023291906129d8565b60405180910390f35b610255600480360381019061025091906120dd565b6109aa565b005b61025f610a0a565b60405161026c91906129d8565b60405180910390f35b61028f600480360381019061028a91906120dd565b610a0f565b005b6102ab60048036038101906102a6919061229a565b610a2f565b005b6102c760048036038101906102c291906122db565b610ac5565b6040516102d491906126b4565b60405180910390f35b6102f760048036038101906102f29190612078565b610b77565b60405161030491906129d8565b60405180910390f35b610315610c2f565b005b61031f610cb7565b60405161032c91906126b4565b60405180910390f35b61033d610ce1565b60405161034a9190612736565b60405180910390f35b61036d600480360381019061036891906121a7565b610d73565b005b6103896004803603810190610384919061212c565b610ef4565b005b6103a560048036038101906103a09190612078565b610f56565b6040516103b291906129d8565b60405180910390f35b6103d560048036038101906103d091906122db565b610fab565b6040516103e29190612736565b60405180910390f35b6103f3611052565b60405161040091906129d8565b60405180910390f35b610423600480360381019061041e91906120a1565b611057565b604051610430919061271b565b60405180910390f35b6104416110eb565b60405161044e919061271b565b60405180910390f35b610471600480360381019061046c9190612078565b6110fe565b005b60007f80ac58cd000000000000000000000000000000000000000000000000000000007bffffffffffffffffffffffffffffffffffffffffffffffffffffffff1916827bffffffffffffffffffffffffffffffffffffffffffffffffffffffff1916148061053e57507f5b5e139f000000000000000000000000000000000000000000000000000000007bffffffffffffffffffffffffffffffffffffffffffffffffffffffff1916827bffffffffffffffffffffffffffffffffffffffffffffffffffffffff1916145b8061054e575061054d826111f6565b5b9050919050565b61055d611260565b73ffffffffffffffffffffffffffffffffffffffff1661057b610cb7565b73ffffffffffffffffffffffffffffffffffffffff16146105d1576040517f08c379a00000000000000000000000000000000000000000000000000000000081526004016105c890612918565b60405180910390fd5b80600b60006101000a81548160ff02191690831515021790555050565b6060600080546105fd90612c2e565b80601f016020809104026020016040519081016040528092919081815260200182805461062990612c2e565b80156106765780601f1061064b57610100808354040283529160200191610676565b820191906000526020600020905b81548152906001019060200180831161065957829003601f168201915b5050505050905090565b600061068b82611268565b6106ca576040517f08c379a00000000000000000000000000000000000000000000000000000000081526004016106c1906128f8565b60405180910390fd5b6004600083815260200190815260200160002060009054906101000a900473ffffffffffffffffffffffffffffffffffffffff169050919050565b600061071082610ac5565b90508073ffffffffffffffffffffffffffffffffffffffff168373ffffffffffffffffffffffffffffffffffffffff161415610781576040517f08c379a000000000000000000000000000000000000000000000000000000000815260040161077890612978565b60405180910390fd5b8073ffffffffffffffffffffffffffffffffffffffff166107a0611260565b73ffffffffffffffffffffffffffffffffffffffff1614806107cf57506107ce816107c9611260565b611057565b5b61080e576040517f08c379a000000000000000000000000000000000000000000000000000000000815260040161080590612858565b60405180910390fd5b61081883836112d4565b505050565b60026006541415610863576040517f08c379a000000000000000000000000000000000000000000000000000000000815260040161085a906129b8565b60405180910390fd5b6002600681905550600b60009054906101000a900460ff166108ba576040517f08c379a00000000000000000000000000000000000000000000000000000000081526004016108b190612838565b60405180910390fd5b60016108cc6108c7611260565b610f56565b106108e8576108e36108dc611260565b600161138d565b610923565b6040517f08c379a000000000000000000000000000000000000000000000000000000000815260040161091a90612818565b60405180910390fd5b601b61092d610999565b1061096d576040517f08c379a0000000000000000000000000000000000000000000000000000000008152600401610964906128b8565b60405180910390fd5b610985610978611260565b610980610999565b6113e7565b61098f600a611405565b6001600681905550565b60006109a5600a61141b565b905090565b6109bb6109b5611260565b82611429565b6109fa576040517f08c379a00000000000000000000000000000000000000000000000000000000081526004016109f190612998565b60405180910390fd5b610a05838383611507565b505050565b601b81565b610a2a83838360405180602001604052806000815250610ef4565b505050565b610a37611260565b73ffffffffffffffffffffffffffffffffffffffff16610a55610cb7565b73ffffffffffffffffffffffffffffffffffffffff1614610aab576040517f08c379a0000000000000000000000000000000000000000000000000000000008152600401610aa290612918565b60405180910390fd5b80600c9080519060200190610ac1929190611e9c565b5050565b6000806002600084815260200190815260200160002060009054906101000a900473ffffffffffffffffffffffffffffffffffffffff169050600073ffffffffffffffffffffffffffffffffffffffff168173ffffffffffffffffffffffffffffffffffffffff161415610b6e576040517f08c379a0000000000000000000000000000000000000000000000000000000008152600401610b6590612898565b60405180910390fd5b80915050919050565b60008073ffffffffffffffffffffffffffffffffffffffff168273ffffffffffffffffffffffffffffffffffffffff161415610be8576040517f08c379a0000000000000000000000000000000000000000000000000000000008152600401610bdf90612878565b60405180910390fd5b600360008373ffffffffffffffffffffffffffffffffffffffff1673ffffffffffffffffffffffffffffffffffffffff168152602001908152602001600020549050919050565b610c37611260565b73ffffffffffffffffffffffffffffffffffffffff16610c55610cb7565b73ffffffffffffffffffffffffffffffffffffffff1614610cab576040517f08c379a0000000000000000000000000000000000000000000000000000000008152600401610ca290612918565b60405180910390fd5b610cb56000611763565b565b6000600760009054906101000a900473ffffffffffffffffffffffffffffffffffffffff16905090565b606060018054610cf090612c2e565b80601f0160208091040260200160405190810160405280929190818152602001828054610d1c90612c2e565b8015610d695780601f10610d3e57610100808354040283529160200191610d69565b820191906000526020600020905b815481529060010190602001808311610d4c57829003601f168201915b5050505050905090565b610d7b611260565b73ffffffffffffffffffffffffffffffffffffffff168273ffffffffffffffffffffffffffffffffffffffff161415610de9576040517f08c379a0000000000000000000000000000000000000000000000000000000008152600401610de0906127d8565b60405180910390fd5b8060056000610df6611260565b73ffffffffffffffffffffffffffffffffffffffff1673ffffffffffffffffffffffffffffffffffffffff16815260200190815260200160002060008473ffffffffffffffffffffffffffffffffffffffff1673ffffffffffffffffffffffffffffffffffffffff16815260200190815260200160002060006101000a81548160ff0219169083151502179055508173ffffffffffffffffffffffffffffffffffffffff16610ea3611260565b73ffffffffffffffffffffffffffffffffffffffff167f17307eab39ab6107e8899845ad3d59bd9653f200f220920489ca2b5937696c3183604051610ee8919061271b565b60405180910390a35050565b610f05610eff611260565b83611429565b610f44576040517f08c379a0000000000000000000000000000000000000000000000000000000008152600401610f3b90612998565b60405180910390fd5b610f5084848484611829565b50505050565b6000600860008373ffffffffffffffffffffffffffffffffffffffff1673ffffffffffffffffffffffffffffffffffffffff168152602001908152602001600020546001610fa49190612b44565b9050919050565b6060610fb682611268565b610ff5576040517f08c379a0000000000000000000000000000000000000000000000000000000008152600401610fec90612958565b60405180910390fd5b6000610fff611885565b9050600081511161101f576040518060200160405280600081525061104a565b8061102984611917565b60405160200161103a929190612690565b6040516020818303038152906040525b915050919050565b600181565b6000600560008473ffffffffffffffffffffffffffffffffffffffff1673ffffffffffffffffffffffffffffffffffffffff16815260200190815260200160002060008373ffffffffffffffffffffffffffffffffffffffff1673ffffffffffffffffffffffffffffffffffffffff16815260200190815260200160002060009054906101000a900460ff16905092915050565b600b60009054906101000a900460ff1681565b611106611260565b73ffffffffffffffffffffffffffffffffffffffff16611124610cb7565b73ffffffffffffffffffffffffffffffffffffffff161461117a576040517f08c379a000000000000000000000000000000000000000000000000000000000815260040161117190612918565b60405180910390fd5b600073ffffffffffffffffffffffffffffffffffffffff168173ffffffffffffffffffffffffffffffffffffffff1614156111ea576040517f08c379a00000000000000000000000000000000000000000000000000000000081526004016111e190612778565b60405180910390fd5b6111f381611763565b50565b60007f01ffc9a7000000000000000000000000000000000000000000000000000000007bffffffffffffffffffffffffffffffffffffffffffffffffffffffff1916827bffffffffffffffffffffffffffffffffffffffffffffffffffffffff1916149050919050565b600033905090565b60008073ffffffffffffffffffffffffffffffffffffffff166002600084815260200190815260200160002060009054906101000a900473ffffffffffffffffffffffffffffffffffffffff1673ffffffffffffffffffffffffffffffffffffffff1614159050919050565b816004600083815260200190815260200160002060006101000a81548173ffffffffffffffffffffffffffffffffffffffff021916908373ffffffffffffffffffffffffffffffffffffffff160217905550808273ffffffffffffffffffffffffffffffffffffffff1661134783610ac5565b73ffffffffffffffffffffffffffffffffffffffff167f8c5be1e5ebec7d5bd14f71427d1e84f3dd0314c0f7b2291e5b200ac8c7c3b92560405160405180910390a45050565b80600860008473ffffffffffffffffffffffffffffffffffffffff1673ffffffffffffffffffffffffffffffffffffffff16815260200190815260200160002060008282546113dc9190612abd565b925050819055505050565b611401828260405180602001604052806000815250611ac4565b5050565b6001816000016000828254019250508190555050565b600081600001549050919050565b600061143482611268565b611473576040517f08c379a000000000000000000000000000000000000000000000000000000000815260040161146a906127f8565b60405180910390fd5b600061147e83610ac5565b90508073ffffffffffffffffffffffffffffffffffffffff168473ffffffffffffffffffffffffffffffffffffffff1614806114ed57508373ffffffffffffffffffffffffffffffffffffffff166114d584610680565b73ffffffffffffffffffffffffffffffffffffffff16145b806114fe57506114fd8185611057565b5b91505092915050565b8273ffffffffffffffffffffffffffffffffffffffff1661152782610ac5565b73ffffffffffffffffffffffffffffffffffffffff161461157d576040517f08c379a000000000000000000000000000000000000000000000000000000000815260040161157490612938565b60405180910390fd5b600073ffffffffffffffffffffffffffffffffffffffff168273ffffffffffffffffffffffffffffffffffffffff1614156115ed576040517f08c379a00000000000000000000000000000000000000000000000000000000081526004016115e4906127b8565b60405180910390fd5b6115f8838383611b1f565b6116036000826112d4565b6001600360008573ffffffffffffffffffffffffffffffffffffffff1673ffffffffffffffffffffffffffffffffffffffff16815260200190815260200160002060008282546116539190612b44565b925050819055506001600360008473ffffffffffffffffffffffffffffffffffffffff1673ffffffffffffffffffffffffffffffffffffffff16815260200190815260200160002060008282546116aa9190612abd565b92505081905550816002600083815260200190815260200160002060006101000a81548173ffffffffffffffffffffffffffffffffffffffff021916908373ffffffffffffffffffffffffffffffffffffffff160217905550808273ffffffffffffffffffffffffffffffffffffffff168473ffffffffffffffffffffffffffffffffffffffff167fddf252ad1be2c89b69c2b068fc378daa952ba7f163c4a11628f55a4df523b3ef60405160405180910390a4505050565b6000600760009054906101000a900473ffffffffffffffffffffffffffffffffffffffff16905081600760006101000a81548173ffffffffffffffffffffffffffffffffffffffff021916908373ffffffffffffffffffffffffffffffffffffffff1602179055508173ffffffffffffffffffffffffffffffffffffffff168173ffffffffffffffffffffffffffffffffffffffff167f8be0079c531659141344cd1fd0a4f28419497f9722a3daafe3b4186f6b6457e060405160405180910390a35050565b611834848484611507565b61184084848484611b24565b61187f576040517f08c379a000000000000000000000000000000000000000000000000000000000815260040161187690612758565b60405180910390fd5b50505050565b6060600c805461189490612c2e565b80601f01602080910402602001604051908101604052809291908181526020018280546118c090612c2e565b801561190d5780601f106118e25761010080835404028352916020019161190d565b820191906000526020600020905b8154815290600101906020018083116118f057829003601f168201915b5050505050905090565b6060600082141561195f576040518060400160405280600181526020017f30000000000000000000000000000000000000000000000000000000000000008152509050611abf565b600082905060005b6000821461199157808061197a90612c91565b915050600a8261198a9190612b13565b9150611967565b60008167ffffffffffffffff8111156119d3577f4e487b7100000000000000000000000000000000000000000000000000000000600052604160045260246000fd5b6040519080825280601f01601f191660200182016040528015611a055781602001600182028036833780820191505090505b5090505b60008514611ab857600182611a1e9190612b44565b9150600a85611a2d9190612cda565b6030611a399190612abd565b60f81b818381518110611a75577f4e487b7100000000000000000000000000000000000000000000000000000000600052603260045260246000fd5b60200101907effffffffffffffffffffffffffffffffffffffffffffffffffffffffffffff1916908160001a905350600a85611ab19190612b13565b9450611a09565b8093505050505b919050565b611ace8383611cbb565b611adb6000848484611b24565b611b1a576040517f08c379a0000000000000000000000000000000000000000000000000000000008152600401611b1190612758565b60405180910390fd5b505050565b505050565b6000611b458473ffffffffffffffffffffffffffffffffffffffff16611e89565b15611cae578373ffffffffffffffffffffffffffffffffffffffff1663150b7a02611b6e611260565b8786866040518563ffffffff1660e01b8152600401611b9094939291906126cf565b602060405180830381600087803b158015611baa57600080fd5b505af1925050508015611bdb57506040513d601f19601f82011682018060405250810190611bd89190612271565b60015b611c5e573d8060008114611c0b576040519150601f19603f3d011682016040523d82523d6000602084013e611c10565b606091505b50600081511415611c56576040517f08c379a0000000000000000000000000000000000000000000000000000000008152600401611c4d90612758565b60405180910390fd5b805181602001fd5b63150b7a0260e01b7bffffffffffffffffffffffffffffffffffffffffffffffffffffffff1916817bffffffffffffffffffffffffffffffffffffffffffffffffffffffff191614915050611cb3565b600190505b949350505050565b600073ffffffffffffffffffffffffffffffffffffffff168273ffffffffffffffffffffffffffffffffffffffff161415611d2b576040517f08c379a0000000000000000000000000000000000000000000000000000000008152600401611d22906128d8565b60405180910390fd5b611d3481611268565b15611d74576040517f08c379a0000000000000000000000000000000000000000000000000000000008152600401611d6b90612798565b60405180910390fd5b611d8060008383611b1f565b6001600360008473ffffffffffffffffffffffffffffffffffffffff1673ffffffffffffffffffffffffffffffffffffffff1681526020019081526020016000206000828254611dd09190612abd565b92505081905550816002600083815260200190815260200160002060006101000a81548173ffffffffffffffffffffffffffffffffffffffff021916908373ffffffffffffffffffffffffffffffffffffffff160217905550808273ffffffffffffffffffffffffffffffffffffffff16600073ffffffffffffffffffffffffffffffffffffffff167fddf252ad1be2c89b69c2b068fc378daa952ba7f163c4a11628f55a4df523b3ef60405160405180910390a45050565b600080823b905060008111915050919050565b828054611ea890612c2e565b90600052602060002090601f016020900481019282611eca5760008555611f11565b82601f10611ee357805160ff1916838001178555611f11565b82800160010185558215611f11579182015b82811115611f10578251825591602001919060010190611ef5565b5b509050611f1e9190611f22565b5090565b5b80821115611f3b576000816000905550600101611f23565b5090565b6000611f52611f4d84612a18565b6129f3565b905082815260208101848484011115611f6a57600080fd5b611f75848285612bec565b509392505050565b6000611f90611f8b84612a49565b6129f3565b905082815260208101848484011115611fa857600080fd5b611fb3848285612bec565b509392505050565b600081359050611fca816132d4565b92915050565b600081359050611fdf816132eb565b92915050565b600081359050611ff481613302565b92915050565b60008151905061200981613302565b92915050565b600082601f83011261202057600080fd5b8135612030848260208601611f3f565b91505092915050565b600082601f83011261204a57600080fd5b813561205a848260208601611f7d565b91505092915050565b60008135905061207281613319565b92915050565b60006020828403121561208a57600080fd5b600061209884828501611fbb565b91505092915050565b600080604083850312156120b457600080fd5b60006120c285828601611fbb565b92505060206120d385828601611fbb565b9150509250929050565b6000806000606084860312156120f257600080fd5b600061210086828701611fbb565b935050602061211186828701611fbb565b925050604061212286828701612063565b9150509250925092565b6000806000806080858703121561214257600080fd5b600061215087828801611fbb565b945050602061216187828801611fbb565b935050604061217287828801612063565b925050606085013567ffffffffffffffff81111561218f57600080fd5b61219b8782880161200f565b91505092959194509250565b600080604083850312156121ba57600080fd5b60006121c885828601611fbb565b92505060206121d985828601611fd0565b9150509250929050565b600080604083850312156121f657600080fd5b600061220485828601611fbb565b925050602061221585828601612063565b9150509250929050565b60006020828403121561223157600080fd5b600061223f84828501611fd0565b91505092915050565b60006020828403121561225a57600080fd5b600061226884828501611fe5565b91505092915050565b60006020828403121561228357600080fd5b600061229184828501611ffa565b91505092915050565b6000602082840312156122ac57600080fd5b600082013567ffffffffffffffff8111156122c657600080fd5b6122d284828501612039565b91505092915050565b6000602082840312156122ed57600080fd5b60006122fb84828501612063565b91505092915050565b61230d81612b78565b82525050565b61231c81612b8a565b82525050565b600061232d82612a7a565b6123378185612a90565b9350612347818560208601612bfb565b61235081612dc7565b840191505092915050565b600061236682612a85565b6123708185612aa1565b9350612380818560208601612bfb565b61238981612dc7565b840191505092915050565b600061239f82612a85565b6123a98185612ab2565b93506123b9818560208601612bfb565b80840191505092915050565b60006123d2603283612aa1565b91506123dd82612dd8565b604082019050919050565b60006123f5602683612aa1565b915061240082612e27565b604082019050919050565b6000612418601c83612aa1565b915061242382612e76565b602082019050919050565b600061243b602483612aa1565b915061244682612e9f565b604082019050919050565b600061245e601983612aa1565b915061246982612eee565b602082019050919050565b6000612481602c83612aa1565b915061248c82612f17565b604082019050919050565b60006124a4601683612aa1565b91506124af82612f66565b602082019050919050565b60006124c7600f83612aa1565b91506124d282612f8f565b602082019050919050565b60006124ea603883612aa1565b91506124f582612fb8565b604082019050919050565b600061250d602a83612aa1565b915061251882613007565b604082019050919050565b6000612530602983612aa1565b915061253b82613056565b604082019050919050565b6000612553601283612aa1565b915061255e826130a5565b602082019050919050565b6000612576602083612aa1565b9150612581826130ce565b602082019050919050565b6000612599602c83612aa1565b91506125a4826130f7565b604082019050919050565b60006125bc602083612aa1565b91506125c782613146565b602082019050919050565b60006125df602983612aa1565b91506125ea8261316f565b604082019050919050565b6000612602602f83612aa1565b915061260d826131be565b604082019050919050565b6000612625602183612aa1565b91506126308261320d565b604082019050919050565b6000612648603183612aa1565b91506126538261325c565b604082019050919050565b600061266b601f83612aa1565b9150612676826132ab565b602082019050919050565b61268a81612be2565b82525050565b600061269c8285612394565b91506126a88284612394565b91508190509392505050565b60006020820190506126c96000830184612304565b92915050565b60006080820190506126e46000830187612304565b6126f16020830186612304565b6126fe6040830185612681565b81810360608301526127108184612322565b905095945050505050565b60006020820190506127306000830184612313565b92915050565b60006020820190508181036000830152612750818461235b565b905092915050565b60006020820190508181036000830152612771816123c5565b9050919050565b60006020820190508181036000830152612791816123e8565b9050919050565b600060208201905081810360008301526127b18161240b565b9050919050565b600060208201905081810360008301526127d18161242e565b9050919050565b600060208201905081810360008301526127f181612451565b9050919050565b6000602082019050818103600083015261281181612474565b9050919050565b6000602082019050818103600083015261283181612497565b9050919050565b60006020820190508181036000830152612851816124ba565b9050919050565b60006020820190508181036000830152612871816124dd565b9050919050565b6000602082019050818103600083015261289181612500565b9050919050565b600060208201905081810360008301526128b181612523565b9050919050565b600060208201905081810360008301526128d181612546565b9050919050565b600060208201905081810360008301526128f181612569565b9050919050565b600060208201905081810360008301526129118161258c565b9050919050565b60006020820190508181036000830152612931816125af565b9050919050565b60006020820190508181036000830152612951816125d2565b9050919050565b60006020820190508181036000830152612971816125f5565b9050919050565b6000602082019050818103600083015261299181612618565b9050919050565b600060208201905081810360008301526129b18161263b565b9050919050565b600060208201905081810360008301526129d18161265e565b9050919050565b60006020820190506129ed6000830184612681565b92915050565b60006129fd612a0e565b9050612a098282612c60565b919050565b6000604051905090565b600067ffffffffffffffff821115612a3357612a32612d98565b5b612a3c82612dc7565b9050602081019050919050565b600067ffffffffffffffff821115612a6457612a63612d98565b5b612a6d82612dc7565b9050602081019050919050565b600081519050919050565b600081519050919050565b600082825260208201905092915050565b600082825260208201905092915050565b600081905092915050565b6000612ac882612be2565b9150612ad383612be2565b9250827fffffffffffffffffffffffffffffffffffffffffffffffffffffffffffffffff03821115612b0857612b07612d0b565b5b828201905092915050565b6000612b1e82612be2565b9150612b2983612be2565b925082612b3957612b38612d3a565b5b828204905092915050565b6000612b4f82612be2565b9150612b5a83612be2565b925082821015612b6d57612b6c612d0b565b5b828203905092915050565b6000612b8382612bc2565b9050919050565b60008115159050919050565b60007fffffffff0000000000000000000000000000000000000000000000000000000082169050919050565b600073ffffffffffffffffffffffffffffffffffffffff82169050919050565b6000819050919050565b82818337600083830152505050565b60005b83811015612c19578082015181840152602081019050612bfe565b83811115612c28576000848401525b50505050565b60006002820490506001821680612c4657607f821691505b60208210811415612c5a57612c59612d69565b5b50919050565b612c6982612dc7565b810181811067ffffffffffffffff82111715612c8857612c87612d98565b5b80604052505050565b6000612c9c82612be2565b91507fffffffffffffffffffffffffffffffffffffffffffffffffffffffffffffffff821415612ccf57612cce612d0b565b5b600182019050919050565b6000612ce582612be2565b9150612cf083612be2565b925082612d0057612cff612d3a565b5b828206905092915050565b7f4e487b7100000000000000000000000000000000000000000000000000000000600052601160045260246000fd5b7f4e487b7100000000000000000000000000000000000000000000000000000000600052601260045260246000fd5b7f4e487b7100000000000000000000000000000000000000000000000000000000600052602260045260246000fd5b7f4e487b7100000000000000000000000000000000000000000000000000000000600052604160045260246000fd5b6000601f19601f8301169050919050565b7f4552433732313a207472616e7366657220746f206e6f6e20455243373231526560008201527f63656976657220696d706c656d656e7465720000000000000000000000000000602082015250565b7f4f776e61626c653a206e6577206f776e657220697320746865207a65726f206160008201527f6464726573730000000000000000000000000000000000000000000000000000602082015250565b7f4552433732313a20746f6b656e20616c7265616479206d696e74656400000000600082015250565b7f4552433732313a207472616e7366657220746f20746865207a65726f2061646460008201527f7265737300000000000000000000000000000000000000000000000000000000602082015250565b7f4552433732313a20617070726f766520746f2063616c6c657200000000000000600082015250565b7f4552433732313a206f70657261746f7220717565727920666f72206e6f6e657860008201527f697374656e7420746f6b656e0000000000000000000000000000000000000000602082015250565b7f4d696e74696e67206c696d697420657863656564656400000000000000000000600082015250565b7f53616c65206e6f74206163746976650000000000000000000000000000000000600082015250565b7f4552433732313a20617070726f76652063616c6c6572206973206e6f74206f7760008201527f6e6572206e6f7220617070726f76656420666f7220616c6c0000000000000000602082015250565b7f4552433732313a2062616c616e636520717565727920666f7220746865207a6560008201527f726f206164647265737300000000000000000000000000000000000000000000602082015250565b7f4552433732313a206f776e657220717565727920666f72206e6f6e657869737460008201527f656e7420746f6b656e0000000000000000000000000000000000000000000000602082015250565b7f45786365656473206d617820737570706c790000000000000000000000000000600082015250565b7f4552433732313a206d696e7420746f20746865207a65726f2061646472657373600082015250565b7f4552433732313a20617070726f76656420717565727920666f72206e6f6e657860008201527f697374656e7420746f6b656e0000000000000000000000000000000000000000602082015250565b7f4f776e61626c653a2063616c6c6572206973206e6f7420746865206f776e6572600082015250565b7f4552433732313a207472616e73666572206f6620746f6b656e2074686174206960008201527f73206e6f74206f776e0000000000000000000000000000000000000000000000602082015250565b7f4552433732314d657461646174613a2055524920717565727920666f72206e6f60008201527f6e6578697374656e7420746f6b656e0000000000000000000000000000000000602082015250565b7f4552433732313a20617070726f76616c20746f2063757272656e74206f776e6560008201527f7200000000000000000000000000000000000000000000000000000000000000602082015250565b7f4552433732313a207472616e736665722063616c6c6572206973206e6f74206f60008201527f776e6572206e6f7220617070726f766564000000000000000000000000000000602082015250565b7f5265656e7472616e637947756172643a207265656e7472616e742063616c6c00600082015250565b6132dd81612b78565b81146132e857600080fd5b50565b6132f481612b8a565b81146132ff57600080fd5b50565b61330b81612b96565b811461331657600080fd5b50565b61332281612be2565b811461332d57600080fd5b5056fea26469706673582212209a2b6915ce98b5f944e4198f2660c2a9bcdbe08142f9c33a724c9255d7211f5f64736f6c63430008040033",
  "devdoc": {
    "kind": "dev",
    "methods": {
      "approve(address,uint256)": {
        "details": "See {IERC721-approve}."
      },
      "balanceOf(address)": {
        "details": "See {IERC721-balanceOf}."
      },
      "getApproved(uint256)": {
        "details": "See {IERC721-getApproved}."
      },
      "isApprovedForAll(address,address)": {
        "details": "See {IERC721-isApprovedForAll}."
      },
      "name()": {
        "details": "See {IERC721Metadata-name}."
      },
      "owner()": {
        "details": "Returns the address of the current owner."
      },
      "ownerOf(uint256)": {
        "details": "See {IERC721-ownerOf}."
      },
      "renounceOwnership()": {
        "details": "Leaves the contract without owner. It will not be possible to call `onlyOwner` functions anymore. Can only be called by the current owner. NOTE: Renouncing ownership will leave the contract without an owner, thereby removing any functionality that is only available to the owner."
      },
      "safeTransferFrom(address,address,uint256)": {
        "details": "See {IERC721-safeTransferFrom}."
      },
      "safeTransferFrom(address,address,uint256,bytes)": {
        "details": "See {IERC721-safeTransferFrom}."
      },
      "setApprovalForAll(address,bool)": {
        "details": "See {IERC721-setApprovalForAll}."
      },
      "supportsInterface(bytes4)": {
        "details": "See {IERC165-supportsInterface}."
      },
      "symbol()": {
        "details": "See {IERC721Metadata-symbol}."
      },
      "tokenURI(uint256)": {
        "details": "See {IERC721Metadata-tokenURI}."
      },
      "transferFrom(address,address,uint256)": {
        "details": "See {IERC721-transferFrom}."
      },
      "transferOwnership(address)": {
        "details": "Transfers ownership of the contract to a new account (`newOwner`). Can only be called by the current owner."
      }
    },
    "version": 1
  },
  "solcInputHash": "74d5738ba2ba0872c49a7c103714c75e",
  "storageLayout": {
    "storage": [
      {
        "astId": 442,
        "contract": "contracts/0xKiyo/src/0xKiyo.sol:KiyoSanBirthday",
        "label": "_name",
        "offset": 0,
        "slot": "0",
        "type": "t_string_storage"
      },
      {
        "astId": 444,
        "contract": "contracts/0xKiyo/src/0xKiyo.sol:KiyoSanBirthday",
        "label": "_symbol",
        "offset": 0,
        "slot": "1",
        "type": "t_string_storage"
      },
      {
        "astId": 448,
        "contract": "contracts/0xKiyo/src/0xKiyo.sol:KiyoSanBirthday",
        "label": "_owners",
        "offset": 0,
        "slot": "2",
        "type": "t_mapping(t_uint256,t_address)"
      },
      {
        "astId": 452,
        "contract": "contracts/0xKiyo/src/0xKiyo.sol:KiyoSanBirthday",
        "label": "_balances",
        "offset": 0,
        "slot": "3",
        "type": "t_mapping(t_address,t_uint256)"
      },
      {
        "astId": 456,
        "contract": "contracts/0xKiyo/src/0xKiyo.sol:KiyoSanBirthday",
        "label": "_tokenApprovals",
        "offset": 0,
        "slot": "4",
        "type": "t_mapping(t_uint256,t_address)"
      },
      {
        "astId": 462,
        "contract": "contracts/0xKiyo/src/0xKiyo.sol:KiyoSanBirthday",
        "label": "_operatorApprovals",
        "offset": 0,
        "slot": "5",
        "type": "t_mapping(t_address,t_mapping(t_address,t_bool))"
      },
      {
        "astId": 387,
        "contract": "contracts/0xKiyo/src/0xKiyo.sol:KiyoSanBirthday",
        "label": "_status",
        "offset": 0,
        "slot": "6",
        "type": "t_uint256"
      },
      {
        "astId": 280,
        "contract": "contracts/0xKiyo/src/0xKiyo.sol:KiyoSanBirthday",
        "label": "_owner",
        "offset": 0,
        "slot": "7",
        "type": "t_address"
      },
      {
        "astId": 2187,
        "contract": "contracts/0xKiyo/src/0xKiyo.sol:KiyoSanBirthday",
        "label": "mintCountMap",
        "offset": 0,
        "slot": "8",
        "type": "t_mapping(t_address,t_uint256)"
      },
      {
        "astId": 2191,
        "contract": "contracts/0xKiyo/src/0xKiyo.sol:KiyoSanBirthday",
        "label": "allowedMintCountMap",
        "offset": 0,
        "slot": "9",
        "type": "t_mapping(t_address,t_uint256)"
      },
      {
        "astId": 2228,
        "contract": "contracts/0xKiyo/src/0xKiyo.sol:KiyoSanBirthday",
        "label": "supplyCounter",
        "offset": 0,
        "slot": "10",
        "type": "t_struct(Counter)1846_storage"
      },
      {
        "astId": 2291,
        "contract": "contracts/0xKiyo/src/0xKiyo.sol:KiyoSanBirthday",
        "label": "saleIsActive",
        "offset": 0,
        "slot": "11",
        "type": "t_bool"
      },
      {
        "astId": 2305,
        "contract": "contracts/0xKiyo/src/0xKiyo.sol:KiyoSanBirthday",
        "label": "customBaseURI",
        "offset": 0,
        "slot": "12",
        "type": "t_string_storage"
      }
    ],
    "types": {
      "t_address": {
        "encoding": "inplace",
        "label": "address",
        "numberOfBytes": "20"
      },
      "t_bool": {
        "encoding": "inplace",
        "label": "bool",
        "numberOfBytes": "1"
      },
      "t_mapping(t_address,t_bool)": {
        "encoding": "mapping",
        "key": "t_address",
        "label": "mapping(address => bool)",
        "numberOfBytes": "32",
        "value": "t_bool"
      },
      "t_mapping(t_address,t_mapping(t_address,t_bool))": {
        "encoding": "mapping",
        "key": "t_address",
        "label": "mapping(address => mapping(address => bool))",
        "numberOfBytes": "32",
        "value": "t_mapping(t_address,t_bool)"
      },
      "t_mapping(t_address,t_uint256)": {
        "encoding": "mapping",
        "key": "t_address",
        "label": "mapping(address => uint256)",
        "numberOfBytes": "32",
        "value": "t_uint256"
      },
      "t_mapping(t_uint256,t_address)": {
        "encoding": "mapping",
        "key": "t_uint256",
        "label": "mapping(uint256 => address)",
        "numberOfBytes": "32",
        "value": "t_address"
      },
      "t_string_storage": {
        "encoding": "bytes",
        "label": "string",
        "numberOfBytes": "32"
      },
      "t_struct(Counter)1846_storage": {
        "encoding": "inplace",
        "label": "struct Counters.Counter",
        "members": [
          {
            "astId": 1845,
            "contract": "contracts/0xKiyo/src/0xKiyo.sol:KiyoSanBirthday",
            "label": "_value",
            "offset": 0,
            "slot": "0",
            "type": "t_uint256"
          }
        ],
        "numberOfBytes": "32"
      },
      "t_uint256": {
        "encoding": "inplace",
        "label": "uint256",
        "numberOfBytes": "32"
      }
    }
  },
  "transactionHash": "0x0c91a0f4eeb26fcd60e51343077ee881cf4ecfdb11beab8259821d29f53480c9",
  "userdoc": {
    "kind": "user",
    "methods": {},
    "version": 1
  }
}