{
  "abi": [
    {
      "inputs": [
        {
          "internalType": "string",
          "name": "customBaseURI_",
          "type": "string"
        }
      ],
      "stateMutability": "nonpayable",
      "type": "constructor"
    },
    {
      "anonymous": false,
      "inputs": [
        {
          "indexed": true,
          "internalType": "address",
          "name": "owner",
          "type": "address"
        },
        {
          "indexed": true,
          "internalType": "address",
          "name": "approved",
          "type": "address"
        },
        {
          "indexed": true,
          "internalType": "uint256",
          "name": "tokenId",
          "type": "uint256"
        }
      ],
      "name": "Approval",
      "type": "event"
    },
    {
      "anonymous": false,
      "inputs": [
        {
          "indexed": true,
          "internalType": "address",
          "name": "owner",
          "type": "address"
        },
        {
          "indexed": true,
          "internalType": "address",
          "name": "operator",
          "type": "address"
        },
        {
          "indexed": false,
          "internalType": "bool",
          "name": "approved",
          "type": "bool"
        }
      ],
      "name": "ApprovalForAll",
      "type": "event"
    },
    {
      "anonymous": false,
      "inputs": [
        {
          "indexed": true,
          "internalType": "address",
          "name": "previousOwner",
          "type": "address"
        },
        {
          "indexed": true,
          "internalType": "address",
          "name": "newOwner",
          "type": "address"
        }
      ],
      "name": "OwnershipTransferred",
      "type": "event"
    },
    {
      "anonymous": false,
      "inputs": [
        {
          "indexed": true,
          "internalType": "address",
          "name": "from",
          "type": "address"
        },
        {
          "indexed": true,
          "internalType": "address",
          "name": "to",
          "type": "address"
        },
        {
          "indexed": true,
          "internalType": "uint256",
          "name": "tokenId",
          "type": "uint256"
        }
      ],
      "name": "Transfer",
      "type": "event"
    },
    {
      "inputs": [],
      "name": "MAX_SUPPLY",
      "outputs": [
        {
          "internalType": "uint256",
          "name": "",
          "type": "uint256"
        }
      ],
      "stateMutability": "view",
      "type": "function"
    },
    {
      "inputs": [],
      "name": "MINT_LIMIT_PER_WALLET",
      "outputs": [
        {
          "internalType": "uint256",
          "name": "",
          "type": "uint256"
        }
      ],
      "stateMutability": "view",
      "type": "function"
    },
    {
      "inputs": [
        {
          "internalType": "address",
          "name": "minter",
          "type": "address"
        }
      ],
      "name": "allowedMintCount",
      "outputs": [
        {
          "internalType": "uint256",
          "name": "",
          "type": "uint256"
        }
      ],
      "stateMutability": "view",
      "type": "function"
    },
    {
      "inputs": [
        {
          "internalType": "address",
          "name": "to",
          "type": "address"
        },
        {
          "internalType": "uint256",
          "name": "tokenId",
          "type": "uint256"
        }
      ],
      "name": "approve",
      "outputs": [],
      "stateMutability": "nonpayable",
      "type": "function"
    },
    {
      "inputs": [
        {
          "internalType": "address",
          "name": "owner",
          "type": "address"
        }
      ],
      "name": "balanceOf",
      "outputs": [
        {
          "internalType": "uint256",
          "name": "",
          "type": "uint256"
        }
      ],
      "stateMutability": "view",
      "type": "function"
    },
    {
      "inputs": [
        {
          "internalType": "uint256",
          "name": "tokenId",
          "type": "uint256"
        }
      ],
      "name": "getApproved",
      "outputs": [
        {
          "internalType": "address",
          "name": "",
          "type": "address"
        }
      ],
      "stateMutability": "view",
      "type": "function"
    },
    {
      "inputs": [
        {
          "internalType": "address",
          "name": "owner",
          "type": "address"
        },
        {
          "internalType": "address",
          "name": "operator",
          "type": "address"
        }
      ],
      "name": "isApprovedForAll",
      "outputs": [
        {
          "internalType": "bool",
          "name": "",
          "type": "bool"
        }
      ],
      "stateMutability": "view",
      "type": "function"
    },
    {
      "inputs": [],
      "name": "mint",
      "outputs": [],
      "stateMutability": "nonpayable",
      "type": "function"
    },
    {
      "inputs": [],
      "name": "name",
      "outputs": [
        {
          "internalType": "string",
          "name": "",
          "type": "string"
        }
      ],
      "stateMutability": "view",
      "type": "function"
    },
    {
      "inputs": [],
      "name": "owner",
      "outputs": [
        {
          "internalType": "address",
          "name": "",
          "type": "address"
        }
      ],
      "stateMutability": "view",
      "type": "function"
    },
    {
      "inputs": [
        {
          "internalType": "uint256",
          "name": "tokenId",
          "type": "uint256"
        }
      ],
      "name": "ownerOf",
      "outputs": [
        {
          "internalType": "address",
          "name": "",
          "type": "address"
        }
      ],
      "stateMutability": "view",
      "type": "function"
    },
    {
      "inputs": [],
      "name": "renounceOwnership",
      "outputs": [],
      "stateMutability": "nonpayable",
      "type": "function"
    },
    {
      "inputs": [
        {
          "internalType": "address",
          "name": "from",
          "type": "address"
        },
        {
          "internalType": "address",
          "name": "to",
          "type": "address"
        },
        {
          "internalType": "uint256",
          "name": "tokenId",
          "type": "uint256"
        }
      ],
      "name": "safeTransferFrom",
      "outputs": [],
      "stateMutability": "nonpayable",
      "type": "function"
    },
    {
      "inputs": [
        {
          "internalType": "address",
          "name": "from",
          "type": "address"
        },
        {
          "internalType": "address",
          "name": "to",
          "type": "address"
        },
        {
          "internalType": "uint256",
          "name": "tokenId",
          "type": "uint256"
        },
        {
          "internalType": "bytes",
          "name": "_data",
          "type": "bytes"
        }
      ],
      "name": "safeTransferFrom",
      "outputs": [],
      "stateMutability": "nonpayable",
      "type": "function"
    },
    {
      "inputs": [
        {
          "internalType": "address",
          "name": "operator",
          "type": "address"
        },
        {
          "internalType": "bool",
          "name": "approved",
          "type": "bool"
        }
      ],
      "name": "setApprovalForAll",
      "outputs": [],
      "stateMutability": "nonpayable",
      "type": "function"
    },
    {
      "inputs": [
        {
          "internalType": "string",
          "name": "customBaseURI_",
          "type": "string"
        }
      ],
      "name": "setBaseURI",
      "outputs": [],
      "stateMutability": "nonpayable",
      "type": "function"
    },
    {
      "inputs": [
        {
          "internalType": "bytes4",
          "name": "interfaceId",
          "type": "bytes4"
        }
      ],
      "name": "supportsInterface",
      "outputs": [
        {
          "internalType": "bool",
          "name": "",
          "type": "bool"
        }
      ],
      "stateMutability": "view",
      "type": "function"
    },
    {
      "inputs": [],
      "name": "symbol",
      "outputs": [
        {
          "internalType": "string",
          "name": "",
          "type": "string"
        }
      ],
      "stateMutability": "view",
      "type": "function"
    },
    {
      "inputs": [
        {
          "internalType": "uint256",
          "name": "tokenId",
          "type": "uint256"
        }
      ],
      "name": "tokenURI",
      "outputs": [
        {
          "internalType": "string",
          "name": "",
          "type": "string"
        }
      ],
      "stateMutability": "view",
      "type": "function"
    },
    {
      "inputs": [],
      "name": "totalSupply",
      "outputs": [
        {
          "internalType": "uint256",
          "name": "",
          "type": "uint256"
        }
      ],
      "stateMutability": "view",
      "type": "function"
    },
    {
      "inputs": [
        {
          "internalType": "address",
          "name": "from",
          "type": "address"
        },
        {
          "internalType": "address",
          "name": "to",
          "type": "address"
        },
        {
          "internalType": "uint256",
          "name": "tokenId",
          "type": "uint256"
        }
      ],
      "name": "transferFrom",
      "outputs": [],
      "stateMutability": "nonpayable",
      "type": "function"
    },
    {
      "inputs": [
        {
          "internalType": "address",
          "name": "newOwner",
          "type": "address"
        }
      ],
      "name": "transferOwnership",
      "outputs": [],
      "stateMutability": "nonpayable",
      "type": "function"
    }
  ],
  "address": "0x29CF93705A5Ae921c6E5B13294C700e68AA2Ff83",
  "args": [
    "https://0xkiyo.xyz/metadata/"
  ],
  "bytecode": "0x60806040523480156200001157600080fd5b506040516200365a3803806200365a83398181016040528101906200003791906200030f565b6040518060400160405280601681526020017f4b69796f2d73616e2042697274686461792032303231000000000000000000008152506040518060400160405280600681526020017f30784b69796f00000000000000000000000000000000000000000000000000008152508160009080519060200190620000bb929190620001ed565b508060019080519060200190620000d4929190620001ed565b5050506001600681905550620000ff620000f36200011f60201b60201c565b6200012760201b60201c565b80600b908051906020019062000117929190620001ed565b5050620004c4565b600033905090565b6000600760009054906101000a900473ffffffffffffffffffffffffffffffffffffffff16905081600760006101000a81548173ffffffffffffffffffffffffffffffffffffffff021916908373ffffffffffffffffffffffffffffffffffffffff1602179055508173ffffffffffffffffffffffffffffffffffffffff168173ffffffffffffffffffffffffffffffffffffffff167f8be0079c531659141344cd1fd0a4f28419497f9722a3daafe3b4186f6b6457e060405160405180910390a35050565b828054620001fb90620003e9565b90600052602060002090601f0160209004810192826200021f57600085556200026b565b82601f106200023a57805160ff19168380011785556200026b565b828001600101855582156200026b579182015b828111156200026a5782518255916020019190600101906200024d565b5b5090506200027a91906200027e565b5090565b5b80821115620002995760008160009055506001016200027f565b5090565b6000620002b4620002ae846200037d565b62000354565b905082815260208101848484011115620002cd57600080fd5b620002da848285620003b3565b509392505050565b600082601f830112620002f457600080fd5b8151620003068482602086016200029d565b91505092915050565b6000602082840312156200032257600080fd5b600082015167ffffffffffffffff8111156200033d57600080fd5b6200034b84828501620002e2565b91505092915050565b60006200036062000373565b90506200036e82826200041f565b919050565b6000604051905090565b600067ffffffffffffffff8211156200039b576200039a62000484565b5b620003a682620004b3565b9050602081019050919050565b60005b83811015620003d3578082015181840152602081019050620003b6565b83811115620003e3576000848401525b50505050565b600060028204905060018216806200040257607f821691505b6020821081141562000419576200041862000455565b5b50919050565b6200042a82620004b3565b810181811067ffffffffffffffff821117156200044c576200044b62000484565b5b80604052505050565b7f4e487b7100000000000000000000000000000000000000000000000000000000600052602260045260246000fd5b7f4e487b7100000000000000000000000000000000000000000000000000000000600052604160045260246000fd5b6000601f19601f8301169050919050565b61318680620004d46000396000f3fe608060405234801561001057600080fd5b50600436106101425760003560e01c806370a08231116100b8578063b88d4fde1161007c578063b88d4fde1461033d578063bb660c0a14610359578063c87b56dd14610389578063d6c336ed146103b9578063e985e9c5146103d7578063f2fde38b1461040757610142565b806370a08231146102ab578063715018a6146102db5780638da5cb5b146102e557806395d89b4114610303578063a22cb4651461032157610142565b806318160ddd1161010a57806318160ddd146101eb57806323b872dd1461020957806332cb6b0c1461022557806342842e0e1461024357806355f804b31461025f5780636352211e1461027b57610142565b806301ffc9a71461014757806306fdde0314610177578063081812fc14610195578063095ea7b3146101c55780631249c58b146101e1575b600080fd5b610161600480360381019061015c91906120d4565b610423565b60405161016e9190612584565b60405180910390f35b61017f610505565b60405161018c919061259f565b60405180910390f35b6101af60048036038101906101aa9190612167565b610597565b6040516101bc919061251d565b60405180910390f35b6101df60048036038101906101da9190612098565b61061c565b005b6101e9610734565b005b6101f3610861565b6040516102009190612821565b60405180910390f35b610223600480360381019061021e9190611f92565b610872565b005b61022d6108d2565b60405161023a9190612821565b60405180910390f35b61025d60048036038101906102589190611f92565b6108d7565b005b61027960048036038101906102749190612126565b6108f7565b005b61029560048036038101906102909190612167565b61098d565b6040516102a2919061251d565b60405180910390f35b6102c560048036038101906102c09190611f2d565b610a3f565b6040516102d29190612821565b60405180910390f35b6102e3610af7565b005b6102ed610b7f565b6040516102fa919061251d565b60405180910390f35b61030b610ba9565b604051610318919061259f565b60405180910390f35b61033b6004803603810190610336919061205c565b610c3b565b005b61035760048036038101906103529190611fe1565b610dbc565b005b610373600480360381019061036e9190611f2d565b610e1e565b6040516103809190612821565b60405180910390f35b6103a3600480360381019061039e9190612167565b610e73565b6040516103b0919061259f565b60405180910390f35b6103c1610f1a565b6040516103ce9190612821565b60405180910390f35b6103f160048036038101906103ec9190611f56565b610f1f565b6040516103fe9190612584565b60405180910390f35b610421600480360381019061041c9190611f2d565b610fb3565b005b60007f80ac58cd000000000000000000000000000000000000000000000000000000007bffffffffffffffffffffffffffffffffffffffffffffffffffffffff1916827bffffffffffffffffffffffffffffffffffffffffffffffffffffffff191614806104ee57507f5b5e139f000000000000000000000000000000000000000000000000000000007bffffffffffffffffffffffffffffffffffffffffffffffffffffffff1916827bffffffffffffffffffffffffffffffffffffffffffffffffffffffff1916145b806104fe57506104fd826110ab565b5b9050919050565b60606000805461051490612a77565b80601f016020809104026020016040519081016040528092919081815260200182805461054090612a77565b801561058d5780601f106105625761010080835404028352916020019161058d565b820191906000526020600020905b81548152906001019060200180831161057057829003601f168201915b5050505050905090565b60006105a282611115565b6105e1576040517f08c379a00000000000000000000000000000000000000000000000000000000081526004016105d890612741565b60405180910390fd5b6004600083815260200190815260200160002060009054906101000a900473ffffffffffffffffffffffffffffffffffffffff169050919050565b60006106278261098d565b90508073ffffffffffffffffffffffffffffffffffffffff168373ffffffffffffffffffffffffffffffffffffffff161415610698576040517f08c379a000000000000000000000000000000000000000000000000000000000815260040161068f906127c1565b60405180910390fd5b8073ffffffffffffffffffffffffffffffffffffffff166106b7611181565b73ffffffffffffffffffffffffffffffffffffffff1614806106e657506106e5816106e0611181565b610f1f565b5b610725576040517f08c379a000000000000000000000000000000000000000000000000000000000815260040161071c906126a1565b60405180910390fd5b61072f8383611189565b505050565b6002600654141561077a576040517f08c379a000000000000000000000000000000000000000000000000000000000815260040161077190612801565b60405180910390fd5b6002600681905550600161079461078f611181565b610e1e565b106107b0576107ab6107a4611181565b6001611242565b6107eb565b6040517f08c379a00000000000000000000000000000000000000000000000000000000081526004016107e290612681565b60405180910390fd5b601b6107f5610861565b10610835576040517f08c379a000000000000000000000000000000000000000000000000000000000815260040161082c90612701565b60405180910390fd5b61084d610840611181565b610848610861565b61129c565b610857600a6112ba565b6001600681905550565b600061086d600a6112d0565b905090565b61088361087d611181565b826112de565b6108c2576040517f08c379a00000000000000000000000000000000000000000000000000000000081526004016108b9906127e1565b60405180910390fd5b6108cd8383836113bc565b505050565b601b81565b6108f283838360405180602001604052806000815250610dbc565b505050565b6108ff611181565b73ffffffffffffffffffffffffffffffffffffffff1661091d610b7f565b73ffffffffffffffffffffffffffffffffffffffff1614610973576040517f08c379a000000000000000000000000000000000000000000000000000000000815260040161096a90612761565b60405180910390fd5b80600b9080519060200190610989929190611d51565b5050565b6000806002600084815260200190815260200160002060009054906101000a900473ffffffffffffffffffffffffffffffffffffffff169050600073ffffffffffffffffffffffffffffffffffffffff168173ffffffffffffffffffffffffffffffffffffffff161415610a36576040517f08c379a0000000000000000000000000000000000000000000000000000000008152600401610a2d906126e1565b60405180910390fd5b80915050919050565b60008073ffffffffffffffffffffffffffffffffffffffff168273ffffffffffffffffffffffffffffffffffffffff161415610ab0576040517f08c379a0000000000000000000000000000000000000000000000000000000008152600401610aa7906126c1565b60405180910390fd5b600360008373ffffffffffffffffffffffffffffffffffffffff1673ffffffffffffffffffffffffffffffffffffffff168152602001908152602001600020549050919050565b610aff611181565b73ffffffffffffffffffffffffffffffffffffffff16610b1d610b7f565b73ffffffffffffffffffffffffffffffffffffffff1614610b73576040517f08c379a0000000000000000000000000000000000000000000000000000000008152600401610b6a90612761565b60405180910390fd5b610b7d6000611618565b565b6000600760009054906101000a900473ffffffffffffffffffffffffffffffffffffffff16905090565b606060018054610bb890612a77565b80601f0160208091040260200160405190810160405280929190818152602001828054610be490612a77565b8015610c315780601f10610c0657610100808354040283529160200191610c31565b820191906000526020600020905b815481529060010190602001808311610c1457829003601f168201915b5050505050905090565b610c43611181565b73ffffffffffffffffffffffffffffffffffffffff168273ffffffffffffffffffffffffffffffffffffffff161415610cb1576040517f08c379a0000000000000000000000000000000000000000000000000000000008152600401610ca890612641565b60405180910390fd5b8060056000610cbe611181565b73ffffffffffffffffffffffffffffffffffffffff1673ffffffffffffffffffffffffffffffffffffffff16815260200190815260200160002060008473ffffffffffffffffffffffffffffffffffffffff1673ffffffffffffffffffffffffffffffffffffffff16815260200190815260200160002060006101000a81548160ff0219169083151502179055508173ffffffffffffffffffffffffffffffffffffffff16610d6b611181565b73ffffffffffffffffffffffffffffffffffffffff167f17307eab39ab6107e8899845ad3d59bd9653f200f220920489ca2b5937696c3183604051610db09190612584565b60405180910390a35050565b610dcd610dc7611181565b836112de565b610e0c576040517f08c379a0000000000000000000000000000000000000000000000000000000008152600401610e03906127e1565b60405180910390fd5b610e18848484846116de565b50505050565b6000600860008373ffffffffffffffffffffffffffffffffffffffff1673ffffffffffffffffffffffffffffffffffffffff168152602001908152602001600020546001610e6c919061298d565b9050919050565b6060610e7e82611115565b610ebd576040517f08c379a0000000000000000000000000000000000000000000000000000000008152600401610eb4906127a1565b60405180910390fd5b6000610ec761173a565b90506000815111610ee75760405180602001604052806000815250610f12565b80610ef1846117cc565b604051602001610f029291906124f9565b6040516020818303038152906040525b915050919050565b600181565b6000600560008473ffffffffffffffffffffffffffffffffffffffff1673ffffffffffffffffffffffffffffffffffffffff16815260200190815260200160002060008373ffffffffffffffffffffffffffffffffffffffff1673ffffffffffffffffffffffffffffffffffffffff16815260200190815260200160002060009054906101000a900460ff16905092915050565b610fbb611181565b73ffffffffffffffffffffffffffffffffffffffff16610fd9610b7f565b73ffffffffffffffffffffffffffffffffffffffff161461102f576040517f08c379a000000000000000000000000000000000000000000000000000000000815260040161102690612761565b60405180910390fd5b600073ffffffffffffffffffffffffffffffffffffffff168173ffffffffffffffffffffffffffffffffffffffff16141561109f576040517f08c379a0000000000000000000000000000000000000000000000000000000008152600401611096906125e1565b60405180910390fd5b6110a881611618565b50565b60007f01ffc9a7000000000000000000000000000000000000000000000000000000007bffffffffffffffffffffffffffffffffffffffffffffffffffffffff1916827bffffffffffffffffffffffffffffffffffffffffffffffffffffffff1916149050919050565b60008073ffffffffffffffffffffffffffffffffffffffff166002600084815260200190815260200160002060009054906101000a900473ffffffffffffffffffffffffffffffffffffffff1673ffffffffffffffffffffffffffffffffffffffff1614159050919050565b600033905090565b816004600083815260200190815260200160002060006101000a81548173ffffffffffffffffffffffffffffffffffffffff021916908373ffffffffffffffffffffffffffffffffffffffff160217905550808273ffffffffffffffffffffffffffffffffffffffff166111fc8361098d565b73ffffffffffffffffffffffffffffffffffffffff167f8c5be1e5ebec7d5bd14f71427d1e84f3dd0314c0f7b2291e5b200ac8c7c3b92560405160405180910390a45050565b80600860008473ffffffffffffffffffffffffffffffffffffffff1673ffffffffffffffffffffffffffffffffffffffff16815260200190815260200160002060008282546112919190612906565b925050819055505050565b6112b6828260405180602001604052806000815250611979565b5050565b6001816000016000828254019250508190555050565b600081600001549050919050565b60006112e982611115565b611328576040517f08c379a000000000000000000000000000000000000000000000000000000000815260040161131f90612661565b60405180910390fd5b60006113338361098d565b90508073ffffffffffffffffffffffffffffffffffffffff168473ffffffffffffffffffffffffffffffffffffffff1614806113a257508373ffffffffffffffffffffffffffffffffffffffff1661138a84610597565b73ffffffffffffffffffffffffffffffffffffffff16145b806113b357506113b28185610f1f565b5b91505092915050565b8273ffffffffffffffffffffffffffffffffffffffff166113dc8261098d565b73ffffffffffffffffffffffffffffffffffffffff1614611432576040517f08c379a000000000000000000000000000000000000000000000000000000000815260040161142990612781565b60405180910390fd5b600073ffffffffffffffffffffffffffffffffffffffff168273ffffffffffffffffffffffffffffffffffffffff1614156114a2576040517f08c379a000000000000000000000000000000000000000000000000000000000815260040161149990612621565b60405180910390fd5b6114ad8383836119d4565b6114b8600082611189565b6001600360008573ffffffffffffffffffffffffffffffffffffffff1673ffffffffffffffffffffffffffffffffffffffff1681526020019081526020016000206000828254611508919061298d565b925050819055506001600360008473ffffffffffffffffffffffffffffffffffffffff1673ffffffffffffffffffffffffffffffffffffffff168152602001908152602001600020600082825461155f9190612906565b92505081905550816002600083815260200190815260200160002060006101000a81548173ffffffffffffffffffffffffffffffffffffffff021916908373ffffffffffffffffffffffffffffffffffffffff160217905550808273ffffffffffffffffffffffffffffffffffffffff168473ffffffffffffffffffffffffffffffffffffffff167fddf252ad1be2c89b69c2b068fc378daa952ba7f163c4a11628f55a4df523b3ef60405160405180910390a4505050565b6000600760009054906101000a900473ffffffffffffffffffffffffffffffffffffffff16905081600760006101000a81548173ffffffffffffffffffffffffffffffffffffffff021916908373ffffffffffffffffffffffffffffffffffffffff1602179055508173ffffffffffffffffffffffffffffffffffffffff168173ffffffffffffffffffffffffffffffffffffffff167f8be0079c531659141344cd1fd0a4f28419497f9722a3daafe3b4186f6b6457e060405160405180910390a35050565b6116e98484846113bc565b6116f5848484846119d9565b611734576040517f08c379a000000000000000000000000000000000000000000000000000000000815260040161172b906125c1565b60405180910390fd5b50505050565b6060600b805461174990612a77565b80601f016020809104026020016040519081016040528092919081815260200182805461177590612a77565b80156117c25780601f10611797576101008083540402835291602001916117c2565b820191906000526020600020905b8154815290600101906020018083116117a557829003601f168201915b5050505050905090565b60606000821415611814576040518060400160405280600181526020017f30000000000000000000000000000000000000000000000000000000000000008152509050611974565b600082905060005b6000821461184657808061182f90612ada565b915050600a8261183f919061295c565b915061181c565b60008167ffffffffffffffff811115611888577f4e487b7100000000000000000000000000000000000000000000000000000000600052604160045260246000fd5b6040519080825280601f01601f1916602001820160405280156118ba5781602001600182028036833780820191505090505b5090505b6000851461196d576001826118d3919061298d565b9150600a856118e29190612b23565b60306118ee9190612906565b60f81b81838151811061192a577f4e487b7100000000000000000000000000000000000000000000000000000000600052603260045260246000fd5b60200101907effffffffffffffffffffffffffffffffffffffffffffffffffffffffffffff1916908160001a905350600a85611966919061295c565b94506118be565b8093505050505b919050565b6119838383611b70565b61199060008484846119d9565b6119cf576040517f08c379a00000000000000000000000000000000000000000000000000000000081526004016119c6906125c1565b60405180910390fd5b505050565b505050565b60006119fa8473ffffffffffffffffffffffffffffffffffffffff16611d3e565b15611b63578373ffffffffffffffffffffffffffffffffffffffff1663150b7a02611a23611181565b8786866040518563ffffffff1660e01b8152600401611a459493929190612538565b602060405180830381600087803b158015611a5f57600080fd5b505af1925050508015611a9057506040513d601f19601f82011682018060405250810190611a8d91906120fd565b60015b611b13573d8060008114611ac0576040519150601f19603f3d011682016040523d82523d6000602084013e611ac5565b606091505b50600081511415611b0b576040517f08c379a0000000000000000000000000000000000000000000000000000000008152600401611b02906125c1565b60405180910390fd5b805181602001fd5b63150b7a0260e01b7bffffffffffffffffffffffffffffffffffffffffffffffffffffffff1916817bffffffffffffffffffffffffffffffffffffffffffffffffffffffff191614915050611b68565b600190505b949350505050565b600073ffffffffffffffffffffffffffffffffffffffff168273ffffffffffffffffffffffffffffffffffffffff161415611be0576040517f08c379a0000000000000000000000000000000000000000000000000000000008152600401611bd790612721565b60405180910390fd5b611be981611115565b15611c29576040517f08c379a0000000000000000000000000000000000000000000000000000000008152600401611c2090612601565b60405180910390fd5b611c35600083836119d4565b6001600360008473ffffffffffffffffffffffffffffffffffffffff1673ffffffffffffffffffffffffffffffffffffffff1681526020019081526020016000206000828254611c859190612906565b92505081905550816002600083815260200190815260200160002060006101000a81548173ffffffffffffffffffffffffffffffffffffffff021916908373ffffffffffffffffffffffffffffffffffffffff160217905550808273ffffffffffffffffffffffffffffffffffffffff16600073ffffffffffffffffffffffffffffffffffffffff167fddf252ad1be2c89b69c2b068fc378daa952ba7f163c4a11628f55a4df523b3ef60405160405180910390a45050565b600080823b905060008111915050919050565b828054611d5d90612a77565b90600052602060002090601f016020900481019282611d7f5760008555611dc6565b82601f10611d9857805160ff1916838001178555611dc6565b82800160010185558215611dc6579182015b82811115611dc5578251825591602001919060010190611daa565b5b509050611dd39190611dd7565b5090565b5b80821115611df0576000816000905550600101611dd8565b5090565b6000611e07611e0284612861565b61283c565b905082815260208101848484011115611e1f57600080fd5b611e2a848285612a35565b509392505050565b6000611e45611e4084612892565b61283c565b905082815260208101848484011115611e5d57600080fd5b611e68848285612a35565b509392505050565b600081359050611e7f816130f4565b92915050565b600081359050611e948161310b565b92915050565b600081359050611ea981613122565b92915050565b600081519050611ebe81613122565b92915050565b600082601f830112611ed557600080fd5b8135611ee5848260208601611df4565b91505092915050565b600082601f830112611eff57600080fd5b8135611f0f848260208601611e32565b91505092915050565b600081359050611f2781613139565b92915050565b600060208284031215611f3f57600080fd5b6000611f4d84828501611e70565b91505092915050565b60008060408385031215611f6957600080fd5b6000611f7785828601611e70565b9250506020611f8885828601611e70565b9150509250929050565b600080600060608486031215611fa757600080fd5b6000611fb586828701611e70565b9350506020611fc686828701611e70565b9250506040611fd786828701611f18565b9150509250925092565b60008060008060808587031215611ff757600080fd5b600061200587828801611e70565b945050602061201687828801611e70565b935050604061202787828801611f18565b925050606085013567ffffffffffffffff81111561204457600080fd5b61205087828801611ec4565b91505092959194509250565b6000806040838503121561206f57600080fd5b600061207d85828601611e70565b925050602061208e85828601611e85565b9150509250929050565b600080604083850312156120ab57600080fd5b60006120b985828601611e70565b92505060206120ca85828601611f18565b9150509250929050565b6000602082840312156120e657600080fd5b60006120f484828501611e9a565b91505092915050565b60006020828403121561210f57600080fd5b600061211d84828501611eaf565b91505092915050565b60006020828403121561213857600080fd5b600082013567ffffffffffffffff81111561215257600080fd5b61215e84828501611eee565b91505092915050565b60006020828403121561217957600080fd5b600061218784828501611f18565b91505092915050565b612199816129c1565b82525050565b6121a8816129d3565b82525050565b60006121b9826128c3565b6121c381856128d9565b93506121d3818560208601612a44565b6121dc81612c10565b840191505092915050565b60006121f2826128ce565b6121fc81856128ea565b935061220c818560208601612a44565b61221581612c10565b840191505092915050565b600061222b826128ce565b61223581856128fb565b9350612245818560208601612a44565b80840191505092915050565b600061225e6032836128ea565b915061226982612c21565b604082019050919050565b60006122816026836128ea565b915061228c82612c70565b604082019050919050565b60006122a4601c836128ea565b91506122af82612cbf565b602082019050919050565b60006122c76024836128ea565b91506122d282612ce8565b604082019050919050565b60006122ea6019836128ea565b91506122f582612d37565b602082019050919050565b600061230d602c836128ea565b915061231882612d60565b604082019050919050565b60006123306016836128ea565b915061233b82612daf565b602082019050919050565b60006123536038836128ea565b915061235e82612dd8565b604082019050919050565b6000612376602a836128ea565b915061238182612e27565b604082019050919050565b60006123996029836128ea565b91506123a482612e76565b604082019050919050565b60006123bc6012836128ea565b91506123c782612ec5565b602082019050919050565b60006123df6020836128ea565b91506123ea82612eee565b602082019050919050565b6000612402602c836128ea565b915061240d82612f17565b604082019050919050565b60006124256020836128ea565b915061243082612f66565b602082019050919050565b60006124486029836128ea565b915061245382612f8f565b604082019050919050565b600061246b602f836128ea565b915061247682612fde565b604082019050919050565b600061248e6021836128ea565b91506124998261302d565b604082019050919050565b60006124b16031836128ea565b91506124bc8261307c565b604082019050919050565b60006124d4601f836128ea565b91506124df826130cb565b602082019050919050565b6124f381612a2b565b82525050565b60006125058285612220565b91506125118284612220565b91508190509392505050565b60006020820190506125326000830184612190565b92915050565b600060808201905061254d6000830187612190565b61255a6020830186612190565b61256760408301856124ea565b818103606083015261257981846121ae565b905095945050505050565b6000602082019050612599600083018461219f565b92915050565b600060208201905081810360008301526125b981846121e7565b905092915050565b600060208201905081810360008301526125da81612251565b9050919050565b600060208201905081810360008301526125fa81612274565b9050919050565b6000602082019050818103600083015261261a81612297565b9050919050565b6000602082019050818103600083015261263a816122ba565b9050919050565b6000602082019050818103600083015261265a816122dd565b9050919050565b6000602082019050818103600083015261267a81612300565b9050919050565b6000602082019050818103600083015261269a81612323565b9050919050565b600060208201905081810360008301526126ba81612346565b9050919050565b600060208201905081810360008301526126da81612369565b9050919050565b600060208201905081810360008301526126fa8161238c565b9050919050565b6000602082019050818103600083015261271a816123af565b9050919050565b6000602082019050818103600083015261273a816123d2565b9050919050565b6000602082019050818103600083015261275a816123f5565b9050919050565b6000602082019050818103600083015261277a81612418565b9050919050565b6000602082019050818103600083015261279a8161243b565b9050919050565b600060208201905081810360008301526127ba8161245e565b9050919050565b600060208201905081810360008301526127da81612481565b9050919050565b600060208201905081810360008301526127fa816124a4565b9050919050565b6000602082019050818103600083015261281a816124c7565b9050919050565b600060208201905061283660008301846124ea565b92915050565b6000612846612857565b90506128528282612aa9565b919050565b6000604051905090565b600067ffffffffffffffff82111561287c5761287b612be1565b5b61288582612c10565b9050602081019050919050565b600067ffffffffffffffff8211156128ad576128ac612be1565b5b6128b682612c10565b9050602081019050919050565b600081519050919050565b600081519050919050565b600082825260208201905092915050565b600082825260208201905092915050565b600081905092915050565b600061291182612a2b565b915061291c83612a2b565b9250827fffffffffffffffffffffffffffffffffffffffffffffffffffffffffffffffff0382111561295157612950612b54565b5b828201905092915050565b600061296782612a2b565b915061297283612a2b565b92508261298257612981612b83565b5b828204905092915050565b600061299882612a2b565b91506129a383612a2b565b9250828210156129b6576129b5612b54565b5b828203905092915050565b60006129cc82612a0b565b9050919050565b60008115159050919050565b60007fffffffff0000000000000000000000000000000000000000000000000000000082169050919050565b600073ffffffffffffffffffffffffffffffffffffffff82169050919050565b6000819050919050565b82818337600083830152505050565b60005b83811015612a62578082015181840152602081019050612a47565b83811115612a71576000848401525b50505050565b60006002820490506001821680612a8f57607f821691505b60208210811415612aa357612aa2612bb2565b5b50919050565b612ab282612c10565b810181811067ffffffffffffffff82111715612ad157612ad0612be1565b5b80604052505050565b6000612ae582612a2b565b91507fffffffffffffffffffffffffffffffffffffffffffffffffffffffffffffffff821415612b1857612b17612b54565b5b600182019050919050565b6000612b2e82612a2b565b9150612b3983612a2b565b925082612b4957612b48612b83565b5b828206905092915050565b7f4e487b7100000000000000000000000000000000000000000000000000000000600052601160045260246000fd5b7f4e487b7100000000000000000000000000000000000000000000000000000000600052601260045260246000fd5b7f4e487b7100000000000000000000000000000000000000000000000000000000600052602260045260246000fd5b7f4e487b7100000000000000000000000000000000000000000000000000000000600052604160045260246000fd5b6000601f19601f8301169050919050565b7f4552433732313a207472616e7366657220746f206e6f6e20455243373231526560008201527f63656976657220696d706c656d656e7465720000000000000000000000000000602082015250565b7f4f776e61626c653a206e6577206f776e657220697320746865207a65726f206160008201527f6464726573730000000000000000000000000000000000000000000000000000602082015250565b7f4552433732313a20746f6b656e20616c7265616479206d696e74656400000000600082015250565b7f4552433732313a207472616e7366657220746f20746865207a65726f2061646460008201527f7265737300000000000000000000000000000000000000000000000000000000602082015250565b7f4552433732313a20617070726f766520746f2063616c6c657200000000000000600082015250565b7f4552433732313a206f70657261746f7220717565727920666f72206e6f6e657860008201527f697374656e7420746f6b656e0000000000000000000000000000000000000000602082015250565b7f4d696e74696e67206c696d697420657863656564656400000000000000000000600082015250565b7f4552433732313a20617070726f76652063616c6c6572206973206e6f74206f7760008201527f6e6572206e6f7220617070726f76656420666f7220616c6c0000000000000000602082015250565b7f4552433732313a2062616c616e636520717565727920666f7220746865207a6560008201527f726f206164647265737300000000000000000000000000000000000000000000602082015250565b7f4552433732313a206f776e657220717565727920666f72206e6f6e657869737460008201527f656e7420746f6b656e0000000000000000000000000000000000000000000000602082015250565b7f45786365656473206d617820737570706c790000000000000000000000000000600082015250565b7f4552433732313a206d696e7420746f20746865207a65726f2061646472657373600082015250565b7f4552433732313a20617070726f76656420717565727920666f72206e6f6e657860008201527f697374656e7420746f6b656e0000000000000000000000000000000000000000602082015250565b7f4f776e61626c653a2063616c6c6572206973206e6f7420746865206f776e6572600082015250565b7f4552433732313a207472616e73666572206f6620746f6b656e2074686174206960008201527f73206e6f74206f776e0000000000000000000000000000000000000000000000602082015250565b7f4552433732314d657461646174613a2055524920717565727920666f72206e6f60008201527f6e6578697374656e7420746f6b656e0000000000000000000000000000000000602082015250565b7f4552433732313a20617070726f76616c20746f2063757272656e74206f776e6560008201527f7200000000000000000000000000000000000000000000000000000000000000602082015250565b7f4552433732313a207472616e736665722063616c6c6572206973206e6f74206f60008201527f776e6572206e6f7220617070726f766564000000000000000000000000000000602082015250565b7f5265656e7472616e637947756172643a207265656e7472616e742063616c6c00600082015250565b6130fd816129c1565b811461310857600080fd5b50565b613114816129d3565b811461311f57600080fd5b50565b61312b816129df565b811461313657600080fd5b50565b61314281612a2b565b811461314d57600080fd5b5056fea2646970667358221220a5bc917ac90a7562bcc3d6faedf2e2b1d2361ea9181b4f7b98fdf8641baf87ee64736f6c63430008040033",
  "devdoc": {
    "kind": "dev",
    "methods": {
      "approve(address,uint256)": {
        "details": "See {IERC721-approve}."
      },
      "balanceOf(address)": {
        "details": "See {IERC721-balanceOf}."
      },
      "getApproved(uint256)": {
        "details": "See {IERC721-getApproved}."
      },
      "isApprovedForAll(address,address)": {
        "details": "See {IERC721-isApprovedForAll}."
      },
      "name()": {
        "details": "See {IERC721Metadata-name}."
      },
      "owner()": {
        "details": "Returns the address of the current owner."
      },
      "ownerOf(uint256)": {
        "details": "See {IERC721-ownerOf}."
      },
      "renounceOwnership()": {
        "details": "Leaves the contract without owner. It will not be possible to call `onlyOwner` functions anymore. Can only be called by the current owner. NOTE: Renouncing ownership will leave the contract without an owner, thereby removing any functionality that is only available to the owner."
      },
      "safeTransferFrom(address,address,uint256)": {
        "details": "See {IERC721-safeTransferFrom}."
      },
      "safeTransferFrom(address,address,uint256,bytes)": {
        "details": "See {IERC721-safeTransferFrom}."
      },
      "setApprovalForAll(address,bool)": {
        "details": "See {IERC721-setApprovalForAll}."
      },
      "supportsInterface(bytes4)": {
        "details": "See {IERC165-supportsInterface}."
      },
      "symbol()": {
        "details": "See {IERC721Metadata-symbol}."
      },
      "tokenURI(uint256)": {
        "details": "See {IERC721Metadata-tokenURI}."
      },
      "transferFrom(address,address,uint256)": {
        "details": "See {IERC721-transferFrom}."
      },
      "transferOwnership(address)": {
        "details": "Transfers ownership of the contract to a new account (`newOwner`). Can only be called by the current owner."
      }
    },
    "version": 1
  },
  "solcInputHash": "91af4e99fb6162ce42860b5fffeff688",
  "storageLayout": {
    "storage": [
      {
        "astId": 169,
        "contract": "contracts/0xKiyo/src/0xKiyo.sol:KiyoSanBirthday",
        "label": "_name",
        "offset": 0,
        "slot": "0",
        "type": "t_string_storage"
      },
      {
        "astId": 171,
        "contract": "contracts/0xKiyo/src/0xKiyo.sol:KiyoSanBirthday",
        "label": "_symbol",
        "offset": 0,
        "slot": "1",
        "type": "t_string_storage"
      },
      {
        "astId": 175,
        "contract": "contracts/0xKiyo/src/0xKiyo.sol:KiyoSanBirthday",
        "label": "_owners",
        "offset": 0,
        "slot": "2",
        "type": "t_mapping(t_uint256,t_address)"
      },
      {
        "astId": 179,
        "contract": "contracts/0xKiyo/src/0xKiyo.sol:KiyoSanBirthday",
        "label": "_balances",
        "offset": 0,
        "slot": "3",
        "type": "t_mapping(t_address,t_uint256)"
      },
      {
        "astId": 183,
        "contract": "contracts/0xKiyo/src/0xKiyo.sol:KiyoSanBirthday",
        "label": "_tokenApprovals",
        "offset": 0,
        "slot": "4",
        "type": "t_mapping(t_uint256,t_address)"
      },
      {
        "astId": 189,
        "contract": "contracts/0xKiyo/src/0xKiyo.sol:KiyoSanBirthday",
        "label": "_operatorApprovals",
        "offset": 0,
        "slot": "5",
        "type": "t_mapping(t_address,t_mapping(t_address,t_bool))"
      },
      {
        "astId": 114,
        "contract": "contracts/0xKiyo/src/0xKiyo.sol:KiyoSanBirthday",
        "label": "_status",
        "offset": 0,
        "slot": "6",
        "type": "t_uint256"
      },
      {
        "astId": 7,
        "contract": "contracts/0xKiyo/src/0xKiyo.sol:KiyoSanBirthday",
        "label": "_owner",
        "offset": 0,
        "slot": "7",
        "type": "t_address"
      },
      {
        "astId": 1786,
        "contract": "contracts/0xKiyo/src/0xKiyo.sol:KiyoSanBirthday",
        "label": "mintCountMap",
        "offset": 0,
        "slot": "8",
        "type": "t_mapping(t_address,t_uint256)"
      },
      {
        "astId": 1790,
        "contract": "contracts/0xKiyo/src/0xKiyo.sol:KiyoSanBirthday",
        "label": "allowedMintCountMap",
        "offset": 0,
        "slot": "9",
        "type": "t_mapping(t_address,t_uint256)"
      },
      {
        "astId": 1827,
        "contract": "contracts/0xKiyo/src/0xKiyo.sol:KiyoSanBirthday",
        "label": "supplyCounter",
        "offset": 0,
        "slot": "10",
        "type": "t_struct(Counter)1445_storage"
      },
      {
        "astId": 1884,
        "contract": "contracts/0xKiyo/src/0xKiyo.sol:KiyoSanBirthday",
        "label": "customBaseURI",
        "offset": 0,
        "slot": "11",
        "type": "t_string_storage"
      }
    ],
    "types": {
      "t_address": {
        "encoding": "inplace",
        "label": "address",
        "numberOfBytes": "20"
      },
      "t_bool": {
        "encoding": "inplace",
        "label": "bool",
        "numberOfBytes": "1"
      },
      "t_mapping(t_address,t_bool)": {
        "encoding": "mapping",
        "key": "t_address",
        "label": "mapping(address => bool)",
        "numberOfBytes": "32",
        "value": "t_bool"
      },
      "t_mapping(t_address,t_mapping(t_address,t_bool))": {
        "encoding": "mapping",
        "key": "t_address",
        "label": "mapping(address => mapping(address => bool))",
        "numberOfBytes": "32",
        "value": "t_mapping(t_address,t_bool)"
      },
      "t_mapping(t_address,t_uint256)": {
        "encoding": "mapping",
        "key": "t_address",
        "label": "mapping(address => uint256)",
        "numberOfBytes": "32",
        "value": "t_uint256"
      },
      "t_mapping(t_uint256,t_address)": {
        "encoding": "mapping",
        "key": "t_uint256",
        "label": "mapping(uint256 => address)",
        "numberOfBytes": "32",
        "value": "t_address"
      },
      "t_string_storage": {
        "encoding": "bytes",
        "label": "string",
        "numberOfBytes": "32"
      },
      "t_struct(Counter)1445_storage": {
        "encoding": "inplace",
        "label": "struct Counters.Counter",
        "members": [
          {
            "astId": 1444,
            "contract": "contracts/0xKiyo/src/0xKiyo.sol:KiyoSanBirthday",
            "label": "_value",
            "offset": 0,
            "slot": "0",
            "type": "t_uint256"
          }
        ],
        "numberOfBytes": "32"
      },
      "t_uint256": {
        "encoding": "inplace",
        "label": "uint256",
        "numberOfBytes": "32"
      }
    }
  },
  "transactionHash": "0x1b9d617783b3bea33d1c3567ddddc2adb932df1cc851d70da521c1a16ee577a1",
  "userdoc": {
    "kind": "user",
    "methods": {},
    "version": 1
  }
}