{
  "abi": [
    {
      "inputs": [],
      "stateMutability": "nonpayable",
      "type": "constructor"
    },
    {
      "anonymous": false,
      "inputs": [
        {
          "indexed": true,
          "internalType": "address",
          "name": "owner",
          "type": "address"
        },
        {
          "indexed": true,
          "internalType": "address",
          "name": "approved",
          "type": "address"
        },
        {
          "indexed": true,
          "internalType": "uint256",
          "name": "tokenId",
          "type": "uint256"
        }
      ],
      "name": "Approval",
      "type": "event"
    },
    {
      "anonymous": false,
      "inputs": [
        {
          "indexed": true,
          "internalType": "address",
          "name": "owner",
          "type": "address"
        },
        {
          "indexed": true,
          "internalType": "address",
          "name": "operator",
          "type": "address"
        },
        {
          "indexed": false,
          "internalType": "bool",
          "name": "approved",
          "type": "bool"
        }
      ],
      "name": "ApprovalForAll",
      "type": "event"
    },
    {
      "anonymous": false,
      "inputs": [
        {
          "indexed": true,
          "internalType": "address",
          "name": "previousOwner",
          "type": "address"
        },
        {
          "indexed": true,
          "internalType": "address",
          "name": "newOwner",
          "type": "address"
        }
      ],
      "name": "OwnershipTransferred",
      "type": "event"
    },
    {
      "anonymous": false,
      "inputs": [
        {
          "indexed": true,
          "internalType": "address",
          "name": "from",
          "type": "address"
        },
        {
          "indexed": true,
          "internalType": "address",
          "name": "to",
          "type": "address"
        },
        {
          "indexed": true,
          "internalType": "uint256",
          "name": "tokenId",
          "type": "uint256"
        }
      ],
      "name": "Transfer",
      "type": "event"
    },
    {
      "inputs": [
        {
          "internalType": "address[]",
          "name": "to",
          "type": "address[]"
        }
      ],
      "name": "airdrop",
      "outputs": [],
      "stateMutability": "nonpayable",
      "type": "function"
    },
    {
      "inputs": [
        {
          "internalType": "address",
          "name": "to",
          "type": "address"
        },
        {
          "internalType": "uint256",
          "name": "tokenId",
          "type": "uint256"
        }
      ],
      "name": "approve",
      "outputs": [],
      "stateMutability": "nonpayable",
      "type": "function"
    },
    {
      "inputs": [
        {
          "internalType": "address",
          "name": "owner",
          "type": "address"
        }
      ],
      "name": "balanceOf",
      "outputs": [
        {
          "internalType": "uint256",
          "name": "",
          "type": "uint256"
        }
      ],
      "stateMutability": "view",
      "type": "function"
    },
    {
      "inputs": [
        {
          "internalType": "bytes",
          "name": "unencoded",
          "type": "bytes"
        }
      ],
      "name": "base64Encode",
      "outputs": [
        {
          "internalType": "string",
          "name": "",
          "type": "string"
        }
      ],
      "stateMutability": "pure",
      "type": "function"
    },
    {
      "inputs": [
        {
          "internalType": "bytes",
          "name": "json",
          "type": "bytes"
        }
      ],
      "name": "encodeMetadataJSON",
      "outputs": [
        {
          "internalType": "string",
          "name": "",
          "type": "string"
        }
      ],
      "stateMutability": "pure",
      "type": "function"
    },
    {
      "inputs": [
        {
          "internalType": "uint256",
          "name": "tokenId",
          "type": "uint256"
        }
      ],
      "name": "getApproved",
      "outputs": [
        {
          "internalType": "address",
          "name": "",
          "type": "address"
        }
      ],
      "stateMutability": "view",
      "type": "function"
    },
    {
      "inputs": [
        {
          "internalType": "address",
          "name": "owner",
          "type": "address"
        },
        {
          "internalType": "address",
          "name": "operator",
          "type": "address"
        }
      ],
      "name": "isApprovedForAll",
      "outputs": [
        {
          "internalType": "bool",
          "name": "",
          "type": "bool"
        }
      ],
      "stateMutability": "view",
      "type": "function"
    },
    {
      "inputs": [],
      "name": "mintIsOpen",
      "outputs": [
        {
          "internalType": "bool",
          "name": "",
          "type": "bool"
        }
      ],
      "stateMutability": "view",
      "type": "function"
    },
    {
      "inputs": [],
      "name": "name",
      "outputs": [
        {
          "internalType": "string",
          "name": "",
          "type": "string"
        }
      ],
      "stateMutability": "view",
      "type": "function"
    },
    {
      "inputs": [],
      "name": "owner",
      "outputs": [
        {
          "internalType": "address",
          "name": "",
          "type": "address"
        }
      ],
      "stateMutability": "view",
      "type": "function"
    },
    {
      "inputs": [
        {
          "internalType": "uint256",
          "name": "tokenId",
          "type": "uint256"
        }
      ],
      "name": "ownerOf",
      "outputs": [
        {
          "internalType": "address",
          "name": "",
          "type": "address"
        }
      ],
      "stateMutability": "view",
      "type": "function"
    },
    {
      "inputs": [],
      "name": "renderer",
      "outputs": [
        {
          "internalType": "contract Renderer",
          "name": "",
          "type": "address"
        }
      ],
      "stateMutability": "view",
      "type": "function"
    },
    {
      "inputs": [],
      "name": "renounceOwnership",
      "outputs": [],
      "stateMutability": "nonpayable",
      "type": "function"
    },
    {
      "inputs": [
        {
          "internalType": "address",
          "name": "to",
          "type": "address"
        }
      ],
      "name": "safeMint",
      "outputs": [],
      "stateMutability": "nonpayable",
      "type": "function"
    },
    {
      "inputs": [
        {
          "internalType": "address",
          "name": "from",
          "type": "address"
        },
        {
          "internalType": "address",
          "name": "to",
          "type": "address"
        },
        {
          "internalType": "uint256",
          "name": "tokenId",
          "type": "uint256"
        }
      ],
      "name": "safeTransferFrom",
      "outputs": [],
      "stateMutability": "nonpayable",
      "type": "function"
    },
    {
      "inputs": [
        {
          "internalType": "address",
          "name": "from",
          "type": "address"
        },
        {
          "internalType": "address",
          "name": "to",
          "type": "address"
        },
        {
          "internalType": "uint256",
          "name": "tokenId",
          "type": "uint256"
        },
        {
          "internalType": "bytes",
          "name": "_data",
          "type": "bytes"
        }
      ],
      "name": "safeTransferFrom",
      "outputs": [],
      "stateMutability": "nonpayable",
      "type": "function"
    },
    {
      "inputs": [
        {
          "internalType": "address",
          "name": "operator",
          "type": "address"
        },
        {
          "internalType": "bool",
          "name": "approved",
          "type": "bool"
        }
      ],
      "name": "setApprovalForAll",
      "outputs": [],
      "stateMutability": "nonpayable",
      "type": "function"
    },
    {
      "inputs": [
        {
          "internalType": "bool",
          "name": "_saleIsActive_",
          "type": "bool"
        }
      ],
      "name": "setMintIsOpen",
      "outputs": [],
      "stateMutability": "nonpayable",
      "type": "function"
    },
    {
      "inputs": [
        {
          "internalType": "bytes4",
          "name": "interfaceId",
          "type": "bytes4"
        }
      ],
      "name": "supportsInterface",
      "outputs": [
        {
          "internalType": "bool",
          "name": "",
          "type": "bool"
        }
      ],
      "stateMutability": "view",
      "type": "function"
    },
    {
      "inputs": [],
      "name": "symbol",
      "outputs": [
        {
          "internalType": "string",
          "name": "",
          "type": "string"
        }
      ],
      "stateMutability": "view",
      "type": "function"
    },
    {
      "inputs": [
        {
          "internalType": "uint256",
          "name": "tokenId",
          "type": "uint256"
        }
      ],
      "name": "tokenURI",
      "outputs": [
        {
          "internalType": "string",
          "name": "",
          "type": "string"
        }
      ],
      "stateMutability": "view",
      "type": "function"
    },
    {
      "inputs": [],
      "name": "totalSupply",
      "outputs": [
        {
          "internalType": "uint256",
          "name": "",
          "type": "uint256"
        }
      ],
      "stateMutability": "view",
      "type": "function"
    },
    {
      "inputs": [
        {
          "internalType": "address",
          "name": "from",
          "type": "address"
        },
        {
          "internalType": "address",
          "name": "to",
          "type": "address"
        },
        {
          "internalType": "uint256",
          "name": "tokenId",
          "type": "uint256"
        }
      ],
      "name": "transferFrom",
      "outputs": [],
      "stateMutability": "nonpayable",
      "type": "function"
    },
    {
      "inputs": [
        {
          "internalType": "address",
          "name": "newOwner",
          "type": "address"
        }
      ],
      "name": "transferOwnership",
      "outputs": [],
      "stateMutability": "nonpayable",
      "type": "function"
    }
  ],
  "address": "0x5FbDB2315678afecb367f032d93F642f64180aa3",
  "args": [],
  "bytecode": "0x60806040526000600960146101000a81548160ff0219169083151502179055503480156200002c57600080fd5b506040518060400160405280600a81526020017f4c69676874204f726273000000000000000000000000000000000000000000008152506040518060400160405280600481526020017f4c4f5242000000000000000000000000000000000000000000000000000000008152508160009080519060200190620000b1929190620001c9565b508060019080519060200190620000ca929190620001c9565b5050506001600681905550620000f5620000e9620000fb60201b60201c565b6200010360201b60201c565b620002dd565b600033905090565b6000600760009054906101000a900473ffffffffffffffffffffffffffffffffffffffff16905081600760006101000a81548173ffffffffffffffffffffffffffffffffffffffff021916908373ffffffffffffffffffffffffffffffffffffffff1602179055508173ffffffffffffffffffffffffffffffffffffffff168173ffffffffffffffffffffffffffffffffffffffff167f8be0079c531659141344cd1fd0a4f28419497f9722a3daafe3b4186f6b6457e060405160405180910390a35050565b828054620001d790620002a8565b90600052602060002090601f016020900481019282620001fb576000855562000247565b82601f106200021657805160ff191683800117855562000247565b8280016001018555821562000247579182015b828111156200024657825182559160200191906001019062000229565b5b5090506200025691906200025a565b5090565b5b80821115620002755760008160009055506001016200025b565b5090565b7f4e487b7100000000000000000000000000000000000000000000000000000000600052602260045260246000fd5b60006002820490506001821680620002c157607f821691505b602082108103620002d757620002d662000279565b5b50919050565b61367b80620002ed6000396000f3fe608060405234801561001057600080fd5b50600436106101585760003560e01c8063729ad39e116100c3578063b88d4fde1161007c578063b88d4fde1461039f578063c87b56dd146103bb578063d01fde8c146103eb578063d5fb1b191461041b578063e985e9c51461044b578063f2fde38b1461047b57610158565b8063729ad39e146102ef5780638ada6b0f1461030b5780638da5cb5b1461032957806395d89b4114610347578063a22cb46514610365578063aa1152ab1461038157610158565b8063297e1a1111610115578063297e1a111461023157806340d097c31461024d57806342842e0e146102695780636352211e1461028557806370a08231146102b5578063715018a6146102e557610158565b806301ffc9a71461015d57806306fdde031461018d578063081812fc146101ab578063095ea7b3146101db57806318160ddd146101f757806323b872dd14610215575b600080fd5b61017760048036038101906101729190611f9e565b610497565b6040516101849190611fe6565b60405180910390f35b610195610579565b6040516101a2919061209a565b60405180910390f35b6101c560048036038101906101c091906120f2565b61060b565b6040516101d29190612160565b60405180910390f35b6101f560048036038101906101f091906121a7565b610690565b005b6101ff6107a7565b60405161020c91906121f6565b60405180910390f35b61022f600480360381019061022a9190612211565b6107b8565b005b61024b60048036038101906102469190612290565b610818565b005b610267600480360381019061026291906122bd565b6108b1565b005b610283600480360381019061027e9190612211565b6109a2565b005b61029f600480360381019061029a91906120f2565b6109c2565b6040516102ac9190612160565b60405180910390f35b6102cf60048036038101906102ca91906122bd565b610a73565b6040516102dc91906121f6565b60405180910390f35b6102ed610b2a565b005b61030960048036038101906103049190612432565b610bb2565b005b610313610c5b565b60405161032091906124da565b60405180910390f35b610331610c81565b60405161033e9190612160565b60405180910390f35b61034f610cab565b60405161035c919061209a565b60405180910390f35b61037f600480360381019061037a91906124f5565b610d3d565b005b610389610d53565b6040516103969190611fe6565b60405180910390f35b6103b960048036038101906103b491906125ea565b610d66565b005b6103d560048036038101906103d091906120f2565b610dc8565b6040516103e2919061209a565b60405180910390f35b6104056004803603810190610400919061266d565b610ef9565b604051610412919061209a565b60405180910390f35b6104356004803603810190610430919061266d565b610f2a565b604051610442919061209a565b60405180910390f35b610465600480360381019061046091906126b6565b610f3c565b6040516104729190611fe6565b60405180910390f35b610495600480360381019061049091906122bd565b610fd0565b005b60007f80ac58cd000000000000000000000000000000000000000000000000000000007bffffffffffffffffffffffffffffffffffffffffffffffffffffffff1916827bffffffffffffffffffffffffffffffffffffffffffffffffffffffff1916148061056257507f5b5e139f000000000000000000000000000000000000000000000000000000007bffffffffffffffffffffffffffffffffffffffffffffffffffffffff1916827bffffffffffffffffffffffffffffffffffffffffffffffffffffffff1916145b806105725750610571826110c7565b5b9050919050565b60606000805461058890612725565b80601f01602080910402602001604051908101604052809291908181526020018280546105b490612725565b80156106015780601f106105d657610100808354040283529160200191610601565b820191906000526020600020905b8154815290600101906020018083116105e457829003601f168201915b5050505050905090565b600061061682611131565b610655576040517f08c379a000000000000000000000000000000000000000000000000000000000815260040161064c906127c8565b60405180910390fd5b6004600083815260200190815260200160002060009054906101000a900473ffffffffffffffffffffffffffffffffffffffff169050919050565b600061069b826109c2565b90508073ffffffffffffffffffffffffffffffffffffffff168373ffffffffffffffffffffffffffffffffffffffff160361070b576040517f08c379a00000000000000000000000000000000000000000000000000000000081526004016107029061285a565b60405180910390fd5b8073ffffffffffffffffffffffffffffffffffffffff1661072a61119d565b73ffffffffffffffffffffffffffffffffffffffff16148061075957506107588161075361119d565b610f3c565b5b610798576040517f08c379a000000000000000000000000000000000000000000000000000000000815260040161078f906128ec565b60405180910390fd5b6107a283836111a5565b505050565b60006107b3600861125e565b905090565b6107c96107c361119d565b8261126c565b610808576040517f08c379a00000000000000000000000000000000000000000000000000000000081526004016107ff9061297e565b60405180910390fd5b61081383838361134a565b505050565b61082061119d565b73ffffffffffffffffffffffffffffffffffffffff1661083e610c81565b73ffffffffffffffffffffffffffffffffffffffff1614610894576040517f08c379a000000000000000000000000000000000000000000000000000000000815260040161088b906129ea565b60405180910390fd5b80600960146101000a81548160ff02191690831515021790555050565b6108b961119d565b73ffffffffffffffffffffffffffffffffffffffff166108d7610c81565b73ffffffffffffffffffffffffffffffffffffffff161461092d576040517f08c379a0000000000000000000000000000000000000000000000000000000008152600401610924906129ea565b60405180910390fd5b600960149054906101000a900460ff1661097c576040517f08c379a000000000000000000000000000000000000000000000000000000000815260040161097390612a56565b60405180910390fd5b6000610988600861125e565b905061099460086115b0565b61099e82826115c6565b5050565b6109bd83838360405180602001604052806000815250610d66565b505050565b6000806002600084815260200190815260200160002060009054906101000a900473ffffffffffffffffffffffffffffffffffffffff169050600073ffffffffffffffffffffffffffffffffffffffff168173ffffffffffffffffffffffffffffffffffffffff1603610a6a576040517f08c379a0000000000000000000000000000000000000000000000000000000008152600401610a6190612ae8565b60405180910390fd5b80915050919050565b60008073ffffffffffffffffffffffffffffffffffffffff168273ffffffffffffffffffffffffffffffffffffffff1603610ae3576040517f08c379a0000000000000000000000000000000000000000000000000000000008152600401610ada90612b7a565b60405180910390fd5b600360008373ffffffffffffffffffffffffffffffffffffffff1673ffffffffffffffffffffffffffffffffffffffff168152602001908152602001600020549050919050565b610b3261119d565b73ffffffffffffffffffffffffffffffffffffffff16610b50610c81565b73ffffffffffffffffffffffffffffffffffffffff1614610ba6576040517f08c379a0000000000000000000000000000000000000000000000000000000008152600401610b9d906129ea565b60405180910390fd5b610bb060006115e4565b565b600960149054906101000a900460ff16610c01576040517f08c379a0000000000000000000000000000000000000000000000000000000008152600401610bf890612a56565b60405180910390fd5b60005b8151811015610c5757610c1760086115b0565b610c44828281518110610c2d57610c2c612b9a565b5b6020026020010151610c3f600861125e565b6116aa565b8080610c4f90612bf8565b915050610c04565b5050565b600960009054906101000a900473ffffffffffffffffffffffffffffffffffffffff1681565b6000600760009054906101000a900473ffffffffffffffffffffffffffffffffffffffff16905090565b606060018054610cba90612725565b80601f0160208091040260200160405190810160405280929190818152602001828054610ce690612725565b8015610d335780601f10610d0857610100808354040283529160200191610d33565b820191906000526020600020905b815481529060010190602001808311610d1657829003601f168201915b5050505050905090565b610d4f610d4861119d565b8383611883565b5050565b600960149054906101000a900460ff1681565b610d77610d7161119d565b8361126c565b610db6576040517f08c379a0000000000000000000000000000000000000000000000000000000008152600401610dad9061297e565b60405180910390fd5b610dc2848484846119ef565b50505050565b6060610dd382611131565b610e12576040517f08c379a0000000000000000000000000000000000000000000000000000000008152600401610e0990612c8c565b60405180910390fd5b6000610e1d83611a4b565b9050610ef181600960009054906101000a900473ffffffffffffffffffffffffffffffffffffffff1673ffffffffffffffffffffffffffffffffffffffff166319e00849610e6a876109c2565b6040518263ffffffff1660e01b8152600401610e869190612160565b600060405180830381865afa158015610ea3573d6000803e3d6000fd5b505050506040513d6000823e3d601f19601f82011682018060405250810190610ecc9190612d4d565b604051602001610edd929190612edc565b604051602081830303815290604052610ef9565b915050919050565b6060610f0482610f2a565b604051602001610f149190612f6d565b6040516020818303038152906040529050919050565b6060610f3582611bab565b9050919050565b6000600560008473ffffffffffffffffffffffffffffffffffffffff1673ffffffffffffffffffffffffffffffffffffffff16815260200190815260200160002060008373ffffffffffffffffffffffffffffffffffffffff1673ffffffffffffffffffffffffffffffffffffffff16815260200190815260200160002060009054906101000a900460ff16905092915050565b610fd861119d565b73ffffffffffffffffffffffffffffffffffffffff16610ff6610c81565b73ffffffffffffffffffffffffffffffffffffffff161461104c576040517f08c379a0000000000000000000000000000000000000000000000000000000008152600401611043906129ea565b60405180910390fd5b600073ffffffffffffffffffffffffffffffffffffffff168173ffffffffffffffffffffffffffffffffffffffff16036110bb576040517f08c379a00000000000000000000000000000000000000000000000000000000081526004016110b290613001565b60405180910390fd5b6110c4816115e4565b50565b60007f01ffc9a7000000000000000000000000000000000000000000000000000000007bffffffffffffffffffffffffffffffffffffffffffffffffffffffff1916827bffffffffffffffffffffffffffffffffffffffffffffffffffffffff1916149050919050565b60008073ffffffffffffffffffffffffffffffffffffffff166002600084815260200190815260200160002060009054906101000a900473ffffffffffffffffffffffffffffffffffffffff1673ffffffffffffffffffffffffffffffffffffffff1614159050919050565b600033905090565b816004600083815260200190815260200160002060006101000a81548173ffffffffffffffffffffffffffffffffffffffff021916908373ffffffffffffffffffffffffffffffffffffffff160217905550808273ffffffffffffffffffffffffffffffffffffffff16611218836109c2565b73ffffffffffffffffffffffffffffffffffffffff167f8c5be1e5ebec7d5bd14f71427d1e84f3dd0314c0f7b2291e5b200ac8c7c3b92560405160405180910390a45050565b600081600001549050919050565b600061127782611131565b6112b6576040517f08c379a00000000000000000000000000000000000000000000000000000000081526004016112ad90613093565b60405180910390fd5b60006112c1836109c2565b90508073ffffffffffffffffffffffffffffffffffffffff168473ffffffffffffffffffffffffffffffffffffffff16148061130357506113028185610f3c565b5b8061134157508373ffffffffffffffffffffffffffffffffffffffff166113298461060b565b73ffffffffffffffffffffffffffffffffffffffff16145b91505092915050565b8273ffffffffffffffffffffffffffffffffffffffff1661136a826109c2565b73ffffffffffffffffffffffffffffffffffffffff16146113c0576040517f08c379a00000000000000000000000000000000000000000000000000000000081526004016113b790613125565b60405180910390fd5b600073ffffffffffffffffffffffffffffffffffffffff168273ffffffffffffffffffffffffffffffffffffffff160361142f576040517f08c379a0000000000000000000000000000000000000000000000000000000008152600401611426906131b7565b60405180910390fd5b61143a838383611d23565b6114456000826111a5565b6001600360008573ffffffffffffffffffffffffffffffffffffffff1673ffffffffffffffffffffffffffffffffffffffff168152602001908152602001600020600082825461149591906131d7565b925050819055506001600360008473ffffffffffffffffffffffffffffffffffffffff1673ffffffffffffffffffffffffffffffffffffffff16815260200190815260200160002060008282546114ec919061320b565b92505081905550816002600083815260200190815260200160002060006101000a81548173ffffffffffffffffffffffffffffffffffffffff021916908373ffffffffffffffffffffffffffffffffffffffff160217905550808273ffffffffffffffffffffffffffffffffffffffff168473ffffffffffffffffffffffffffffffffffffffff167fddf252ad1be2c89b69c2b068fc378daa952ba7f163c4a11628f55a4df523b3ef60405160405180910390a46115ab838383611d28565b505050565b6001816000016000828254019250508190555050565b6115e0828260405180602001604052806000815250611d2d565b5050565b6000600760009054906101000a900473ffffffffffffffffffffffffffffffffffffffff16905081600760006101000a81548173ffffffffffffffffffffffffffffffffffffffff021916908373ffffffffffffffffffffffffffffffffffffffff1602179055508173ffffffffffffffffffffffffffffffffffffffff168173ffffffffffffffffffffffffffffffffffffffff167f8be0079c531659141344cd1fd0a4f28419497f9722a3daafe3b4186f6b6457e060405160405180910390a35050565b600073ffffffffffffffffffffffffffffffffffffffff168273ffffffffffffffffffffffffffffffffffffffff1603611719576040517f08c379a0000000000000000000000000000000000000000000000000000000008152600401611710906132ad565b60405180910390fd5b61172281611131565b15611762576040517f08c379a000000000000000000000000000000000000000000000000000000000815260040161175990613319565b60405180910390fd5b61176e60008383611d23565b6001600360008473ffffffffffffffffffffffffffffffffffffffff1673ffffffffffffffffffffffffffffffffffffffff16815260200190815260200160002060008282546117be919061320b565b92505081905550816002600083815260200190815260200160002060006101000a81548173ffffffffffffffffffffffffffffffffffffffff021916908373ffffffffffffffffffffffffffffffffffffffff160217905550808273ffffffffffffffffffffffffffffffffffffffff16600073ffffffffffffffffffffffffffffffffffffffff167fddf252ad1be2c89b69c2b068fc378daa952ba7f163c4a11628f55a4df523b3ef60405160405180910390a461187f60008383611d28565b5050565b8173ffffffffffffffffffffffffffffffffffffffff168373ffffffffffffffffffffffffffffffffffffffff16036118f1576040517f08c379a00000000000000000000000000000000000000000000000000000000081526004016118e890613385565b60405180910390fd5b80600560008573ffffffffffffffffffffffffffffffffffffffff1673ffffffffffffffffffffffffffffffffffffffff16815260200190815260200160002060008473ffffffffffffffffffffffffffffffffffffffff1673ffffffffffffffffffffffffffffffffffffffff16815260200190815260200160002060006101000a81548160ff0219169083151502179055508173ffffffffffffffffffffffffffffffffffffffff168373ffffffffffffffffffffffffffffffffffffffff167f17307eab39ab6107e8899845ad3d59bd9653f200f220920489ca2b5937696c31836040516119e29190611fe6565b60405180910390a3505050565b6119fa84848461134a565b611a0684848484611d88565b611a45576040517f08c379a0000000000000000000000000000000000000000000000000000000008152600401611a3c90613417565b60405180910390fd5b50505050565b606060008203611a92576040518060400160405280600181526020017f30000000000000000000000000000000000000000000000000000000000000008152509050611ba6565b600082905060005b60008214611ac4578080611aad90612bf8565b915050600a82611abd9190613466565b9150611a9a565b60008167ffffffffffffffff811115611ae057611adf6122ef565b5b6040519080825280601f01601f191660200182016040528015611b125781602001600182028036833780820191505090505b5090505b60008514611b9f57600182611b2b91906131d7565b9150600a85611b3a9190613497565b6030611b46919061320b565b60f81b818381518110611b5c57611b5b612b9a565b5b60200101907effffffffffffffffffffffffffffffffffffffffffffffffffffffffffffff1916908160001a905350600a85611b989190613466565b9450611b16565b8093505050505b919050565b60606000825103611bcd57604051806020016040528060008152509050611d1e565b60006040518060600160405280604081526020016136066040913990506000600360028551611bfc919061320b565b611c069190613466565b6004611c1291906134c8565b90506000602082611c23919061320b565b67ffffffffffffffff811115611c3c57611c3b6122ef565b5b6040519080825280601f01601f191660200182016040528015611c6e5781602001600182028036833780820191505090505b509050818152600183018586518101602084015b81831015611cdd576003830192508251603f8160121c168501518253600182019150603f81600c1c168501518253600182019150603f8160061c168501518253600182019150603f8116850151825360018201915050611c82565b600389510660018114611cf75760028114611d0757611d12565b613d3d60f01b6002830352611d12565b603d60f81b60018303525b50505050508093505050505b919050565b505050565b505050565b611d3783836116aa565b611d446000848484611d88565b611d83576040517f08c379a0000000000000000000000000000000000000000000000000000000008152600401611d7a90613417565b60405180910390fd5b505050565b6000611da98473ffffffffffffffffffffffffffffffffffffffff16611f0f565b15611f02578373ffffffffffffffffffffffffffffffffffffffff1663150b7a02611dd261119d565b8786866040518563ffffffff1660e01b8152600401611df49493929190613577565b6020604051808303816000875af1925050508015611e3057506040513d601f19601f82011682018060405250810190611e2d91906135d8565b60015b611eb2573d8060008114611e60576040519150601f19603f3d011682016040523d82523d6000602084013e611e65565b606091505b506000815103611eaa576040517f08c379a0000000000000000000000000000000000000000000000000000000008152600401611ea190613417565b60405180910390fd5b805181602001fd5b63150b7a0260e01b7bffffffffffffffffffffffffffffffffffffffffffffffffffffffff1916817bffffffffffffffffffffffffffffffffffffffffffffffffffffffff191614915050611f07565b600190505b949350505050565b6000808273ffffffffffffffffffffffffffffffffffffffff163b119050919050565b6000604051905090565b600080fd5b600080fd5b60007fffffffff0000000000000000000000000000000000000000000000000000000082169050919050565b611f7b81611f46565b8114611f8657600080fd5b50565b600081359050611f9881611f72565b92915050565b600060208284031215611fb457611fb3611f3c565b5b6000611fc284828501611f89565b91505092915050565b60008115159050919050565b611fe081611fcb565b82525050565b6000602082019050611ffb6000830184611fd7565b92915050565b600081519050919050565b600082825260208201905092915050565b60005b8381101561203b578082015181840152602081019050612020565b8381111561204a576000848401525b50505050565b6000601f19601f8301169050919050565b600061206c82612001565b612076818561200c565b935061208681856020860161201d565b61208f81612050565b840191505092915050565b600060208201905081810360008301526120b48184612061565b905092915050565b6000819050919050565b6120cf816120bc565b81146120da57600080fd5b50565b6000813590506120ec816120c6565b92915050565b60006020828403121561210857612107611f3c565b5b6000612116848285016120dd565b91505092915050565b600073ffffffffffffffffffffffffffffffffffffffff82169050919050565b600061214a8261211f565b9050919050565b61215a8161213f565b82525050565b60006020820190506121756000830184612151565b92915050565b6121848161213f565b811461218f57600080fd5b50565b6000813590506121a18161217b565b92915050565b600080604083850312156121be576121bd611f3c565b5b60006121cc85828601612192565b92505060206121dd858286016120dd565b9150509250929050565b6121f0816120bc565b82525050565b600060208201905061220b60008301846121e7565b92915050565b60008060006060848603121561222a57612229611f3c565b5b600061223886828701612192565b935050602061224986828701612192565b925050604061225a868287016120dd565b9150509250925092565b61226d81611fcb565b811461227857600080fd5b50565b60008135905061228a81612264565b92915050565b6000602082840312156122a6576122a5611f3c565b5b60006122b48482850161227b565b91505092915050565b6000602082840312156122d3576122d2611f3c565b5b60006122e184828501612192565b91505092915050565b600080fd5b7f4e487b7100000000000000000000000000000000000000000000000000000000600052604160045260246000fd5b61232782612050565b810181811067ffffffffffffffff82111715612346576123456122ef565b5b80604052505050565b6000612359611f32565b9050612365828261231e565b919050565b600067ffffffffffffffff821115612385576123846122ef565b5b602082029050602081019050919050565b600080fd5b60006123ae6123a98461236a565b61234f565b905080838252602082019050602084028301858111156123d1576123d0612396565b5b835b818110156123fa57806123e68882612192565b8452602084019350506020810190506123d3565b5050509392505050565b600082601f830112612419576124186122ea565b5b813561242984826020860161239b565b91505092915050565b60006020828403121561244857612447611f3c565b5b600082013567ffffffffffffffff81111561246657612465611f41565b5b61247284828501612404565b91505092915050565b6000819050919050565b60006124a061249b6124968461211f565b61247b565b61211f565b9050919050565b60006124b282612485565b9050919050565b60006124c4826124a7565b9050919050565b6124d4816124b9565b82525050565b60006020820190506124ef60008301846124cb565b92915050565b6000806040838503121561250c5761250b611f3c565b5b600061251a85828601612192565b925050602061252b8582860161227b565b9150509250929050565b600080fd5b600067ffffffffffffffff821115612555576125546122ef565b5b61255e82612050565b9050602081019050919050565b82818337600083830152505050565b600061258d6125888461253a565b61234f565b9050828152602081018484840111156125a9576125a8612535565b5b6125b484828561256b565b509392505050565b600082601f8301126125d1576125d06122ea565b5b81356125e184826020860161257a565b91505092915050565b6000806000806080858703121561260457612603611f3c565b5b600061261287828801612192565b945050602061262387828801612192565b9350506040612634878288016120dd565b925050606085013567ffffffffffffffff81111561265557612654611f41565b5b612661878288016125bc565b91505092959194509250565b60006020828403121561268357612682611f3c565b5b600082013567ffffffffffffffff8111156126a1576126a0611f41565b5b6126ad848285016125bc565b91505092915050565b600080604083850312156126cd576126cc611f3c565b5b60006126db85828601612192565b92505060206126ec85828601612192565b9150509250929050565b7f4e487b7100000000000000000000000000000000000000000000000000000000600052602260045260246000fd5b6000600282049050600182168061273d57607f821691505b6020821081036127505761274f6126f6565b5b50919050565b7f4552433732313a20617070726f76656420717565727920666f72206e6f6e657860008201527f697374656e7420746f6b656e0000000000000000000000000000000000000000602082015250565b60006127b2602c8361200c565b91506127bd82612756565b604082019050919050565b600060208201905081810360008301526127e1816127a5565b9050919050565b7f4552433732313a20617070726f76616c20746f2063757272656e74206f776e6560008201527f7200000000000000000000000000000000000000000000000000000000000000602082015250565b600061284460218361200c565b915061284f826127e8565b604082019050919050565b6000602082019050818103600083015261287381612837565b9050919050565b7f4552433732313a20617070726f76652063616c6c6572206973206e6f74206f7760008201527f6e6572206e6f7220617070726f76656420666f7220616c6c0000000000000000602082015250565b60006128d660388361200c565b91506128e18261287a565b604082019050919050565b60006020820190508181036000830152612905816128c9565b9050919050565b7f4552433732313a207472616e736665722063616c6c6572206973206e6f74206f60008201527f776e6572206e6f7220617070726f766564000000000000000000000000000000602082015250565b600061296860318361200c565b91506129738261290c565b604082019050919050565b600060208201905081810360008301526129978161295b565b9050919050565b7f4f776e61626c653a2063616c6c6572206973206e6f7420746865206f776e6572600082015250565b60006129d460208361200c565b91506129df8261299e565b602082019050919050565b60006020820190508181036000830152612a03816129c7565b9050919050565b7f4d696e74206e6f74206f70656e00000000000000000000000000000000000000600082015250565b6000612a40600d8361200c565b9150612a4b82612a0a565b602082019050919050565b60006020820190508181036000830152612a6f81612a33565b9050919050565b7f4552433732313a206f776e657220717565727920666f72206e6f6e657869737460008201527f656e7420746f6b656e0000000000000000000000000000000000000000000000602082015250565b6000612ad260298361200c565b9150612add82612a76565b604082019050919050565b60006020820190508181036000830152612b0181612ac5565b9050919050565b7f4552433732313a2062616c616e636520717565727920666f7220746865207a6560008201527f726f206164647265737300000000000000000000000000000000000000000000602082015250565b6000612b64602a8361200c565b9150612b6f82612b08565b604082019050919050565b60006020820190508181036000830152612b9381612b57565b9050919050565b7f4e487b7100000000000000000000000000000000000000000000000000000000600052603260045260246000fd5b7f4e487b7100000000000000000000000000000000000000000000000000000000600052601160045260246000fd5b6000612c03826120bc565b91507fffffffffffffffffffffffffffffffffffffffffffffffffffffffffffffffff8203612c3557612c34612bc9565b5b600182019050919050565b7f4e6f20746f6b656e206578697374730000000000000000000000000000000000600082015250565b6000612c76600f8361200c565b9150612c8182612c40565b602082019050919050565b60006020820190508181036000830152612ca581612c69565b9050919050565b600067ffffffffffffffff821115612cc757612cc66122ef565b5b612cd082612050565b9050602081019050919050565b6000612cf0612ceb84612cac565b61234f565b905082815260208101848484011115612d0c57612d0b612535565b5b612d1784828561201d565b509392505050565b600082601f830112612d3457612d336122ea565b5b8151612d44848260208601612cdd565b91505092915050565b600060208284031215612d6357612d62611f3c565b5b600082015167ffffffffffffffff811115612d8157612d80611f41565b5b612d8d84828501612d1f565b91505092915050565b600081905092915050565b7f7b226e616d65223a20224c69676874204f726220230000000000000000000000600082015250565b6000612dd7601583612d96565b9150612de282612da1565b601582019050919050565b6000612df882612001565b612e028185612d96565b9350612e1281856020860161201d565b80840191505092915050565b7f222c20226465736372697074696f6e223a20224c69676874204f7262222c202260008201527f696d616765223a20220000000000000000000000000000000000000000000000602082015250565b6000612e7a602983612d96565b9150612e8582612e1e565b602982019050919050565b7f227d000000000000000000000000000000000000000000000000000000000000600082015250565b6000612ec6600283612d96565b9150612ed182612e90565b600282019050919050565b6000612ee782612dca565b9150612ef38285612ded565b9150612efe82612e6d565b9150612f0a8284612ded565b9150612f1582612eb9565b91508190509392505050565b7f646174613a6170706c69636174696f6e2f6a736f6e3b6261736536342c000000600082015250565b6000612f57601d83612d96565b9150612f6282612f21565b601d82019050919050565b6000612f7882612f4a565b9150612f848284612ded565b915081905092915050565b7f4f776e61626c653a206e6577206f776e657220697320746865207a65726f206160008201527f6464726573730000000000000000000000000000000000000000000000000000602082015250565b6000612feb60268361200c565b9150612ff682612f8f565b604082019050919050565b6000602082019050818103600083015261301a81612fde565b9050919050565b7f4552433732313a206f70657261746f7220717565727920666f72206e6f6e657860008201527f697374656e7420746f6b656e0000000000000000000000000000000000000000602082015250565b600061307d602c8361200c565b915061308882613021565b604082019050919050565b600060208201905081810360008301526130ac81613070565b9050919050565b7f4552433732313a207472616e736665722066726f6d20696e636f72726563742060008201527f6f776e6572000000000000000000000000000000000000000000000000000000602082015250565b600061310f60258361200c565b915061311a826130b3565b604082019050919050565b6000602082019050818103600083015261313e81613102565b9050919050565b7f4552433732313a207472616e7366657220746f20746865207a65726f2061646460008201527f7265737300000000000000000000000000000000000000000000000000000000602082015250565b60006131a160248361200c565b91506131ac82613145565b604082019050919050565b600060208201905081810360008301526131d081613194565b9050919050565b60006131e2826120bc565b91506131ed836120bc565b925082821015613200576131ff612bc9565b5b828203905092915050565b6000613216826120bc565b9150613221836120bc565b9250827fffffffffffffffffffffffffffffffffffffffffffffffffffffffffffffffff0382111561325657613255612bc9565b5b828201905092915050565b7f4552433732313a206d696e7420746f20746865207a65726f2061646472657373600082015250565b600061329760208361200c565b91506132a282613261565b602082019050919050565b600060208201905081810360008301526132c68161328a565b9050919050565b7f4552433732313a20746f6b656e20616c7265616479206d696e74656400000000600082015250565b6000613303601c8361200c565b915061330e826132cd565b602082019050919050565b60006020820190508181036000830152613332816132f6565b9050919050565b7f4552433732313a20617070726f766520746f2063616c6c657200000000000000600082015250565b600061336f60198361200c565b915061337a82613339565b602082019050919050565b6000602082019050818103600083015261339e81613362565b9050919050565b7f4552433732313a207472616e7366657220746f206e6f6e20455243373231526560008201527f63656976657220696d706c656d656e7465720000000000000000000000000000602082015250565b600061340160328361200c565b915061340c826133a5565b604082019050919050565b60006020820190508181036000830152613430816133f4565b9050919050565b7f4e487b7100000000000000000000000000000000000000000000000000000000600052601260045260246000fd5b6000613471826120bc565b915061347c836120bc565b92508261348c5761348b613437565b5b828204905092915050565b60006134a2826120bc565b91506134ad836120bc565b9250826134bd576134bc613437565b5b828206905092915050565b60006134d3826120bc565b91506134de836120bc565b9250817fffffffffffffffffffffffffffffffffffffffffffffffffffffffffffffffff048311821515161561351757613516612bc9565b5b828202905092915050565b600081519050919050565b600082825260208201905092915050565b600061354982613522565b613553818561352d565b935061356381856020860161201d565b61356c81612050565b840191505092915050565b600060808201905061358c6000830187612151565b6135996020830186612151565b6135a660408301856121e7565b81810360608301526135b8818461353e565b905095945050505050565b6000815190506135d281611f72565b92915050565b6000602082840312156135ee576135ed611f3c565b5b60006135fc848285016135c3565b9150509291505056fe4142434445464748494a4b4c4d4e4f505152535455565758595a6162636465666768696a6b6c6d6e6f707172737475767778797a303132333435363738392b2fa264697066735822122048279b6f2b6aa4fb69514393ee9e3924c084788a0f82c78c36ad905d5651db0d64736f6c634300080d0033",
  "devdoc": {
    "kind": "dev",
    "methods": {
      "approve(address,uint256)": {
        "details": "See {IERC721-approve}."
      },
      "balanceOf(address)": {
        "details": "See {IERC721-balanceOf}."
      },
      "getApproved(uint256)": {
        "details": "See {IERC721-getApproved}."
      },
      "isApprovedForAll(address,address)": {
        "details": "See {IERC721-isApprovedForAll}."
      },
      "name()": {
        "details": "See {IERC721Metadata-name}."
      },
      "owner()": {
        "details": "Returns the address of the current owner."
      },
      "ownerOf(uint256)": {
        "details": "See {IERC721-ownerOf}."
      },
      "renounceOwnership()": {
        "details": "Leaves the contract without owner. It will not be possible to call `onlyOwner` functions anymore. Can only be called by the current owner. NOTE: Renouncing ownership will leave the contract without an owner, thereby removing any functionality that is only available to the owner."
      },
      "safeTransferFrom(address,address,uint256)": {
        "details": "See {IERC721-safeTransferFrom}."
      },
      "safeTransferFrom(address,address,uint256,bytes)": {
        "details": "See {IERC721-safeTransferFrom}."
      },
      "setApprovalForAll(address,bool)": {
        "details": "See {IERC721-setApprovalForAll}."
      },
      "supportsInterface(bytes4)": {
        "details": "See {IERC165-supportsInterface}."
      },
      "symbol()": {
        "details": "See {IERC721Metadata-symbol}."
      },
      "tokenURI(uint256)": {
        "details": "See {IERC721Metadata-tokenURI}."
      },
      "transferFrom(address,address,uint256)": {
        "details": "See {IERC721-transferFrom}."
      },
      "transferOwnership(address)": {
        "details": "Transfers ownership of the contract to a new account (`newOwner`). Can only be called by the current owner."
      }
    },
    "version": 1
  },
  "numDeployments": 1,
  "solcInputHash": "e495428fbd8f6f9818c9369381e6199d",
  "storageLayout": {
    "storage": [
      {
        "astId": 3826,
        "contract": "contracts/LightOrb/src/LightOrb.sol:LightOrb",
        "label": "_name",
        "offset": 0,
        "slot": "0",
        "type": "t_string_storage"
      },
      {
        "astId": 3828,
        "contract": "contracts/LightOrb/src/LightOrb.sol:LightOrb",
        "label": "_symbol",
        "offset": 0,
        "slot": "1",
        "type": "t_string_storage"
      },
      {
        "astId": 3832,
        "contract": "contracts/LightOrb/src/LightOrb.sol:LightOrb",
        "label": "_owners",
        "offset": 0,
        "slot": "2",
        "type": "t_mapping(t_uint256,t_address)"
      },
      {
        "astId": 3836,
        "contract": "contracts/LightOrb/src/LightOrb.sol:LightOrb",
        "label": "_balances",
        "offset": 0,
        "slot": "3",
        "type": "t_mapping(t_address,t_uint256)"
      },
      {
        "astId": 3840,
        "contract": "contracts/LightOrb/src/LightOrb.sol:LightOrb",
        "label": "_tokenApprovals",
        "offset": 0,
        "slot": "4",
        "type": "t_mapping(t_uint256,t_address)"
      },
      {
        "astId": 3846,
        "contract": "contracts/LightOrb/src/LightOrb.sol:LightOrb",
        "label": "_operatorApprovals",
        "offset": 0,
        "slot": "5",
        "type": "t_mapping(t_address,t_mapping(t_address,t_bool))"
      },
      {
        "astId": 2606,
        "contract": "contracts/LightOrb/src/LightOrb.sol:LightOrb",
        "label": "_status",
        "offset": 0,
        "slot": "6",
        "type": "t_uint256"
      },
      {
        "astId": 2321,
        "contract": "contracts/LightOrb/src/LightOrb.sol:LightOrb",
        "label": "_owner",
        "offset": 0,
        "slot": "7",
        "type": "t_address"
      },
      {
        "astId": 11098,
        "contract": "contracts/LightOrb/src/LightOrb.sol:LightOrb",
        "label": "supplyCounter",
        "offset": 0,
        "slot": "8",
        "type": "t_struct(Counter)5519_storage"
      },
      {
        "astId": 11101,
        "contract": "contracts/LightOrb/src/LightOrb.sol:LightOrb",
        "label": "renderer",
        "offset": 0,
        "slot": "9",
        "type": "t_contract(Renderer)11468"
      },
      {
        "astId": 11104,
        "contract": "contracts/LightOrb/src/LightOrb.sol:LightOrb",
        "label": "mintIsOpen",
        "offset": 20,
        "slot": "9",
        "type": "t_bool"
      }
    ],
    "types": {
      "t_address": {
        "encoding": "inplace",
        "label": "address",
        "numberOfBytes": "20"
      },
      "t_bool": {
        "encoding": "inplace",
        "label": "bool",
        "numberOfBytes": "1"
      },
      "t_contract(Renderer)11468": {
        "encoding": "inplace",
        "label": "contract Renderer",
        "numberOfBytes": "20"
      },
      "t_mapping(t_address,t_bool)": {
        "encoding": "mapping",
        "key": "t_address",
        "label": "mapping(address => bool)",
        "numberOfBytes": "32",
        "value": "t_bool"
      },
      "t_mapping(t_address,t_mapping(t_address,t_bool))": {
        "encoding": "mapping",
        "key": "t_address",
        "label": "mapping(address => mapping(address => bool))",
        "numberOfBytes": "32",
        "value": "t_mapping(t_address,t_bool)"
      },
      "t_mapping(t_address,t_uint256)": {
        "encoding": "mapping",
        "key": "t_address",
        "label": "mapping(address => uint256)",
        "numberOfBytes": "32",
        "value": "t_uint256"
      },
      "t_mapping(t_uint256,t_address)": {
        "encoding": "mapping",
        "key": "t_uint256",
        "label": "mapping(uint256 => address)",
        "numberOfBytes": "32",
        "value": "t_address"
      },
      "t_string_storage": {
        "encoding": "bytes",
        "label": "string",
        "numberOfBytes": "32"
      },
      "t_struct(Counter)5519_storage": {
        "encoding": "inplace",
        "label": "struct Counters.Counter",
        "members": [
          {
            "astId": 5518,
            "contract": "contracts/LightOrb/src/LightOrb.sol:LightOrb",
            "label": "_value",
            "offset": 0,
            "slot": "0",
            "type": "t_uint256"
          }
        ],
        "numberOfBytes": "32"
      },
      "t_uint256": {
        "encoding": "inplace",
        "label": "uint256",
        "numberOfBytes": "32"
      }
    }
  },
  "transactionHash": "0x9612992c21a9eef270de4f8d90b8410252d708778ac689a030303b26edc73e89",
  "userdoc": {
    "kind": "user",
    "methods": {},
    "version": 1
  }
}